{
	"LendingPlatformWithCollateral.sol": {
		"LendingPlatformWithCollateral": {
			"abi": [
				{
					"inputs": [
						{
							"internalType": "contract IERC20",
							"name": "_token",
							"type": "address"
						},
						{
							"internalType": "uint256",
							"name": "_interestRate",
							"type": "uint256"
						}
					],
					"stateMutability": "nonpayable",
					"type": "constructor"
				},
				{
					"inputs": [
						{
							"internalType": "uint256",
							"name": "_amount",
							"type": "uint256"
						}
					],
					"name": "borrow",
					"outputs": [],
					"stateMutability": "nonpayable",
					"type": "function"
				},
				{
					"inputs": [
						{
							"internalType": "address",
							"name": "",
							"type": "address"
						}
					],
					"name": "borrowStartTime",
					"outputs": [
						{
							"internalType": "uint256",
							"name": "",
							"type": "uint256"
						}
					],
					"stateMutability": "view",
					"type": "function"
				},
				{
					"inputs": [
						{
							"internalType": "address",
							"name": "",
							"type": "address"
						}
					],
					"name": "borrowingBalance",
					"outputs": [
						{
							"internalType": "uint256",
							"name": "",
							"type": "uint256"
						}
					],
					"stateMutability": "view",
					"type": "function"
				},
				{
					"inputs": [],
					"name": "depositCollateral",
					"outputs": [],
					"stateMutability": "payable",
					"type": "function"
				},
				{
					"inputs": [
						{
							"internalType": "address",
							"name": "",
							"type": "address"
						}
					],
					"name": "ethCollateral",
					"outputs": [
						{
							"internalType": "uint256",
							"name": "",
							"type": "uint256"
						}
					],
					"stateMutability": "view",
					"type": "function"
				},
				{
					"inputs": [],
					"name": "interestRate",
					"outputs": [
						{
							"internalType": "uint256",
							"name": "",
							"type": "uint256"
						}
					],
					"stateMutability": "view",
					"type": "function"
				},
				{
					"inputs": [
						{
							"internalType": "uint256",
							"name": "_amount",
							"type": "uint256"
						}
					],
					"name": "lend",
					"outputs": [],
					"stateMutability": "nonpayable",
					"type": "function"
				},
				{
					"inputs": [
						{
							"internalType": "address",
							"name": "",
							"type": "address"
						}
					],
					"name": "lendingBalance",
					"outputs": [
						{
							"internalType": "uint256",
							"name": "",
							"type": "uint256"
						}
					],
					"stateMutability": "view",
					"type": "function"
				},
				{
					"inputs": [],
					"name": "repay",
					"outputs": [],
					"stateMutability": "nonpayable",
					"type": "function"
				},
				{
					"inputs": [],
					"name": "token",
					"outputs": [
						{
							"internalType": "contract IERC20",
							"name": "",
							"type": "address"
						}
					],
					"stateMutability": "view",
					"type": "function"
				},
				{
					"inputs": [
						{
							"internalType": "uint256",
							"name": "_amount",
							"type": "uint256"
						}
					],
					"name": "withdrawCollateral",
					"outputs": [],
					"stateMutability": "nonpayable",
					"type": "function"
				}
			],
			"devdoc": {
				"details": "A lending platform that requires users to deposit ETH as collateral.",
				"kind": "dev",
				"methods": {
					"borrow(uint256)": {
						"details": "The user must have deposited ETH collateral to be eligible for a loan.",
						"params": {
							"_amount": "The amount of tokens to borrow."
						}
					},
					"constructor": {
						"details": "Initializes the contract with the token address and interest rate.",
						"params": {
							"_interestRate": "The annual interest rate (e.g., 5 for 5%).",
							"_token": "The address of the ERC20 token contract."
						}
					},
					"depositCollateral()": {
						"details": "This function is marked as `payable` to enable it to receive Ether. The amount of ETH sent with the transaction (`msg.value`) is added to the user's collateral balance."
					},
					"lend(uint256)": {
						"details": "The user must first approve this contract to spend their tokens. The function follows the checks-effects-interactions pattern for security.",
						"params": {
							"_amount": "The amount of tokens to lend."
						}
					},
					"repay()": {
						"details": "The user must first approve this contract to spend the total repayment amount. Resets the user's borrow balance and start time upon successful repayment."
					},
					"withdrawCollateral(uint256)": {
						"details": "A user cannot withdraw any collateral if they have an outstanding loan. This function follows the checks-effects-interactions pattern for security.",
						"params": {
							"_amount": "The amount of ETH (in Wei) to withdraw."
						}
					}
				},
				"stateVariables": {
					"ethCollateral": {
						"details": "Collateral is stored in Wei (the smallest unit of Ether)."
					}
				},
				"title": "LendingPlatformWithCollateral",
				"version": 1
			},
			"evm": {
				"assembly": "    /* \"LendingPlatformWithCollateral.sol\":249:7763  contract LendingPlatformWithCollateral {... */\n  mstore(0x40, 0x80)\n    /* \"LendingPlatformWithCollateral.sol\":1051:1173  constructor(IERC20 _token, uint256 _interestRate) {... */\n  callvalue\n  dup1\n  iszero\n  tag_1\n  jumpi\n  revert(0x00, 0x00)\ntag_1:\n  pop\n  mload(0x40)\n  sub(codesize, bytecodeSize)\n  dup1\n  bytecodeSize\n  dup4\n  codecopy\n  dup2\n  dup2\n  add\n  0x40\n  mstore\n  dup2\n  add\n  swap1\n  tag_2\n  swap2\n  swap1\n  tag_3\n  jump\t// in\ntag_2:\n    /* \"LendingPlatformWithCollateral.sol\":1120:1126  _token */\n  dup2\n    /* \"LendingPlatformWithCollateral.sol\":1112:1117  token */\n  0x00\n  0x00\n    /* \"LendingPlatformWithCollateral.sol\":1112:1126  token = _token */\n  0x0100\n  exp\n  dup2\n  sload\n  dup2\n  0xffffffffffffffffffffffffffffffffffffffff\n  mul\n  not\n  and\n  swap1\n  dup4\n  0xffffffffffffffffffffffffffffffffffffffff\n  and\n  mul\n  or\n  swap1\n  sstore\n  pop\n    /* \"LendingPlatformWithCollateral.sol\":1152:1165  _interestRate */\n  dup1\n    /* \"LendingPlatformWithCollateral.sol\":1137:1149  interestRate */\n  0x01\n    /* \"LendingPlatformWithCollateral.sol\":1137:1165  interestRate = _interestRate */\n  dup2\n  swap1\n  sstore\n  pop\n    /* \"LendingPlatformWithCollateral.sol\":1051:1173  constructor(IERC20 _token, uint256 _interestRate) {... */\n  pop\n  pop\n    /* \"LendingPlatformWithCollateral.sol\":249:7763  contract LendingPlatformWithCollateral {... */\n  jump(tag_6)\n    /* \"#utility.yul\":88:205   */\ntag_8:\n    /* \"#utility.yul\":197:198   */\n  0x00\n    /* \"#utility.yul\":194:195   */\n  0x00\n    /* \"#utility.yul\":187:199   */\n  revert\n    /* \"#utility.yul\":334:460   */\ntag_10:\n    /* \"#utility.yul\":371:378   */\n  0x00\n    /* \"#utility.yul\":411:453   */\n  0xffffffffffffffffffffffffffffffffffffffff\n    /* \"#utility.yul\":404:409   */\n  dup3\n    /* \"#utility.yul\":400:454   */\n  and\n    /* \"#utility.yul\":389:454   */\n  swap1\n  pop\n    /* \"#utility.yul\":334:460   */\n  swap2\n  swap1\n  pop\n  jump\t// out\n    /* \"#utility.yul\":466:562   */\ntag_11:\n    /* \"#utility.yul\":503:510   */\n  0x00\n    /* \"#utility.yul\":532:556   */\n  tag_24\n    /* \"#utility.yul\":550:555   */\n  dup3\n    /* \"#utility.yul\":532:556   */\n  tag_10\n  jump\t// in\ntag_24:\n    /* \"#utility.yul\":521:556   */\n  swap1\n  pop\n    /* \"#utility.yul\":466:562   */\n  swap2\n  swap1\n  pop\n  jump\t// out\n    /* \"#utility.yul\":568:677   */\ntag_12:\n    /* \"#utility.yul\":618:625   */\n  0x00\n    /* \"#utility.yul\":647:671   */\n  tag_26\n    /* \"#utility.yul\":665:670   */\n  dup3\n    /* \"#utility.yul\":647:671   */\n  tag_11\n  jump\t// in\ntag_26:\n    /* \"#utility.yul\":636:671   */\n  swap1\n  pop\n    /* \"#utility.yul\":568:677   */\n  swap2\n  swap1\n  pop\n  jump\t// out\n    /* \"#utility.yul\":683:831   */\ntag_13:\n    /* \"#utility.yul\":769:806   */\n  tag_28\n    /* \"#utility.yul\":800:805   */\n  dup2\n    /* \"#utility.yul\":769:806   */\n  tag_12\n  jump\t// in\ntag_28:\n    /* \"#utility.yul\":762:767   */\n  dup2\n    /* \"#utility.yul\":759:807   */\n  eq\n    /* \"#utility.yul\":749:825   */\n  tag_29\n  jumpi\n    /* \"#utility.yul\":821:822   */\n  0x00\n    /* \"#utility.yul\":818:819   */\n  0x00\n    /* \"#utility.yul\":811:823   */\n  revert\n    /* \"#utility.yul\":749:825   */\ntag_29:\n    /* \"#utility.yul\":683:831   */\n  pop\n  jump\t// out\n    /* \"#utility.yul\":837:1006   */\ntag_14:\n    /* \"#utility.yul\":907:912   */\n  0x00\n    /* \"#utility.yul\":938:944   */\n  dup2\n    /* \"#utility.yul\":932:945   */\n  mload\n    /* \"#utility.yul\":923:945   */\n  swap1\n  pop\n    /* \"#utility.yul\":954:1000   */\n  tag_31\n    /* \"#utility.yul\":994:999   */\n  dup2\n    /* \"#utility.yul\":954:1000   */\n  tag_13\n  jump\t// in\ntag_31:\n    /* \"#utility.yul\":837:1006   */\n  swap3\n  swap2\n  pop\n  pop\n  jump\t// out\n    /* \"#utility.yul\":1012:1089   */\ntag_15:\n    /* \"#utility.yul\":1049:1056   */\n  0x00\n    /* \"#utility.yul\":1078:1083   */\n  dup2\n    /* \"#utility.yul\":1067:1083   */\n  swap1\n  pop\n    /* \"#utility.yul\":1012:1089   */\n  swap2\n  swap1\n  pop\n  jump\t// out\n    /* \"#utility.yul\":1095:1217   */\ntag_16:\n    /* \"#utility.yul\":1168:1192   */\n  tag_34\n    /* \"#utility.yul\":1186:1191   */\n  dup2\n    /* \"#utility.yul\":1168:1192   */\n  tag_15\n  jump\t// in\ntag_34:\n    /* \"#utility.yul\":1161:1166   */\n  dup2\n    /* \"#utility.yul\":1158:1193   */\n  eq\n    /* \"#utility.yul\":1148:1211   */\n  tag_35\n  jumpi\n    /* \"#utility.yul\":1207:1208   */\n  0x00\n    /* \"#utility.yul\":1204:1205   */\n  0x00\n    /* \"#utility.yul\":1197:1209   */\n  revert\n    /* \"#utility.yul\":1148:1211   */\ntag_35:\n    /* \"#utility.yul\":1095:1217   */\n  pop\n  jump\t// out\n    /* \"#utility.yul\":1223:1366   */\ntag_17:\n    /* \"#utility.yul\":1280:1285   */\n  0x00\n    /* \"#utility.yul\":1311:1317   */\n  dup2\n    /* \"#utility.yul\":1305:1318   */\n  mload\n    /* \"#utility.yul\":1296:1318   */\n  swap1\n  pop\n    /* \"#utility.yul\":1327:1360   */\n  tag_37\n    /* \"#utility.yul\":1354:1359   */\n  dup2\n    /* \"#utility.yul\":1327:1360   */\n  tag_16\n  jump\t// in\ntag_37:\n    /* \"#utility.yul\":1223:1366   */\n  swap3\n  swap2\n  pop\n  pop\n  jump\t// out\n    /* \"#utility.yul\":1372:1905   */\ntag_3:\n    /* \"#utility.yul\":1464:1470   */\n  0x00\n    /* \"#utility.yul\":1472:1478   */\n  0x00\n    /* \"#utility.yul\":1521:1523   */\n  0x40\n    /* \"#utility.yul\":1509:1518   */\n  dup4\n    /* \"#utility.yul\":1500:1507   */\n  dup6\n    /* \"#utility.yul\":1496:1519   */\n  sub\n    /* \"#utility.yul\":1492:1524   */\n  slt\n    /* \"#utility.yul\":1489:1608   */\n  iszero\n  tag_39\n  jumpi\n    /* \"#utility.yul\":1527:1606   */\n  tag_40\n  tag_8\n  jump\t// in\ntag_40:\n    /* \"#utility.yul\":1489:1608   */\ntag_39:\n    /* \"#utility.yul\":1647:1648   */\n  0x00\n    /* \"#utility.yul\":1672:1749   */\n  tag_41\n    /* \"#utility.yul\":1741:1748   */\n  dup6\n    /* \"#utility.yul\":1732:1738   */\n  dup3\n    /* \"#utility.yul\":1721:1730   */\n  dup7\n    /* \"#utility.yul\":1717:1739   */\n  add\n    /* \"#utility.yul\":1672:1749   */\n  tag_14\n  jump\t// in\ntag_41:\n    /* \"#utility.yul\":1662:1749   */\n  swap3\n  pop\n    /* \"#utility.yul\":1618:1759   */\n  pop\n    /* \"#utility.yul\":1798:1800   */\n  0x20\n    /* \"#utility.yul\":1824:1888   */\n  tag_42\n    /* \"#utility.yul\":1880:1887   */\n  dup6\n    /* \"#utility.yul\":1871:1877   */\n  dup3\n    /* \"#utility.yul\":1860:1869   */\n  dup7\n    /* \"#utility.yul\":1856:1878   */\n  add\n    /* \"#utility.yul\":1824:1888   */\n  tag_17\n  jump\t// in\ntag_42:\n    /* \"#utility.yul\":1814:1888   */\n  swap2\n  pop\n    /* \"#utility.yul\":1769:1898   */\n  pop\n    /* \"#utility.yul\":1372:1905   */\n  swap3\n  pop\n  swap3\n  swap1\n  pop\n  jump\t// out\n    /* \"LendingPlatformWithCollateral.sol\":249:7763  contract LendingPlatformWithCollateral {... */\ntag_6:\n  dataSize(sub_0)\n  dup1\n  dataOffset(sub_0)\n  0x00\n  codecopy\n  0x00\n  return\nstop\n\nsub_0: assembly {\n        /* \"LendingPlatformWithCollateral.sol\":249:7763  contract LendingPlatformWithCollateral {... */\n      mstore(0x40, 0x80)\n      jumpi(tag_1, lt(calldatasize, 0x04))\n      shr(0xe0, calldataload(0x00))\n      dup1\n      0x7f10883b\n      gt\n      tag_13\n      jumpi\n      dup1\n      0x7f10883b\n      eq\n      tag_7\n      jumpi\n      dup1\n      0xa6aa57ce\n      eq\n      tag_8\n      jumpi\n      dup1\n      0xb750333e\n      eq\n      tag_9\n      jumpi\n      dup1\n      0xc5ebeaec\n      eq\n      tag_10\n      jumpi\n      dup1\n      0xdad919ec\n      eq\n      tag_11\n      jumpi\n      dup1\n      0xfc0c546a\n      eq\n      tag_12\n      jumpi\n      jump(tag_1)\n    tag_13:\n      dup1\n      0x1c8c16fb\n      eq\n      tag_2\n      jumpi\n      dup1\n      0x402d8883\n      eq\n      tag_3\n      jumpi\n      dup1\n      0x6112fe2e\n      eq\n      tag_4\n      jumpi\n      dup1\n      0x6f758140\n      eq\n      tag_5\n      jumpi\n      dup1\n      0x7c3a00fd\n      eq\n      tag_6\n      jumpi\n    tag_1:\n      revert(0x00, 0x00)\n        /* \"LendingPlatformWithCollateral.sol\":731:779  mapping(address => uint256) public ethCollateral */\n    tag_2:\n      callvalue\n      dup1\n      iszero\n      tag_14\n      jumpi\n      revert(0x00, 0x00)\n    tag_14:\n      pop\n      tag_15\n      0x04\n      dup1\n      calldatasize\n      sub\n      dup2\n      add\n      swap1\n      tag_16\n      swap2\n      swap1\n      tag_17\n      jump\t// in\n    tag_16:\n      tag_18\n      jump\t// in\n    tag_15:\n      mload(0x40)\n      tag_19\n      swap2\n      swap1\n      tag_20\n      jump\t// in\n    tag_19:\n      mload(0x40)\n      dup1\n      swap2\n      sub\n      swap1\n      return\n        /* \"LendingPlatformWithCollateral.sol\":6553:7760  function repay() public {... */\n    tag_3:\n      callvalue\n      dup1\n      iszero\n      tag_21\n      jumpi\n      revert(0x00, 0x00)\n    tag_21:\n      pop\n      tag_22\n      tag_23\n      jump\t// in\n    tag_22:\n      stop\n        /* \"LendingPlatformWithCollateral.sol\":2139:3011  function withdrawCollateral(uint256 _amount) public {... */\n    tag_4:\n      callvalue\n      dup1\n      iszero\n      tag_24\n      jumpi\n      revert(0x00, 0x00)\n    tag_24:\n      pop\n      tag_25\n      0x04\n      dup1\n      calldatasize\n      sub\n      dup2\n      add\n      swap1\n      tag_26\n      swap2\n      swap1\n      tag_27\n      jump\t// in\n    tag_26:\n      tag_28\n      jump\t// in\n    tag_25:\n      stop\n        /* \"LendingPlatformWithCollateral.sol\":1468:1807  function depositCollateral() public payable {... */\n    tag_5:\n      tag_29\n      tag_30\n      jump\t// in\n    tag_29:\n      stop\n        /* \"LendingPlatformWithCollateral.sol\":353:380  uint256 public interestRate */\n    tag_6:\n      callvalue\n      dup1\n      iszero\n      tag_31\n      jumpi\n      revert(0x00, 0x00)\n    tag_31:\n      pop\n      tag_32\n      tag_33\n      jump\t// in\n    tag_32:\n      mload(0x40)\n      tag_34\n      swap2\n      swap1\n      tag_20\n      jump\t// in\n    tag_34:\n      mload(0x40)\n      dup1\n      swap2\n      sub\n      swap1\n      return\n        /* \"LendingPlatformWithCollateral.sol\":389:438  mapping(address => uint256) public lendingBalance */\n    tag_7:\n      callvalue\n      dup1\n      iszero\n      tag_35\n      jumpi\n      revert(0x00, 0x00)\n    tag_35:\n      pop\n      tag_36\n      0x04\n      dup1\n      calldatasize\n      sub\n      dup2\n      add\n      swap1\n      tag_37\n      swap2\n      swap1\n      tag_17\n      jump\t// in\n    tag_37:\n      tag_38\n      jump\t// in\n    tag_36:\n      mload(0x40)\n      tag_39\n      swap2\n      swap1\n      tag_20\n      jump\t// in\n    tag_39:\n      mload(0x40)\n      dup1\n      swap2\n      sub\n      swap1\n      return\n        /* \"LendingPlatformWithCollateral.sol\":4640:5292  function lend(uint256 _amount) public {... */\n    tag_8:\n      callvalue\n      dup1\n      iszero\n      tag_40\n      jumpi\n      revert(0x00, 0x00)\n    tag_40:\n      pop\n      tag_41\n      0x04\n      dup1\n      calldatasize\n      sub\n      dup2\n      add\n      swap1\n      tag_42\n      swap2\n      swap1\n      tag_27\n      jump\t// in\n    tag_42:\n      tag_43\n      jump\t// in\n    tag_41:\n      stop\n        /* \"LendingPlatformWithCollateral.sol\":445:496  mapping(address => uint256) public borrowingBalance */\n    tag_9:\n      callvalue\n      dup1\n      iszero\n      tag_44\n      jumpi\n      revert(0x00, 0x00)\n    tag_44:\n      pop\n      tag_45\n      0x04\n      dup1\n      calldatasize\n      sub\n      dup2\n      add\n      swap1\n      tag_46\n      swap2\n      swap1\n      tag_17\n      jump\t// in\n    tag_46:\n      tag_47\n      jump\t// in\n    tag_45:\n      mload(0x40)\n      tag_48\n      swap2\n      swap1\n      tag_20\n      jump\t// in\n    tag_48:\n      mload(0x40)\n      dup1\n      swap2\n      sub\n      swap1\n      return\n        /* \"LendingPlatformWithCollateral.sol\":3258:4338  function borrow(uint256 _amount) public {... */\n    tag_10:\n      callvalue\n      dup1\n      iszero\n      tag_49\n      jumpi\n      revert(0x00, 0x00)\n    tag_49:\n      pop\n      tag_50\n      0x04\n      dup1\n      calldatasize\n      sub\n      dup2\n      add\n      swap1\n      tag_51\n      swap2\n      swap1\n      tag_27\n      jump\t// in\n    tag_51:\n      tag_52\n      jump\t// in\n    tag_50:\n      stop\n        /* \"LendingPlatformWithCollateral.sol\":503:553  mapping(address => uint256) public borrowStartTime */\n    tag_11:\n      callvalue\n      dup1\n      iszero\n      tag_53\n      jumpi\n      revert(0x00, 0x00)\n    tag_53:\n      pop\n      tag_54\n      0x04\n      dup1\n      calldatasize\n      sub\n      dup2\n      add\n      swap1\n      tag_55\n      swap2\n      swap1\n      tag_17\n      jump\t// in\n    tag_55:\n      tag_56\n      jump\t// in\n    tag_54:\n      mload(0x40)\n      tag_57\n      swap2\n      swap1\n      tag_20\n      jump\t// in\n    tag_57:\n      mload(0x40)\n      dup1\n      swap2\n      sub\n      swap1\n      return\n        /* \"LendingPlatformWithCollateral.sol\":327:346  IERC20 public token */\n    tag_12:\n      callvalue\n      dup1\n      iszero\n      tag_58\n      jumpi\n      revert(0x00, 0x00)\n    tag_58:\n      pop\n      tag_59\n      tag_60\n      jump\t// in\n    tag_59:\n      mload(0x40)\n      tag_61\n      swap2\n      swap1\n      tag_62\n      jump\t// in\n    tag_61:\n      mload(0x40)\n      dup1\n      swap2\n      sub\n      swap1\n      return\n        /* \"LendingPlatformWithCollateral.sol\":731:779  mapping(address => uint256) public ethCollateral */\n    tag_18:\n      mstore(0x20, 0x05)\n      dup1\n      0x00\n      mstore\n      keccak256(0x00, 0x40)\n      0x00\n      swap2\n      pop\n      swap1\n      pop\n      sload\n      dup2\n      jump\t// out\n        /* \"LendingPlatformWithCollateral.sol\":6553:7760  function repay() public {... */\n    tag_23:\n        /* \"LendingPlatformWithCollateral.sol\":6623:6645  uint256 borrowedAmount */\n      0x00\n        /* \"LendingPlatformWithCollateral.sol\":6648:6664  borrowingBalance */\n      0x03\n        /* \"LendingPlatformWithCollateral.sol\":6648:6676  borrowingBalance[msg.sender] */\n      0x00\n        /* \"LendingPlatformWithCollateral.sol\":6665:6675  msg.sender */\n      caller\n        /* \"LendingPlatformWithCollateral.sol\":6648:6676  borrowingBalance[msg.sender] */\n      0xffffffffffffffffffffffffffffffffffffffff\n      and\n      0xffffffffffffffffffffffffffffffffffffffff\n      and\n      dup2\n      mstore\n      0x20\n      add\n      swap1\n      dup2\n      mstore\n      0x20\n      add\n      0x00\n      keccak256\n      sload\n        /* \"LendingPlatformWithCollateral.sol\":6623:6676  uint256 borrowedAmount = borrowingBalance[msg.sender] */\n      swap1\n      pop\n        /* \"LendingPlatformWithCollateral.sol\":6687:6704  uint256 startTime */\n      0x00\n        /* \"LendingPlatformWithCollateral.sol\":6707:6722  borrowStartTime */\n      0x04\n        /* \"LendingPlatformWithCollateral.sol\":6707:6734  borrowStartTime[msg.sender] */\n      0x00\n        /* \"LendingPlatformWithCollateral.sol\":6723:6733  msg.sender */\n      caller\n        /* \"LendingPlatformWithCollateral.sol\":6707:6734  borrowStartTime[msg.sender] */\n      0xffffffffffffffffffffffffffffffffffffffff\n      and\n      0xffffffffffffffffffffffffffffffffffffffff\n      and\n      dup2\n      mstore\n      0x20\n      add\n      swap1\n      dup2\n      mstore\n      0x20\n      add\n      0x00\n      keccak256\n      sload\n        /* \"LendingPlatformWithCollateral.sol\":6687:6734  uint256 startTime = borrowStartTime[msg.sender] */\n      swap1\n      pop\n        /* \"LendingPlatformWithCollateral.sol\":6825:6826  0 */\n      0x00\n        /* \"LendingPlatformWithCollateral.sol\":6808:6822  borrowedAmount */\n      dup3\n        /* \"LendingPlatformWithCollateral.sol\":6808:6826  borrowedAmount > 0 */\n      gt\n        /* \"LendingPlatformWithCollateral.sol\":6800:6862  require(borrowedAmount > 0, \"You do not have a loan to repay\") */\n      tag_64\n      jumpi\n      mload(0x40)\n      0x08c379a000000000000000000000000000000000000000000000000000000000\n      dup2\n      mstore\n      0x04\n      add\n      tag_65\n      swap1\n      tag_66\n      jump\t// in\n    tag_65:\n      mload(0x40)\n      dup1\n      swap2\n      sub\n      swap1\n      revert\n    tag_64:\n        /* \"LendingPlatformWithCollateral.sol\":6962:6978  uint256 duration */\n      0x00\n        /* \"LendingPlatformWithCollateral.sol\":6999:7008  startTime */\n      dup2\n        /* \"LendingPlatformWithCollateral.sol\":6981:6996  block.timestamp */\n      timestamp\n        /* \"LendingPlatformWithCollateral.sol\":6981:7008  block.timestamp - startTime */\n      tag_67\n      swap2\n      swap1\n      tag_68\n      jump\t// in\n    tag_67:\n        /* \"LendingPlatformWithCollateral.sol\":6962:7008  uint256 duration = block.timestamp - startTime */\n      swap1\n      pop\n        /* \"LendingPlatformWithCollateral.sol\":7087:7103  uint256 interest */\n      0x00\n        /* \"LendingPlatformWithCollateral.sol\":7106:7149  calculateInterest(borrowedAmount, duration) */\n      tag_69\n        /* \"LendingPlatformWithCollateral.sol\":7124:7138  borrowedAmount */\n      dup5\n        /* \"LendingPlatformWithCollateral.sol\":7140:7148  duration */\n      dup4\n        /* \"LendingPlatformWithCollateral.sol\":7106:7123  calculateInterest */\n      tag_70\n        /* \"LendingPlatformWithCollateral.sol\":7106:7149  calculateInterest(borrowedAmount, duration) */\n      jump\t// in\n    tag_69:\n        /* \"LendingPlatformWithCollateral.sol\":7087:7149  uint256 interest = calculateInterest(borrowedAmount, duration) */\n      swap1\n      pop\n        /* \"LendingPlatformWithCollateral.sol\":7210:7232  uint256 totalRepayment */\n      0x00\n        /* \"LendingPlatformWithCollateral.sol\":7252:7260  interest */\n      dup2\n        /* \"LendingPlatformWithCollateral.sol\":7235:7249  borrowedAmount */\n      dup6\n        /* \"LendingPlatformWithCollateral.sol\":7235:7260  borrowedAmount + interest */\n      tag_71\n      swap2\n      swap1\n      tag_72\n      jump\t// in\n    tag_71:\n        /* \"LendingPlatformWithCollateral.sol\":7210:7260  uint256 totalRepayment = borrowedAmount + interest */\n      swap1\n      pop\n        /* \"LendingPlatformWithCollateral.sol\":7428:7429  0 */\n      0x00\n        /* \"LendingPlatformWithCollateral.sol\":7397:7413  borrowingBalance */\n      0x03\n        /* \"LendingPlatformWithCollateral.sol\":7397:7425  borrowingBalance[msg.sender] */\n      0x00\n        /* \"LendingPlatformWithCollateral.sol\":7414:7424  msg.sender */\n      caller\n        /* \"LendingPlatformWithCollateral.sol\":7397:7425  borrowingBalance[msg.sender] */\n      0xffffffffffffffffffffffffffffffffffffffff\n      and\n      0xffffffffffffffffffffffffffffffffffffffff\n      and\n      dup2\n      mstore\n      0x20\n      add\n      swap1\n      dup2\n      mstore\n      0x20\n      add\n      0x00\n      keccak256\n        /* \"LendingPlatformWithCollateral.sol\":7397:7429  borrowingBalance[msg.sender] = 0 */\n      dup2\n      swap1\n      sstore\n      pop\n        /* \"LendingPlatformWithCollateral.sol\":7470:7471  0 */\n      0x00\n        /* \"LendingPlatformWithCollateral.sol\":7440:7455  borrowStartTime */\n      0x04\n        /* \"LendingPlatformWithCollateral.sol\":7440:7467  borrowStartTime[msg.sender] */\n      0x00\n        /* \"LendingPlatformWithCollateral.sol\":7456:7466  msg.sender */\n      caller\n        /* \"LendingPlatformWithCollateral.sol\":7440:7467  borrowStartTime[msg.sender] */\n      0xffffffffffffffffffffffffffffffffffffffff\n      and\n      0xffffffffffffffffffffffffffffffffffffffff\n      and\n      dup2\n      mstore\n      0x20\n      add\n      swap1\n      dup2\n      mstore\n      0x20\n      add\n      0x00\n      keccak256\n        /* \"LendingPlatformWithCollateral.sol\":7440:7471  borrowStartTime[msg.sender] = 0 */\n      dup2\n      swap1\n      sstore\n      pop\n        /* \"LendingPlatformWithCollateral.sol\":7691:7696  token */\n      0x00\n      0x00\n      swap1\n      sload\n      swap1\n      0x0100\n      exp\n      swap1\n      div\n      0xffffffffffffffffffffffffffffffffffffffff\n      and\n        /* \"LendingPlatformWithCollateral.sol\":7691:7709  token.transferFrom */\n      0xffffffffffffffffffffffffffffffffffffffff\n      and\n      0x23b872dd\n        /* \"LendingPlatformWithCollateral.sol\":7710:7720  msg.sender */\n      caller\n        /* \"LendingPlatformWithCollateral.sol\":7730:7734  this */\n      address\n        /* \"LendingPlatformWithCollateral.sol\":7737:7751  totalRepayment */\n      dup5\n        /* \"LendingPlatformWithCollateral.sol\":7691:7752  token.transferFrom(msg.sender, address(this), totalRepayment) */\n      mload(0x40)\n      dup5\n      0xffffffff\n      and\n      0xe0\n      shl\n      dup2\n      mstore\n      0x04\n      add\n      tag_73\n      swap4\n      swap3\n      swap2\n      swap1\n      tag_74\n      jump\t// in\n    tag_73:\n      0x20\n      mload(0x40)\n      dup1\n      dup4\n      sub\n      dup2\n      0x00\n      dup8\n      gas\n      call\n      iszero\n      dup1\n      iszero\n      tag_76\n      jumpi\n      returndatacopy(0x00, 0x00, returndatasize)\n      revert(0x00, returndatasize)\n    tag_76:\n      pop\n      pop\n      pop\n      pop\n      mload(0x40)\n      returndatasize\n      not(0x1f)\n      0x1f\n      dup3\n      add\n      and\n      dup3\n      add\n      dup1\n      0x40\n      mstore\n      pop\n      dup2\n      add\n      swap1\n      tag_77\n      swap2\n      swap1\n      tag_78\n      jump\t// in\n    tag_77:\n      pop\n        /* \"LendingPlatformWithCollateral.sol\":6577:7760  {... */\n      pop\n      pop\n      pop\n      pop\n      pop\n        /* \"LendingPlatformWithCollateral.sol\":6553:7760  function repay() public {... */\n      jump\t// out\n        /* \"LendingPlatformWithCollateral.sol\":2139:3011  function withdrawCollateral(uint256 _amount) public {... */\n    tag_28:\n        /* \"LendingPlatformWithCollateral.sol\":2341:2348  _amount */\n      dup1\n        /* \"LendingPlatformWithCollateral.sol\":2312:2325  ethCollateral */\n      0x05\n        /* \"LendingPlatformWithCollateral.sol\":2312:2337  ethCollateral[msg.sender] */\n      0x00\n        /* \"LendingPlatformWithCollateral.sol\":2326:2336  msg.sender */\n      caller\n        /* \"LendingPlatformWithCollateral.sol\":2312:2337  ethCollateral[msg.sender] */\n      0xffffffffffffffffffffffffffffffffffffffff\n      and\n      0xffffffffffffffffffffffffffffffffffffffff\n      and\n      dup2\n      mstore\n      0x20\n      add\n      swap1\n      dup2\n      mstore\n      0x20\n      add\n      0x00\n      keccak256\n      sload\n        /* \"LendingPlatformWithCollateral.sol\":2312:2348  ethCollateral[msg.sender] >= _amount */\n      lt\n      iszero\n        /* \"LendingPlatformWithCollateral.sol\":2304:2397  require(ethCollateral[msg.sender] >= _amount, \"Withdrawal amount exceeds collateral balance\") */\n      tag_80\n      jumpi\n      mload(0x40)\n      0x08c379a000000000000000000000000000000000000000000000000000000000\n      dup2\n      mstore\n      0x04\n      add\n      tag_81\n      swap1\n      tag_82\n      jump\t// in\n    tag_81:\n      mload(0x40)\n      dup1\n      swap2\n      sub\n      swap1\n      revert\n    tag_80:\n        /* \"LendingPlatformWithCollateral.sol\":2554:2555  0 */\n      0x00\n        /* \"LendingPlatformWithCollateral.sol\":2522:2538  borrowingBalance */\n      0x03\n        /* \"LendingPlatformWithCollateral.sol\":2522:2550  borrowingBalance[msg.sender] */\n      0x00\n        /* \"LendingPlatformWithCollateral.sol\":2539:2549  msg.sender */\n      caller\n        /* \"LendingPlatformWithCollateral.sol\":2522:2550  borrowingBalance[msg.sender] */\n      0xffffffffffffffffffffffffffffffffffffffff\n      and\n      0xffffffffffffffffffffffffffffffffffffffff\n      and\n      dup2\n      mstore\n      0x20\n      add\n      swap1\n      dup2\n      mstore\n      0x20\n      add\n      0x00\n      keccak256\n      sload\n        /* \"LendingPlatformWithCollateral.sol\":2522:2555  borrowingBalance[msg.sender] == 0 */\n      eq\n        /* \"LendingPlatformWithCollateral.sol\":2514:2611  require(borrowingBalance[msg.sender] == 0, \"Cannot withdraw collateral with an outstanding loan\") */\n      tag_83\n      jumpi\n      mload(0x40)\n      0x08c379a000000000000000000000000000000000000000000000000000000000\n      dup2\n      mstore\n      0x04\n      add\n      tag_84\n      swap1\n      tag_85\n      jump\t// in\n    tag_84:\n      mload(0x40)\n      dup1\n      swap2\n      sub\n      swap1\n      revert\n    tag_83:\n        /* \"LendingPlatformWithCollateral.sol\":2786:2793  _amount */\n      dup1\n        /* \"LendingPlatformWithCollateral.sol\":2757:2770  ethCollateral */\n      0x05\n        /* \"LendingPlatformWithCollateral.sol\":2757:2782  ethCollateral[msg.sender] */\n      0x00\n        /* \"LendingPlatformWithCollateral.sol\":2771:2781  msg.sender */\n      caller\n        /* \"LendingPlatformWithCollateral.sol\":2757:2782  ethCollateral[msg.sender] */\n      0xffffffffffffffffffffffffffffffffffffffff\n      and\n      0xffffffffffffffffffffffffffffffffffffffff\n      and\n      dup2\n      mstore\n      0x20\n      add\n      swap1\n      dup2\n      mstore\n      0x20\n      add\n      0x00\n      keccak256\n      0x00\n        /* \"LendingPlatformWithCollateral.sol\":2757:2793  ethCollateral[msg.sender] -= _amount */\n      dup3\n      dup3\n      sload\n      tag_86\n      swap2\n      swap1\n      tag_68\n      jump\t// in\n    tag_86:\n      swap3\n      pop\n      pop\n      dup2\n      swap1\n      sstore\n      pop\n        /* \"LendingPlatformWithCollateral.sol\":2899:2911  bool success */\n      0x00\n        /* \"LendingPlatformWithCollateral.sol\":2917:2927  msg.sender */\n      caller\n        /* \"LendingPlatformWithCollateral.sol\":2917:2932  msg.sender.call */\n      0xffffffffffffffffffffffffffffffffffffffff\n      and\n        /* \"LendingPlatformWithCollateral.sol\":2940:2947  _amount */\n      dup3\n        /* \"LendingPlatformWithCollateral.sol\":2917:2952  msg.sender.call{value: _amount}(\"\") */\n      mload(0x40)\n      tag_87\n      swap1\n      tag_88\n      jump\t// in\n    tag_87:\n      0x00\n      mload(0x40)\n      dup1\n      dup4\n      sub\n      dup2\n      dup6\n      dup8\n      gas\n      call\n      swap3\n      pop\n      pop\n      pop\n      returndatasize\n      dup1\n      0x00\n      dup2\n      eq\n      tag_91\n      jumpi\n      mload(0x40)\n      swap2\n      pop\n      and(add(returndatasize, 0x3f), not(0x1f))\n      dup3\n      add\n      0x40\n      mstore\n      returndatasize\n      dup3\n      mstore\n      returndatasize\n      0x00\n      0x20\n      dup5\n      add\n      returndatacopy\n      jump(tag_90)\n    tag_91:\n      0x60\n      swap2\n      pop\n    tag_90:\n      pop\n        /* \"LendingPlatformWithCollateral.sol\":2898:2952  (bool success, ) = msg.sender.call{value: _amount}(\"\") */\n      pop\n      swap1\n      pop\n        /* \"LendingPlatformWithCollateral.sol\":2971:2978  success */\n      dup1\n        /* \"LendingPlatformWithCollateral.sol\":2963:3003  require(success, \"Failed to send Ether\") */\n      tag_92\n      jumpi\n      mload(0x40)\n      0x08c379a000000000000000000000000000000000000000000000000000000000\n      dup2\n      mstore\n      0x04\n      add\n      tag_93\n      swap1\n      tag_94\n      jump\t// in\n    tag_93:\n      mload(0x40)\n      dup1\n      swap2\n      sub\n      swap1\n      revert\n    tag_92:\n        /* \"LendingPlatformWithCollateral.sol\":2191:3011  {... */\n      pop\n        /* \"LendingPlatformWithCollateral.sol\":2139:3011  function withdrawCollateral(uint256 _amount) public {... */\n      pop\n      jump\t// out\n        /* \"LendingPlatformWithCollateral.sol\":1468:1807  function depositCollateral() public payable {... */\n    tag_30:\n        /* \"LendingPlatformWithCollateral.sol\":1613:1614  0 */\n      0x00\n        /* \"LendingPlatformWithCollateral.sol\":1601:1610  msg.value */\n      callvalue\n        /* \"LendingPlatformWithCollateral.sol\":1601:1614  msg.value > 0 */\n      gt\n        /* \"LendingPlatformWithCollateral.sol\":1593:1663  require(msg.value > 0, \"Collateral deposit must be greater than zero\") */\n      tag_96\n      jumpi\n      mload(0x40)\n      0x08c379a000000000000000000000000000000000000000000000000000000000\n      dup2\n      mstore\n      0x04\n      add\n      tag_97\n      swap1\n      tag_98\n      jump\t// in\n    tag_97:\n      mload(0x40)\n      dup1\n      swap2\n      sub\n      swap1\n      revert\n    tag_96:\n        /* \"LendingPlatformWithCollateral.sol\":1790:1799  msg.value */\n      callvalue\n        /* \"LendingPlatformWithCollateral.sol\":1761:1774  ethCollateral */\n      0x05\n        /* \"LendingPlatformWithCollateral.sol\":1761:1786  ethCollateral[msg.sender] */\n      0x00\n        /* \"LendingPlatformWithCollateral.sol\":1775:1785  msg.sender */\n      caller\n        /* \"LendingPlatformWithCollateral.sol\":1761:1786  ethCollateral[msg.sender] */\n      0xffffffffffffffffffffffffffffffffffffffff\n      and\n      0xffffffffffffffffffffffffffffffffffffffff\n      and\n      dup2\n      mstore\n      0x20\n      add\n      swap1\n      dup2\n      mstore\n      0x20\n      add\n      0x00\n      keccak256\n      0x00\n        /* \"LendingPlatformWithCollateral.sol\":1761:1799  ethCollateral[msg.sender] += msg.value */\n      dup3\n      dup3\n      sload\n      tag_99\n      swap2\n      swap1\n      tag_72\n      jump\t// in\n    tag_99:\n      swap3\n      pop\n      pop\n      dup2\n      swap1\n      sstore\n      pop\n        /* \"LendingPlatformWithCollateral.sol\":1468:1807  function depositCollateral() public payable {... */\n      jump\t// out\n        /* \"LendingPlatformWithCollateral.sol\":353:380  uint256 public interestRate */\n    tag_33:\n      sload(0x01)\n      dup2\n      jump\t// out\n        /* \"LendingPlatformWithCollateral.sol\":389:438  mapping(address => uint256) public lendingBalance */\n    tag_38:\n      mstore(0x20, 0x02)\n      dup1\n      0x00\n      mstore\n      keccak256(0x00, 0x40)\n      0x00\n      swap2\n      pop\n      swap1\n      pop\n      sload\n      dup2\n      jump\t// out\n        /* \"LendingPlatformWithCollateral.sol\":4640:5292  function lend(uint256 _amount) public {... */\n    tag_43:\n        /* \"LendingPlatformWithCollateral.sol\":4774:4775  0 */\n      0x00\n        /* \"LendingPlatformWithCollateral.sol\":4764:4771  _amount */\n      dup2\n        /* \"LendingPlatformWithCollateral.sol\":4764:4775  _amount > 0 */\n      gt\n        /* \"LendingPlatformWithCollateral.sol\":4756:4817  require(_amount > 0, \"Lend amount must be greater than zero\") */\n      tag_101\n      jumpi\n      mload(0x40)\n      0x08c379a000000000000000000000000000000000000000000000000000000000\n      dup2\n      mstore\n      0x04\n      add\n      tag_102\n      swap1\n      tag_103\n      jump\t// in\n    tag_102:\n      mload(0x40)\n      dup1\n      swap2\n      sub\n      swap1\n      revert\n    tag_101:\n        /* \"LendingPlatformWithCollateral.sol\":4935:4942  _amount */\n      dup1\n        /* \"LendingPlatformWithCollateral.sol\":4905:4919  lendingBalance */\n      0x02\n        /* \"LendingPlatformWithCollateral.sol\":4905:4931  lendingBalance[msg.sender] */\n      0x00\n        /* \"LendingPlatformWithCollateral.sol\":4920:4930  msg.sender */\n      caller\n        /* \"LendingPlatformWithCollateral.sol\":4905:4931  lendingBalance[msg.sender] */\n      0xffffffffffffffffffffffffffffffffffffffff\n      and\n      0xffffffffffffffffffffffffffffffffffffffff\n      and\n      dup2\n      mstore\n      0x20\n      add\n      swap1\n      dup2\n      mstore\n      0x20\n      add\n      0x00\n      keccak256\n      0x00\n        /* \"LendingPlatformWithCollateral.sol\":4905:4942  lendingBalance[msg.sender] += _amount */\n      dup3\n      dup3\n      sload\n      tag_104\n      swap2\n      swap1\n      tag_72\n      jump\t// in\n    tag_104:\n      swap3\n      pop\n      pop\n      dup2\n      swap1\n      sstore\n      pop\n        /* \"LendingPlatformWithCollateral.sol\":5230:5235  token */\n      0x00\n      0x00\n      swap1\n      sload\n      swap1\n      0x0100\n      exp\n      swap1\n      div\n      0xffffffffffffffffffffffffffffffffffffffff\n      and\n        /* \"LendingPlatformWithCollateral.sol\":5230:5248  token.transferFrom */\n      0xffffffffffffffffffffffffffffffffffffffff\n      and\n      0x23b872dd\n        /* \"LendingPlatformWithCollateral.sol\":5249:5259  msg.sender */\n      caller\n        /* \"LendingPlatformWithCollateral.sol\":5269:5273  this */\n      address\n        /* \"LendingPlatformWithCollateral.sol\":5276:5283  _amount */\n      dup5\n        /* \"LendingPlatformWithCollateral.sol\":5230:5284  token.transferFrom(msg.sender, address(this), _amount) */\n      mload(0x40)\n      dup5\n      0xffffffff\n      and\n      0xe0\n      shl\n      dup2\n      mstore\n      0x04\n      add\n      tag_105\n      swap4\n      swap3\n      swap2\n      swap1\n      tag_74\n      jump\t// in\n    tag_105:\n      0x20\n      mload(0x40)\n      dup1\n      dup4\n      sub\n      dup2\n      0x00\n      dup8\n      gas\n      call\n      iszero\n      dup1\n      iszero\n      tag_107\n      jumpi\n      returndatacopy(0x00, 0x00, returndatasize)\n      revert(0x00, returndatasize)\n    tag_107:\n      pop\n      pop\n      pop\n      pop\n      mload(0x40)\n      returndatasize\n      not(0x1f)\n      0x1f\n      dup3\n      add\n      and\n      dup3\n      add\n      dup1\n      0x40\n      mstore\n      pop\n      dup2\n      add\n      swap1\n      tag_108\n      swap2\n      swap1\n      tag_78\n      jump\t// in\n    tag_108:\n      pop\n        /* \"LendingPlatformWithCollateral.sol\":4640:5292  function lend(uint256 _amount) public {... */\n      pop\n      jump\t// out\n        /* \"LendingPlatformWithCollateral.sol\":445:496  mapping(address => uint256) public borrowingBalance */\n    tag_47:\n      mstore(0x20, 0x03)\n      dup1\n      0x00\n      mstore\n      keccak256(0x00, 0x40)\n      0x00\n      swap2\n      pop\n      swap1\n      pop\n      sload\n      dup2\n      jump\t// out\n        /* \"LendingPlatformWithCollateral.sol\":3258:4338  function borrow(uint256 _amount) public {... */\n    tag_52:\n        /* \"LendingPlatformWithCollateral.sol\":3354:3355  0 */\n      0x00\n        /* \"LendingPlatformWithCollateral.sol\":3344:3351  _amount */\n      dup2\n        /* \"LendingPlatformWithCollateral.sol\":3344:3355  _amount > 0 */\n      gt\n        /* \"LendingPlatformWithCollateral.sol\":3336:3399  require(_amount > 0, \"Borrow amount must be greater than zero\") */\n      tag_110\n      jumpi\n      mload(0x40)\n      0x08c379a000000000000000000000000000000000000000000000000000000000\n      dup2\n      mstore\n      0x04\n      add\n      tag_111\n      swap1\n      tag_112\n      jump\t// in\n    tag_111:\n      mload(0x40)\n      dup1\n      swap2\n      sub\n      swap1\n      revert\n    tag_110:\n        /* \"LendingPlatformWithCollateral.sol\":3450:3451  0 */\n      0x00\n        /* \"LendingPlatformWithCollateral.sol\":3418:3434  borrowingBalance */\n      0x03\n        /* \"LendingPlatformWithCollateral.sol\":3418:3446  borrowingBalance[msg.sender] */\n      0x00\n        /* \"LendingPlatformWithCollateral.sol\":3435:3445  msg.sender */\n      caller\n        /* \"LendingPlatformWithCollateral.sol\":3418:3446  borrowingBalance[msg.sender] */\n      0xffffffffffffffffffffffffffffffffffffffff\n      and\n      0xffffffffffffffffffffffffffffffffffffffff\n      and\n      dup2\n      mstore\n      0x20\n      add\n      swap1\n      dup2\n      mstore\n      0x20\n      add\n      0x00\n      keccak256\n      sload\n        /* \"LendingPlatformWithCollateral.sol\":3418:3451  borrowingBalance[msg.sender] == 0 */\n      eq\n        /* \"LendingPlatformWithCollateral.sol\":3410:3492  require(borrowingBalance[msg.sender] == 0, \"You already have an outstanding loan\") */\n      tag_113\n      jumpi\n      mload(0x40)\n      0x08c379a000000000000000000000000000000000000000000000000000000000\n      dup2\n      mstore\n      0x04\n      add\n      tag_114\n      swap1\n      tag_115\n      jump\t// in\n    tag_114:\n      mload(0x40)\n      dup1\n      swap2\n      sub\n      swap1\n      revert\n    tag_113:\n        /* \"LendingPlatformWithCollateral.sol\":3545:3552  _amount */\n      dup1\n        /* \"LendingPlatformWithCollateral.sol\":3511:3516  token */\n      0x00\n      0x00\n      swap1\n      sload\n      swap1\n      0x0100\n      exp\n      swap1\n      div\n      0xffffffffffffffffffffffffffffffffffffffff\n      and\n        /* \"LendingPlatformWithCollateral.sol\":3511:3526  token.balanceOf */\n      0xffffffffffffffffffffffffffffffffffffffff\n      and\n      0x70a08231\n        /* \"LendingPlatformWithCollateral.sol\":3535:3539  this */\n      address\n        /* \"LendingPlatformWithCollateral.sol\":3511:3541  token.balanceOf(address(this)) */\n      mload(0x40)\n      dup3\n      0xffffffff\n      and\n      0xe0\n      shl\n      dup2\n      mstore\n      0x04\n      add\n      tag_116\n      swap2\n      swap1\n      tag_117\n      jump\t// in\n    tag_116:\n      0x20\n      mload(0x40)\n      dup1\n      dup4\n      sub\n      dup2\n      dup7\n      gas\n      staticcall\n      iszero\n      dup1\n      iszero\n      tag_119\n      jumpi\n      returndatacopy(0x00, 0x00, returndatasize)\n      revert(0x00, returndatasize)\n    tag_119:\n      pop\n      pop\n      pop\n      pop\n      mload(0x40)\n      returndatasize\n      not(0x1f)\n      0x1f\n      dup3\n      add\n      and\n      dup3\n      add\n      dup1\n      0x40\n      mstore\n      pop\n      dup2\n      add\n      swap1\n      tag_120\n      swap2\n      swap1\n      tag_121\n      jump\t// in\n    tag_120:\n        /* \"LendingPlatformWithCollateral.sol\":3511:3552  token.balanceOf(address(this)) >= _amount */\n      lt\n      iszero\n        /* \"LendingPlatformWithCollateral.sol\":3503:3590  require(token.balanceOf(address(this)) >= _amount, \"Not enough tokens in the platform\") */\n      tag_122\n      jumpi\n      mload(0x40)\n      0x08c379a000000000000000000000000000000000000000000000000000000000\n      dup2\n      mstore\n      0x04\n      add\n      tag_123\n      swap1\n      tag_124\n      jump\t// in\n    tag_123:\n      mload(0x40)\n      dup1\n      swap2\n      sub\n      swap1\n      revert\n    tag_122:\n        /* \"LendingPlatformWithCollateral.sol\":3947:3948  0 */\n      0x00\n        /* \"LendingPlatformWithCollateral.sol\":3919:3932  ethCollateral */\n      0x05\n        /* \"LendingPlatformWithCollateral.sol\":3919:3944  ethCollateral[msg.sender] */\n      0x00\n        /* \"LendingPlatformWithCollateral.sol\":3933:3943  msg.sender */\n      caller\n        /* \"LendingPlatformWithCollateral.sol\":3919:3944  ethCollateral[msg.sender] */\n      0xffffffffffffffffffffffffffffffffffffffff\n      and\n      0xffffffffffffffffffffffffffffffffffffffff\n      and\n      dup2\n      mstore\n      0x20\n      add\n      swap1\n      dup2\n      mstore\n      0x20\n      add\n      0x00\n      keccak256\n      sload\n        /* \"LendingPlatformWithCollateral.sol\":3919:3948  ethCollateral[msg.sender] > 0 */\n      gt\n        /* \"LendingPlatformWithCollateral.sol\":3911:3976  require(ethCollateral[msg.sender] > 0, \"No collateral deposited\") */\n      tag_125\n      jumpi\n      mload(0x40)\n      0x08c379a000000000000000000000000000000000000000000000000000000000\n      dup2\n      mstore\n      0x04\n      add\n      tag_126\n      swap1\n      tag_127\n      jump\t// in\n    tag_126:\n      mload(0x40)\n      dup1\n      swap2\n      sub\n      swap1\n      revert\n    tag_125:\n        /* \"LendingPlatformWithCollateral.sol\":4123:4130  _amount */\n      dup1\n        /* \"LendingPlatformWithCollateral.sol\":4092:4108  borrowingBalance */\n      0x03\n        /* \"LendingPlatformWithCollateral.sol\":4092:4120  borrowingBalance[msg.sender] */\n      0x00\n        /* \"LendingPlatformWithCollateral.sol\":4109:4119  msg.sender */\n      caller\n        /* \"LendingPlatformWithCollateral.sol\":4092:4120  borrowingBalance[msg.sender] */\n      0xffffffffffffffffffffffffffffffffffffffff\n      and\n      0xffffffffffffffffffffffffffffffffffffffff\n      and\n      dup2\n      mstore\n      0x20\n      add\n      swap1\n      dup2\n      mstore\n      0x20\n      add\n      0x00\n      keccak256\n        /* \"LendingPlatformWithCollateral.sol\":4092:4130  borrowingBalance[msg.sender] = _amount */\n      dup2\n      swap1\n      sstore\n      pop\n        /* \"LendingPlatformWithCollateral.sol\":4171:4186  block.timestamp */\n      timestamp\n        /* \"LendingPlatformWithCollateral.sol\":4141:4156  borrowStartTime */\n      0x04\n        /* \"LendingPlatformWithCollateral.sol\":4141:4168  borrowStartTime[msg.sender] */\n      0x00\n        /* \"LendingPlatformWithCollateral.sol\":4157:4167  msg.sender */\n      caller\n        /* \"LendingPlatformWithCollateral.sol\":4141:4168  borrowStartTime[msg.sender] */\n      0xffffffffffffffffffffffffffffffffffffffff\n      and\n      0xffffffffffffffffffffffffffffffffffffffff\n      and\n      dup2\n      mstore\n      0x20\n      add\n      swap1\n      dup2\n      mstore\n      0x20\n      add\n      0x00\n      keccak256\n        /* \"LendingPlatformWithCollateral.sol\":4141:4186  borrowStartTime[msg.sender] = block.timestamp */\n      dup2\n      swap1\n      sstore\n      pop\n        /* \"LendingPlatformWithCollateral.sol\":4295:4300  token */\n      0x00\n      0x00\n      swap1\n      sload\n      swap1\n      0x0100\n      exp\n      swap1\n      div\n      0xffffffffffffffffffffffffffffffffffffffff\n      and\n        /* \"LendingPlatformWithCollateral.sol\":4295:4309  token.transfer */\n      0xffffffffffffffffffffffffffffffffffffffff\n      and\n      0xa9059cbb\n        /* \"LendingPlatformWithCollateral.sol\":4310:4320  msg.sender */\n      caller\n        /* \"LendingPlatformWithCollateral.sol\":4322:4329  _amount */\n      dup4\n        /* \"LendingPlatformWithCollateral.sol\":4295:4330  token.transfer(msg.sender, _amount) */\n      mload(0x40)\n      dup4\n      0xffffffff\n      and\n      0xe0\n      shl\n      dup2\n      mstore\n      0x04\n      add\n      tag_128\n      swap3\n      swap2\n      swap1\n      tag_129\n      jump\t// in\n    tag_128:\n      0x20\n      mload(0x40)\n      dup1\n      dup4\n      sub\n      dup2\n      0x00\n      dup8\n      gas\n      call\n      iszero\n      dup1\n      iszero\n      tag_131\n      jumpi\n      returndatacopy(0x00, 0x00, returndatasize)\n      revert(0x00, returndatasize)\n    tag_131:\n      pop\n      pop\n      pop\n      pop\n      mload(0x40)\n      returndatasize\n      not(0x1f)\n      0x1f\n      dup3\n      add\n      and\n      dup3\n      add\n      dup1\n      0x40\n      mstore\n      pop\n      dup2\n      add\n      swap1\n      tag_132\n      swap2\n      swap1\n      tag_78\n      jump\t// in\n    tag_132:\n      pop\n        /* \"LendingPlatformWithCollateral.sol\":3258:4338  function borrow(uint256 _amount) public {... */\n      pop\n      jump\t// out\n        /* \"LendingPlatformWithCollateral.sol\":503:553  mapping(address => uint256) public borrowStartTime */\n    tag_56:\n      mstore(0x20, 0x04)\n      dup1\n      0x00\n      mstore\n      keccak256(0x00, 0x40)\n      0x00\n      swap2\n      pop\n      swap1\n      pop\n      sload\n      dup2\n      jump\t// out\n        /* \"LendingPlatformWithCollateral.sol\":327:346  IERC20 public token */\n    tag_60:\n      0x00\n      0x00\n      swap1\n      sload\n      swap1\n      0x0100\n      exp\n      swap1\n      div\n      0xffffffffffffffffffffffffffffffffffffffff\n      and\n      dup2\n      jump\t// out\n        /* \"LendingPlatformWithCollateral.sol\":5783:6280  function calculateInterest(uint256 _amount, uint256 _duration) internal view returns (uint256) {... */\n    tag_70:\n        /* \"LendingPlatformWithCollateral.sol\":5869:5876  uint256 */\n      0x00\n        /* \"LendingPlatformWithCollateral.sol\":6172:6188  uint256 interest */\n      0x00\n        /* \"LendingPlatformWithCollateral.sol\":6231:6245  365 days * 100 */\n      0xbbf81e00\n        /* \"LendingPlatformWithCollateral.sol\":6217:6226  _duration */\n      dup4\n        /* \"LendingPlatformWithCollateral.sol\":6202:6214  interestRate */\n      sload(0x01)\n        /* \"LendingPlatformWithCollateral.sol\":6192:6199  _amount */\n      dup7\n        /* \"LendingPlatformWithCollateral.sol\":6192:6214  _amount * interestRate */\n      tag_134\n      swap2\n      swap1\n      tag_135\n      jump\t// in\n    tag_134:\n        /* \"LendingPlatformWithCollateral.sol\":6192:6226  _amount * interestRate * _duration */\n      tag_136\n      swap2\n      swap1\n      tag_135\n      jump\t// in\n    tag_136:\n        /* \"LendingPlatformWithCollateral.sol\":6191:6246  (_amount * interestRate * _duration) / (365 days * 100) */\n      tag_137\n      swap2\n      swap1\n      tag_138\n      jump\t// in\n    tag_137:\n        /* \"LendingPlatformWithCollateral.sol\":6172:6246  uint256 interest = (_amount * interestRate * _duration) / (365 days * 100) */\n      swap1\n      pop\n        /* \"LendingPlatformWithCollateral.sol\":6264:6272  interest */\n      dup1\n        /* \"LendingPlatformWithCollateral.sol\":6257:6272  return interest */\n      swap2\n      pop\n      pop\n        /* \"LendingPlatformWithCollateral.sol\":5783:6280  function calculateInterest(uint256 _amount, uint256 _duration) internal view returns (uint256) {... */\n      swap3\n      swap2\n      pop\n      pop\n      jump\t// out\n        /* \"#utility.yul\":88:205   */\n    tag_140:\n        /* \"#utility.yul\":197:198   */\n      0x00\n        /* \"#utility.yul\":194:195   */\n      0x00\n        /* \"#utility.yul\":187:199   */\n      revert\n        /* \"#utility.yul\":334:460   */\n    tag_142:\n        /* \"#utility.yul\":371:378   */\n      0x00\n        /* \"#utility.yul\":411:453   */\n      0xffffffffffffffffffffffffffffffffffffffff\n        /* \"#utility.yul\":404:409   */\n      dup3\n        /* \"#utility.yul\":400:454   */\n      and\n        /* \"#utility.yul\":389:454   */\n      swap1\n      pop\n        /* \"#utility.yul\":334:460   */\n      swap2\n      swap1\n      pop\n      jump\t// out\n        /* \"#utility.yul\":466:562   */\n    tag_143:\n        /* \"#utility.yul\":503:510   */\n      0x00\n        /* \"#utility.yul\":532:556   */\n      tag_192\n        /* \"#utility.yul\":550:555   */\n      dup3\n        /* \"#utility.yul\":532:556   */\n      tag_142\n      jump\t// in\n    tag_192:\n        /* \"#utility.yul\":521:556   */\n      swap1\n      pop\n        /* \"#utility.yul\":466:562   */\n      swap2\n      swap1\n      pop\n      jump\t// out\n        /* \"#utility.yul\":568:690   */\n    tag_144:\n        /* \"#utility.yul\":641:665   */\n      tag_194\n        /* \"#utility.yul\":659:664   */\n      dup2\n        /* \"#utility.yul\":641:665   */\n      tag_143\n      jump\t// in\n    tag_194:\n        /* \"#utility.yul\":634:639   */\n      dup2\n        /* \"#utility.yul\":631:666   */\n      eq\n        /* \"#utility.yul\":621:684   */\n      tag_195\n      jumpi\n        /* \"#utility.yul\":680:681   */\n      0x00\n        /* \"#utility.yul\":677:678   */\n      0x00\n        /* \"#utility.yul\":670:682   */\n      revert\n        /* \"#utility.yul\":621:684   */\n    tag_195:\n        /* \"#utility.yul\":568:690   */\n      pop\n      jump\t// out\n        /* \"#utility.yul\":696:835   */\n    tag_145:\n        /* \"#utility.yul\":742:747   */\n      0x00\n        /* \"#utility.yul\":780:786   */\n      dup2\n        /* \"#utility.yul\":767:787   */\n      calldataload\n        /* \"#utility.yul\":758:787   */\n      swap1\n      pop\n        /* \"#utility.yul\":796:829   */\n      tag_197\n        /* \"#utility.yul\":823:828   */\n      dup2\n        /* \"#utility.yul\":796:829   */\n      tag_144\n      jump\t// in\n    tag_197:\n        /* \"#utility.yul\":696:835   */\n      swap3\n      swap2\n      pop\n      pop\n      jump\t// out\n        /* \"#utility.yul\":841:1170   */\n    tag_17:\n        /* \"#utility.yul\":900:906   */\n      0x00\n        /* \"#utility.yul\":949:951   */\n      0x20\n        /* \"#utility.yul\":937:946   */\n      dup3\n        /* \"#utility.yul\":928:935   */\n      dup5\n        /* \"#utility.yul\":924:947   */\n      sub\n        /* \"#utility.yul\":920:952   */\n      slt\n        /* \"#utility.yul\":917:1036   */\n      iszero\n      tag_199\n      jumpi\n        /* \"#utility.yul\":955:1034   */\n      tag_200\n      tag_140\n      jump\t// in\n    tag_200:\n        /* \"#utility.yul\":917:1036   */\n    tag_199:\n        /* \"#utility.yul\":1075:1076   */\n      0x00\n        /* \"#utility.yul\":1100:1153   */\n      tag_201\n        /* \"#utility.yul\":1145:1152   */\n      dup5\n        /* \"#utility.yul\":1136:1142   */\n      dup3\n        /* \"#utility.yul\":1125:1134   */\n      dup6\n        /* \"#utility.yul\":1121:1143   */\n      add\n        /* \"#utility.yul\":1100:1153   */\n      tag_145\n      jump\t// in\n    tag_201:\n        /* \"#utility.yul\":1090:1153   */\n      swap2\n      pop\n        /* \"#utility.yul\":1046:1163   */\n      pop\n        /* \"#utility.yul\":841:1170   */\n      swap3\n      swap2\n      pop\n      pop\n      jump\t// out\n        /* \"#utility.yul\":1176:1253   */\n    tag_146:\n        /* \"#utility.yul\":1213:1220   */\n      0x00\n        /* \"#utility.yul\":1242:1247   */\n      dup2\n        /* \"#utility.yul\":1231:1247   */\n      swap1\n      pop\n        /* \"#utility.yul\":1176:1253   */\n      swap2\n      swap1\n      pop\n      jump\t// out\n        /* \"#utility.yul\":1259:1377   */\n    tag_147:\n        /* \"#utility.yul\":1346:1370   */\n      tag_204\n        /* \"#utility.yul\":1364:1369   */\n      dup2\n        /* \"#utility.yul\":1346:1370   */\n      tag_146\n      jump\t// in\n    tag_204:\n        /* \"#utility.yul\":1341:1344   */\n      dup3\n        /* \"#utility.yul\":1334:1371   */\n      mstore\n        /* \"#utility.yul\":1259:1377   */\n      pop\n      pop\n      jump\t// out\n        /* \"#utility.yul\":1383:1605   */\n    tag_20:\n        /* \"#utility.yul\":1476:1480   */\n      0x00\n        /* \"#utility.yul\":1514:1516   */\n      0x20\n        /* \"#utility.yul\":1503:1512   */\n      dup3\n        /* \"#utility.yul\":1499:1517   */\n      add\n        /* \"#utility.yul\":1491:1517   */\n      swap1\n      pop\n        /* \"#utility.yul\":1527:1598   */\n      tag_206\n        /* \"#utility.yul\":1595:1596   */\n      0x00\n        /* \"#utility.yul\":1584:1593   */\n      dup4\n        /* \"#utility.yul\":1580:1597   */\n      add\n        /* \"#utility.yul\":1571:1577   */\n      dup5\n        /* \"#utility.yul\":1527:1598   */\n      tag_147\n      jump\t// in\n    tag_206:\n        /* \"#utility.yul\":1383:1605   */\n      swap3\n      swap2\n      pop\n      pop\n      jump\t// out\n        /* \"#utility.yul\":1611:1733   */\n    tag_148:\n        /* \"#utility.yul\":1684:1708   */\n      tag_208\n        /* \"#utility.yul\":1702:1707   */\n      dup2\n        /* \"#utility.yul\":1684:1708   */\n      tag_146\n      jump\t// in\n    tag_208:\n        /* \"#utility.yul\":1677:1682   */\n      dup2\n        /* \"#utility.yul\":1674:1709   */\n      eq\n        /* \"#utility.yul\":1664:1727   */\n      tag_209\n      jumpi\n        /* \"#utility.yul\":1723:1724   */\n      0x00\n        /* \"#utility.yul\":1720:1721   */\n      0x00\n        /* \"#utility.yul\":1713:1725   */\n      revert\n        /* \"#utility.yul\":1664:1727   */\n    tag_209:\n        /* \"#utility.yul\":1611:1733   */\n      pop\n      jump\t// out\n        /* \"#utility.yul\":1739:1878   */\n    tag_149:\n        /* \"#utility.yul\":1785:1790   */\n      0x00\n        /* \"#utility.yul\":1823:1829   */\n      dup2\n        /* \"#utility.yul\":1810:1830   */\n      calldataload\n        /* \"#utility.yul\":1801:1830   */\n      swap1\n      pop\n        /* \"#utility.yul\":1839:1872   */\n      tag_211\n        /* \"#utility.yul\":1866:1871   */\n      dup2\n        /* \"#utility.yul\":1839:1872   */\n      tag_148\n      jump\t// in\n    tag_211:\n        /* \"#utility.yul\":1739:1878   */\n      swap3\n      swap2\n      pop\n      pop\n      jump\t// out\n        /* \"#utility.yul\":1884:2213   */\n    tag_27:\n        /* \"#utility.yul\":1943:1949   */\n      0x00\n        /* \"#utility.yul\":1992:1994   */\n      0x20\n        /* \"#utility.yul\":1980:1989   */\n      dup3\n        /* \"#utility.yul\":1971:1978   */\n      dup5\n        /* \"#utility.yul\":1967:1990   */\n      sub\n        /* \"#utility.yul\":1963:1995   */\n      slt\n        /* \"#utility.yul\":1960:2079   */\n      iszero\n      tag_213\n      jumpi\n        /* \"#utility.yul\":1998:2077   */\n      tag_214\n      tag_140\n      jump\t// in\n    tag_214:\n        /* \"#utility.yul\":1960:2079   */\n    tag_213:\n        /* \"#utility.yul\":2118:2119   */\n      0x00\n        /* \"#utility.yul\":2143:2196   */\n      tag_215\n        /* \"#utility.yul\":2188:2195   */\n      dup5\n        /* \"#utility.yul\":2179:2185   */\n      dup3\n        /* \"#utility.yul\":2168:2177   */\n      dup6\n        /* \"#utility.yul\":2164:2186   */\n      add\n        /* \"#utility.yul\":2143:2196   */\n      tag_149\n      jump\t// in\n    tag_215:\n        /* \"#utility.yul\":2133:2196   */\n      swap2\n      pop\n        /* \"#utility.yul\":2089:2206   */\n      pop\n        /* \"#utility.yul\":1884:2213   */\n      swap3\n      swap2\n      pop\n      pop\n      jump\t// out\n        /* \"#utility.yul\":2219:2279   */\n    tag_150:\n        /* \"#utility.yul\":2247:2250   */\n      0x00\n        /* \"#utility.yul\":2268:2273   */\n      dup2\n        /* \"#utility.yul\":2261:2273   */\n      swap1\n      pop\n        /* \"#utility.yul\":2219:2279   */\n      swap2\n      swap1\n      pop\n      jump\t// out\n        /* \"#utility.yul\":2285:2427   */\n    tag_151:\n        /* \"#utility.yul\":2335:2344   */\n      0x00\n        /* \"#utility.yul\":2368:2421   */\n      tag_218\n        /* \"#utility.yul\":2386:2420   */\n      tag_219\n        /* \"#utility.yul\":2395:2419   */\n      tag_220\n        /* \"#utility.yul\":2413:2418   */\n      dup5\n        /* \"#utility.yul\":2395:2419   */\n      tag_142\n      jump\t// in\n    tag_220:\n        /* \"#utility.yul\":2386:2420   */\n      tag_150\n      jump\t// in\n    tag_219:\n        /* \"#utility.yul\":2368:2421   */\n      tag_142\n      jump\t// in\n    tag_218:\n        /* \"#utility.yul\":2355:2421   */\n      swap1\n      pop\n        /* \"#utility.yul\":2285:2427   */\n      swap2\n      swap1\n      pop\n      jump\t// out\n        /* \"#utility.yul\":2433:2559   */\n    tag_152:\n        /* \"#utility.yul\":2483:2492   */\n      0x00\n        /* \"#utility.yul\":2516:2553   */\n      tag_222\n        /* \"#utility.yul\":2547:2552   */\n      dup3\n        /* \"#utility.yul\":2516:2553   */\n      tag_151\n      jump\t// in\n    tag_222:\n        /* \"#utility.yul\":2503:2553   */\n      swap1\n      pop\n        /* \"#utility.yul\":2433:2559   */\n      swap2\n      swap1\n      pop\n      jump\t// out\n        /* \"#utility.yul\":2565:2704   */\n    tag_153:\n        /* \"#utility.yul\":2628:2637   */\n      0x00\n        /* \"#utility.yul\":2661:2698   */\n      tag_224\n        /* \"#utility.yul\":2692:2697   */\n      dup3\n        /* \"#utility.yul\":2661:2698   */\n      tag_152\n      jump\t// in\n    tag_224:\n        /* \"#utility.yul\":2648:2698   */\n      swap1\n      pop\n        /* \"#utility.yul\":2565:2704   */\n      swap2\n      swap1\n      pop\n      jump\t// out\n        /* \"#utility.yul\":2710:2867   */\n    tag_154:\n        /* \"#utility.yul\":2810:2860   */\n      tag_226\n        /* \"#utility.yul\":2854:2859   */\n      dup2\n        /* \"#utility.yul\":2810:2860   */\n      tag_153\n      jump\t// in\n    tag_226:\n        /* \"#utility.yul\":2805:2808   */\n      dup3\n        /* \"#utility.yul\":2798:2861   */\n      mstore\n        /* \"#utility.yul\":2710:2867   */\n      pop\n      pop\n      jump\t// out\n        /* \"#utility.yul\":2873:3121   */\n    tag_62:\n        /* \"#utility.yul\":2979:2983   */\n      0x00\n        /* \"#utility.yul\":3017:3019   */\n      0x20\n        /* \"#utility.yul\":3006:3015   */\n      dup3\n        /* \"#utility.yul\":3002:3020   */\n      add\n        /* \"#utility.yul\":2994:3020   */\n      swap1\n      pop\n        /* \"#utility.yul\":3030:3114   */\n      tag_228\n        /* \"#utility.yul\":3111:3112   */\n      0x00\n        /* \"#utility.yul\":3100:3109   */\n      dup4\n        /* \"#utility.yul\":3096:3113   */\n      add\n        /* \"#utility.yul\":3087:3093   */\n      dup5\n        /* \"#utility.yul\":3030:3114   */\n      tag_154\n      jump\t// in\n    tag_228:\n        /* \"#utility.yul\":2873:3121   */\n      swap3\n      swap2\n      pop\n      pop\n      jump\t// out\n        /* \"#utility.yul\":3127:3296   */\n    tag_155:\n        /* \"#utility.yul\":3211:3222   */\n      0x00\n        /* \"#utility.yul\":3245:3251   */\n      dup3\n        /* \"#utility.yul\":3240:3243   */\n      dup3\n        /* \"#utility.yul\":3233:3252   */\n      mstore\n        /* \"#utility.yul\":3285:3289   */\n      0x20\n        /* \"#utility.yul\":3280:3283   */\n      dup3\n        /* \"#utility.yul\":3276:3290   */\n      add\n        /* \"#utility.yul\":3261:3290   */\n      swap1\n      pop\n        /* \"#utility.yul\":3127:3296   */\n      swap3\n      swap2\n      pop\n      pop\n      jump\t// out\n        /* \"#utility.yul\":3302:3483   */\n    tag_156:\n        /* \"#utility.yul\":3442:3475   */\n      0x596f7520646f206e6f7420686176652061206c6f616e20746f20726570617900\n        /* \"#utility.yul\":3438:3439   */\n      0x00\n        /* \"#utility.yul\":3430:3436   */\n      dup3\n        /* \"#utility.yul\":3426:3440   */\n      add\n        /* \"#utility.yul\":3419:3476   */\n      mstore\n        /* \"#utility.yul\":3302:3483   */\n      pop\n      jump\t// out\n        /* \"#utility.yul\":3489:3855   */\n    tag_157:\n        /* \"#utility.yul\":3631:3634   */\n      0x00\n        /* \"#utility.yul\":3652:3719   */\n      tag_232\n        /* \"#utility.yul\":3716:3718   */\n      0x1f\n        /* \"#utility.yul\":3711:3714   */\n      dup4\n        /* \"#utility.yul\":3652:3719   */\n      tag_155\n      jump\t// in\n    tag_232:\n        /* \"#utility.yul\":3645:3719   */\n      swap2\n      pop\n        /* \"#utility.yul\":3728:3821   */\n      tag_233\n        /* \"#utility.yul\":3817:3820   */\n      dup3\n        /* \"#utility.yul\":3728:3821   */\n      tag_156\n      jump\t// in\n    tag_233:\n        /* \"#utility.yul\":3846:3848   */\n      0x20\n        /* \"#utility.yul\":3841:3844   */\n      dup3\n        /* \"#utility.yul\":3837:3849   */\n      add\n        /* \"#utility.yul\":3830:3849   */\n      swap1\n      pop\n        /* \"#utility.yul\":3489:3855   */\n      swap2\n      swap1\n      pop\n      jump\t// out\n        /* \"#utility.yul\":3861:4280   */\n    tag_66:\n        /* \"#utility.yul\":4027:4031   */\n      0x00\n        /* \"#utility.yul\":4065:4067   */\n      0x20\n        /* \"#utility.yul\":4054:4063   */\n      dup3\n        /* \"#utility.yul\":4050:4068   */\n      add\n        /* \"#utility.yul\":4042:4068   */\n      swap1\n      pop\n        /* \"#utility.yul\":4114:4123   */\n      dup2\n        /* \"#utility.yul\":4108:4112   */\n      dup2\n        /* \"#utility.yul\":4104:4124   */\n      sub\n        /* \"#utility.yul\":4100:4101   */\n      0x00\n        /* \"#utility.yul\":4089:4098   */\n      dup4\n        /* \"#utility.yul\":4085:4102   */\n      add\n        /* \"#utility.yul\":4078:4125   */\n      mstore\n        /* \"#utility.yul\":4142:4273   */\n      tag_235\n        /* \"#utility.yul\":4268:4272   */\n      dup2\n        /* \"#utility.yul\":4142:4273   */\n      tag_157\n      jump\t// in\n    tag_235:\n        /* \"#utility.yul\":4134:4273   */\n      swap1\n      pop\n        /* \"#utility.yul\":3861:4280   */\n      swap2\n      swap1\n      pop\n      jump\t// out\n        /* \"#utility.yul\":4286:4466   */\n    tag_158:\n        /* \"#utility.yul\":4334:4411   */\n      0x4e487b7100000000000000000000000000000000000000000000000000000000\n        /* \"#utility.yul\":4331:4332   */\n      0x00\n        /* \"#utility.yul\":4324:4412   */\n      mstore\n        /* \"#utility.yul\":4431:4435   */\n      0x11\n        /* \"#utility.yul\":4428:4429   */\n      0x04\n        /* \"#utility.yul\":4421:4436   */\n      mstore\n        /* \"#utility.yul\":4455:4459   */\n      0x24\n        /* \"#utility.yul\":4452:4453   */\n      0x00\n        /* \"#utility.yul\":4445:4460   */\n      revert\n        /* \"#utility.yul\":4472:4666   */\n    tag_68:\n        /* \"#utility.yul\":4512:4516   */\n      0x00\n        /* \"#utility.yul\":4532:4552   */\n      tag_238\n        /* \"#utility.yul\":4550:4551   */\n      dup3\n        /* \"#utility.yul\":4532:4552   */\n      tag_146\n      jump\t// in\n    tag_238:\n        /* \"#utility.yul\":4527:4552   */\n      swap2\n      pop\n        /* \"#utility.yul\":4566:4586   */\n      tag_239\n        /* \"#utility.yul\":4584:4585   */\n      dup4\n        /* \"#utility.yul\":4566:4586   */\n      tag_146\n      jump\t// in\n    tag_239:\n        /* \"#utility.yul\":4561:4586   */\n      swap3\n      pop\n        /* \"#utility.yul\":4610:4611   */\n      dup3\n        /* \"#utility.yul\":4607:4608   */\n      dup3\n        /* \"#utility.yul\":4603:4612   */\n      sub\n        /* \"#utility.yul\":4595:4612   */\n      swap1\n      pop\n        /* \"#utility.yul\":4634:4635   */\n      dup2\n        /* \"#utility.yul\":4628:4632   */\n      dup2\n        /* \"#utility.yul\":4625:4636   */\n      gt\n        /* \"#utility.yul\":4622:4659   */\n      iszero\n      tag_240\n      jumpi\n        /* \"#utility.yul\":4639:4657   */\n      tag_241\n      tag_158\n      jump\t// in\n    tag_241:\n        /* \"#utility.yul\":4622:4659   */\n    tag_240:\n        /* \"#utility.yul\":4472:4666   */\n      swap3\n      swap2\n      pop\n      pop\n      jump\t// out\n        /* \"#utility.yul\":4672:4863   */\n    tag_72:\n        /* \"#utility.yul\":4712:4715   */\n      0x00\n        /* \"#utility.yul\":4731:4751   */\n      tag_243\n        /* \"#utility.yul\":4749:4750   */\n      dup3\n        /* \"#utility.yul\":4731:4751   */\n      tag_146\n      jump\t// in\n    tag_243:\n        /* \"#utility.yul\":4726:4751   */\n      swap2\n      pop\n        /* \"#utility.yul\":4765:4785   */\n      tag_244\n        /* \"#utility.yul\":4783:4784   */\n      dup4\n        /* \"#utility.yul\":4765:4785   */\n      tag_146\n      jump\t// in\n    tag_244:\n        /* \"#utility.yul\":4760:4785   */\n      swap3\n      pop\n        /* \"#utility.yul\":4808:4809   */\n      dup3\n        /* \"#utility.yul\":4805:4806   */\n      dup3\n        /* \"#utility.yul\":4801:4810   */\n      add\n        /* \"#utility.yul\":4794:4810   */\n      swap1\n      pop\n        /* \"#utility.yul\":4829:4832   */\n      dup1\n        /* \"#utility.yul\":4826:4827   */\n      dup3\n        /* \"#utility.yul\":4823:4833   */\n      gt\n        /* \"#utility.yul\":4820:4856   */\n      iszero\n      tag_245\n      jumpi\n        /* \"#utility.yul\":4836:4854   */\n      tag_246\n      tag_158\n      jump\t// in\n    tag_246:\n        /* \"#utility.yul\":4820:4856   */\n    tag_245:\n        /* \"#utility.yul\":4672:4863   */\n      swap3\n      swap2\n      pop\n      pop\n      jump\t// out\n        /* \"#utility.yul\":4869:4987   */\n    tag_159:\n        /* \"#utility.yul\":4956:4980   */\n      tag_248\n        /* \"#utility.yul\":4974:4979   */\n      dup2\n        /* \"#utility.yul\":4956:4980   */\n      tag_143\n      jump\t// in\n    tag_248:\n        /* \"#utility.yul\":4951:4954   */\n      dup3\n        /* \"#utility.yul\":4944:4981   */\n      mstore\n        /* \"#utility.yul\":4869:4987   */\n      pop\n      pop\n      jump\t// out\n        /* \"#utility.yul\":4993:5435   */\n    tag_74:\n        /* \"#utility.yul\":5142:5146   */\n      0x00\n        /* \"#utility.yul\":5180:5182   */\n      0x60\n        /* \"#utility.yul\":5169:5178   */\n      dup3\n        /* \"#utility.yul\":5165:5183   */\n      add\n        /* \"#utility.yul\":5157:5183   */\n      swap1\n      pop\n        /* \"#utility.yul\":5193:5264   */\n      tag_250\n        /* \"#utility.yul\":5261:5262   */\n      0x00\n        /* \"#utility.yul\":5250:5259   */\n      dup4\n        /* \"#utility.yul\":5246:5263   */\n      add\n        /* \"#utility.yul\":5237:5243   */\n      dup7\n        /* \"#utility.yul\":5193:5264   */\n      tag_159\n      jump\t// in\n    tag_250:\n        /* \"#utility.yul\":5274:5346   */\n      tag_251\n        /* \"#utility.yul\":5342:5344   */\n      0x20\n        /* \"#utility.yul\":5331:5340   */\n      dup4\n        /* \"#utility.yul\":5327:5345   */\n      add\n        /* \"#utility.yul\":5318:5324   */\n      dup6\n        /* \"#utility.yul\":5274:5346   */\n      tag_159\n      jump\t// in\n    tag_251:\n        /* \"#utility.yul\":5356:5428   */\n      tag_252\n        /* \"#utility.yul\":5424:5426   */\n      0x40\n        /* \"#utility.yul\":5413:5422   */\n      dup4\n        /* \"#utility.yul\":5409:5427   */\n      add\n        /* \"#utility.yul\":5400:5406   */\n      dup5\n        /* \"#utility.yul\":5356:5428   */\n      tag_147\n      jump\t// in\n    tag_252:\n        /* \"#utility.yul\":4993:5435   */\n      swap5\n      swap4\n      pop\n      pop\n      pop\n      pop\n      jump\t// out\n        /* \"#utility.yul\":5441:5531   */\n    tag_160:\n        /* \"#utility.yul\":5475:5482   */\n      0x00\n        /* \"#utility.yul\":5518:5523   */\n      dup2\n        /* \"#utility.yul\":5511:5524   */\n      iszero\n        /* \"#utility.yul\":5504:5525   */\n      iszero\n        /* \"#utility.yul\":5493:5525   */\n      swap1\n      pop\n        /* \"#utility.yul\":5441:5531   */\n      swap2\n      swap1\n      pop\n      jump\t// out\n        /* \"#utility.yul\":5537:5653   */\n    tag_161:\n        /* \"#utility.yul\":5607:5628   */\n      tag_255\n        /* \"#utility.yul\":5622:5627   */\n      dup2\n        /* \"#utility.yul\":5607:5628   */\n      tag_160\n      jump\t// in\n    tag_255:\n        /* \"#utility.yul\":5600:5605   */\n      dup2\n        /* \"#utility.yul\":5597:5629   */\n      eq\n        /* \"#utility.yul\":5587:5647   */\n      tag_256\n      jumpi\n        /* \"#utility.yul\":5643:5644   */\n      0x00\n        /* \"#utility.yul\":5640:5641   */\n      0x00\n        /* \"#utility.yul\":5633:5645   */\n      revert\n        /* \"#utility.yul\":5587:5647   */\n    tag_256:\n        /* \"#utility.yul\":5537:5653   */\n      pop\n      jump\t// out\n        /* \"#utility.yul\":5659:5796   */\n    tag_162:\n        /* \"#utility.yul\":5713:5718   */\n      0x00\n        /* \"#utility.yul\":5744:5750   */\n      dup2\n        /* \"#utility.yul\":5738:5751   */\n      mload\n        /* \"#utility.yul\":5729:5751   */\n      swap1\n      pop\n        /* \"#utility.yul\":5760:5790   */\n      tag_258\n        /* \"#utility.yul\":5784:5789   */\n      dup2\n        /* \"#utility.yul\":5760:5790   */\n      tag_161\n      jump\t// in\n    tag_258:\n        /* \"#utility.yul\":5659:5796   */\n      swap3\n      swap2\n      pop\n      pop\n      jump\t// out\n        /* \"#utility.yul\":5802:6147   */\n    tag_78:\n        /* \"#utility.yul\":5869:5875   */\n      0x00\n        /* \"#utility.yul\":5918:5920   */\n      0x20\n        /* \"#utility.yul\":5906:5915   */\n      dup3\n        /* \"#utility.yul\":5897:5904   */\n      dup5\n        /* \"#utility.yul\":5893:5916   */\n      sub\n        /* \"#utility.yul\":5889:5921   */\n      slt\n        /* \"#utility.yul\":5886:6005   */\n      iszero\n      tag_260\n      jumpi\n        /* \"#utility.yul\":5924:6003   */\n      tag_261\n      tag_140\n      jump\t// in\n    tag_261:\n        /* \"#utility.yul\":5886:6005   */\n    tag_260:\n        /* \"#utility.yul\":6044:6045   */\n      0x00\n        /* \"#utility.yul\":6069:6130   */\n      tag_262\n        /* \"#utility.yul\":6122:6129   */\n      dup5\n        /* \"#utility.yul\":6113:6119   */\n      dup3\n        /* \"#utility.yul\":6102:6111   */\n      dup6\n        /* \"#utility.yul\":6098:6120   */\n      add\n        /* \"#utility.yul\":6069:6130   */\n      tag_162\n      jump\t// in\n    tag_262:\n        /* \"#utility.yul\":6059:6130   */\n      swap2\n      pop\n        /* \"#utility.yul\":6015:6140   */\n      pop\n        /* \"#utility.yul\":5802:6147   */\n      swap3\n      swap2\n      pop\n      pop\n      jump\t// out\n        /* \"#utility.yul\":6153:6384   */\n    tag_163:\n        /* \"#utility.yul\":6293:6327   */\n      0x5769746864726177616c20616d6f756e74206578636565647320636f6c6c6174\n        /* \"#utility.yul\":6289:6290   */\n      0x00\n        /* \"#utility.yul\":6281:6287   */\n      dup3\n        /* \"#utility.yul\":6277:6291   */\n      add\n        /* \"#utility.yul\":6270:6328   */\n      mstore\n        /* \"#utility.yul\":6362:6376   */\n      0x6572616c2062616c616e63650000000000000000000000000000000000000000\n        /* \"#utility.yul\":6357:6359   */\n      0x20\n        /* \"#utility.yul\":6349:6355   */\n      dup3\n        /* \"#utility.yul\":6345:6360   */\n      add\n        /* \"#utility.yul\":6338:6377   */\n      mstore\n        /* \"#utility.yul\":6153:6384   */\n      pop\n      jump\t// out\n        /* \"#utility.yul\":6390:6756   */\n    tag_164:\n        /* \"#utility.yul\":6532:6535   */\n      0x00\n        /* \"#utility.yul\":6553:6620   */\n      tag_265\n        /* \"#utility.yul\":6617:6619   */\n      0x2c\n        /* \"#utility.yul\":6612:6615   */\n      dup4\n        /* \"#utility.yul\":6553:6620   */\n      tag_155\n      jump\t// in\n    tag_265:\n        /* \"#utility.yul\":6546:6620   */\n      swap2\n      pop\n        /* \"#utility.yul\":6629:6722   */\n      tag_266\n        /* \"#utility.yul\":6718:6721   */\n      dup3\n        /* \"#utility.yul\":6629:6722   */\n      tag_163\n      jump\t// in\n    tag_266:\n        /* \"#utility.yul\":6747:6749   */\n      0x40\n        /* \"#utility.yul\":6742:6745   */\n      dup3\n        /* \"#utility.yul\":6738:6750   */\n      add\n        /* \"#utility.yul\":6731:6750   */\n      swap1\n      pop\n        /* \"#utility.yul\":6390:6756   */\n      swap2\n      swap1\n      pop\n      jump\t// out\n        /* \"#utility.yul\":6762:7181   */\n    tag_82:\n        /* \"#utility.yul\":6928:6932   */\n      0x00\n        /* \"#utility.yul\":6966:6968   */\n      0x20\n        /* \"#utility.yul\":6955:6964   */\n      dup3\n        /* \"#utility.yul\":6951:6969   */\n      add\n        /* \"#utility.yul\":6943:6969   */\n      swap1\n      pop\n        /* \"#utility.yul\":7015:7024   */\n      dup2\n        /* \"#utility.yul\":7009:7013   */\n      dup2\n        /* \"#utility.yul\":7005:7025   */\n      sub\n        /* \"#utility.yul\":7001:7002   */\n      0x00\n        /* \"#utility.yul\":6990:6999   */\n      dup4\n        /* \"#utility.yul\":6986:7003   */\n      add\n        /* \"#utility.yul\":6979:7026   */\n      mstore\n        /* \"#utility.yul\":7043:7174   */\n      tag_268\n        /* \"#utility.yul\":7169:7173   */\n      dup2\n        /* \"#utility.yul\":7043:7174   */\n      tag_164\n      jump\t// in\n    tag_268:\n        /* \"#utility.yul\":7035:7174   */\n      swap1\n      pop\n        /* \"#utility.yul\":6762:7181   */\n      swap2\n      swap1\n      pop\n      jump\t// out\n        /* \"#utility.yul\":7187:7425   */\n    tag_165:\n        /* \"#utility.yul\":7327:7361   */\n      0x43616e6e6f7420776974686472617720636f6c6c61746572616c207769746820\n        /* \"#utility.yul\":7323:7324   */\n      0x00\n        /* \"#utility.yul\":7315:7321   */\n      dup3\n        /* \"#utility.yul\":7311:7325   */\n      add\n        /* \"#utility.yul\":7304:7362   */\n      mstore\n        /* \"#utility.yul\":7396:7417   */\n      0x616e206f75747374616e64696e67206c6f616e00000000000000000000000000\n        /* \"#utility.yul\":7391:7393   */\n      0x20\n        /* \"#utility.yul\":7383:7389   */\n      dup3\n        /* \"#utility.yul\":7379:7394   */\n      add\n        /* \"#utility.yul\":7372:7418   */\n      mstore\n        /* \"#utility.yul\":7187:7425   */\n      pop\n      jump\t// out\n        /* \"#utility.yul\":7431:7797   */\n    tag_166:\n        /* \"#utility.yul\":7573:7576   */\n      0x00\n        /* \"#utility.yul\":7594:7661   */\n      tag_271\n        /* \"#utility.yul\":7658:7660   */\n      0x33\n        /* \"#utility.yul\":7653:7656   */\n      dup4\n        /* \"#utility.yul\":7594:7661   */\n      tag_155\n      jump\t// in\n    tag_271:\n        /* \"#utility.yul\":7587:7661   */\n      swap2\n      pop\n        /* \"#utility.yul\":7670:7763   */\n      tag_272\n        /* \"#utility.yul\":7759:7762   */\n      dup3\n        /* \"#utility.yul\":7670:7763   */\n      tag_165\n      jump\t// in\n    tag_272:\n        /* \"#utility.yul\":7788:7790   */\n      0x40\n        /* \"#utility.yul\":7783:7786   */\n      dup3\n        /* \"#utility.yul\":7779:7791   */\n      add\n        /* \"#utility.yul\":7772:7791   */\n      swap1\n      pop\n        /* \"#utility.yul\":7431:7797   */\n      swap2\n      swap1\n      pop\n      jump\t// out\n        /* \"#utility.yul\":7803:8222   */\n    tag_85:\n        /* \"#utility.yul\":7969:7973   */\n      0x00\n        /* \"#utility.yul\":8007:8009   */\n      0x20\n        /* \"#utility.yul\":7996:8005   */\n      dup3\n        /* \"#utility.yul\":7992:8010   */\n      add\n        /* \"#utility.yul\":7984:8010   */\n      swap1\n      pop\n        /* \"#utility.yul\":8056:8065   */\n      dup2\n        /* \"#utility.yul\":8050:8054   */\n      dup2\n        /* \"#utility.yul\":8046:8066   */\n      sub\n        /* \"#utility.yul\":8042:8043   */\n      0x00\n        /* \"#utility.yul\":8031:8040   */\n      dup4\n        /* \"#utility.yul\":8027:8044   */\n      add\n        /* \"#utility.yul\":8020:8067   */\n      mstore\n        /* \"#utility.yul\":8084:8215   */\n      tag_274\n        /* \"#utility.yul\":8210:8214   */\n      dup2\n        /* \"#utility.yul\":8084:8215   */\n      tag_166\n      jump\t// in\n    tag_274:\n        /* \"#utility.yul\":8076:8215   */\n      swap1\n      pop\n        /* \"#utility.yul\":7803:8222   */\n      swap2\n      swap1\n      pop\n      jump\t// out\n        /* \"#utility.yul\":8228:8375   */\n    tag_167:\n        /* \"#utility.yul\":8329:8340   */\n      0x00\n        /* \"#utility.yul\":8366:8369   */\n      dup2\n        /* \"#utility.yul\":8351:8369   */\n      swap1\n      pop\n        /* \"#utility.yul\":8228:8375   */\n      swap3\n      swap2\n      pop\n      pop\n      jump\t// out\n        /* \"#utility.yul\":8381:8495   */\n    tag_168:\n      pop\n      jump\t// out\n        /* \"#utility.yul\":8501:8899   */\n    tag_169:\n        /* \"#utility.yul\":8660:8663   */\n      0x00\n        /* \"#utility.yul\":8681:8764   */\n      tag_278\n        /* \"#utility.yul\":8762:8763   */\n      0x00\n        /* \"#utility.yul\":8757:8760   */\n      dup4\n        /* \"#utility.yul\":8681:8764   */\n      tag_167\n      jump\t// in\n    tag_278:\n        /* \"#utility.yul\":8674:8764   */\n      swap2\n      pop\n        /* \"#utility.yul\":8773:8866   */\n      tag_279\n        /* \"#utility.yul\":8862:8865   */\n      dup3\n        /* \"#utility.yul\":8773:8866   */\n      tag_168\n      jump\t// in\n    tag_279:\n        /* \"#utility.yul\":8891:8892   */\n      0x00\n        /* \"#utility.yul\":8886:8889   */\n      dup3\n        /* \"#utility.yul\":8882:8893   */\n      add\n        /* \"#utility.yul\":8875:8893   */\n      swap1\n      pop\n        /* \"#utility.yul\":8501:8899   */\n      swap2\n      swap1\n      pop\n      jump\t// out\n        /* \"#utility.yul\":8905:9284   */\n    tag_88:\n        /* \"#utility.yul\":9089:9092   */\n      0x00\n        /* \"#utility.yul\":9111:9258   */\n      tag_281\n        /* \"#utility.yul\":9254:9257   */\n      dup3\n        /* \"#utility.yul\":9111:9258   */\n      tag_169\n      jump\t// in\n    tag_281:\n        /* \"#utility.yul\":9104:9258   */\n      swap2\n      pop\n        /* \"#utility.yul\":9275:9278   */\n      dup2\n        /* \"#utility.yul\":9268:9278   */\n      swap1\n      pop\n        /* \"#utility.yul\":8905:9284   */\n      swap2\n      swap1\n      pop\n      jump\t// out\n        /* \"#utility.yul\":9290:9460   */\n    tag_170:\n        /* \"#utility.yul\":9430:9452   */\n      0x4661696c656420746f2073656e64204574686572000000000000000000000000\n        /* \"#utility.yul\":9426:9427   */\n      0x00\n        /* \"#utility.yul\":9418:9424   */\n      dup3\n        /* \"#utility.yul\":9414:9428   */\n      add\n        /* \"#utility.yul\":9407:9453   */\n      mstore\n        /* \"#utility.yul\":9290:9460   */\n      pop\n      jump\t// out\n        /* \"#utility.yul\":9466:9832   */\n    tag_171:\n        /* \"#utility.yul\":9608:9611   */\n      0x00\n        /* \"#utility.yul\":9629:9696   */\n      tag_284\n        /* \"#utility.yul\":9693:9695   */\n      0x14\n        /* \"#utility.yul\":9688:9691   */\n      dup4\n        /* \"#utility.yul\":9629:9696   */\n      tag_155\n      jump\t// in\n    tag_284:\n        /* \"#utility.yul\":9622:9696   */\n      swap2\n      pop\n        /* \"#utility.yul\":9705:9798   */\n      tag_285\n        /* \"#utility.yul\":9794:9797   */\n      dup3\n        /* \"#utility.yul\":9705:9798   */\n      tag_170\n      jump\t// in\n    tag_285:\n        /* \"#utility.yul\":9823:9825   */\n      0x20\n        /* \"#utility.yul\":9818:9821   */\n      dup3\n        /* \"#utility.yul\":9814:9826   */\n      add\n        /* \"#utility.yul\":9807:9826   */\n      swap1\n      pop\n        /* \"#utility.yul\":9466:9832   */\n      swap2\n      swap1\n      pop\n      jump\t// out\n        /* \"#utility.yul\":9838:10257   */\n    tag_94:\n        /* \"#utility.yul\":10004:10008   */\n      0x00\n        /* \"#utility.yul\":10042:10044   */\n      0x20\n        /* \"#utility.yul\":10031:10040   */\n      dup3\n        /* \"#utility.yul\":10027:10045   */\n      add\n        /* \"#utility.yul\":10019:10045   */\n      swap1\n      pop\n        /* \"#utility.yul\":10091:10100   */\n      dup2\n        /* \"#utility.yul\":10085:10089   */\n      dup2\n        /* \"#utility.yul\":10081:10101   */\n      sub\n        /* \"#utility.yul\":10077:10078   */\n      0x00\n        /* \"#utility.yul\":10066:10075   */\n      dup4\n        /* \"#utility.yul\":10062:10079   */\n      add\n        /* \"#utility.yul\":10055:10102   */\n      mstore\n        /* \"#utility.yul\":10119:10250   */\n      tag_287\n        /* \"#utility.yul\":10245:10249   */\n      dup2\n        /* \"#utility.yul\":10119:10250   */\n      tag_171\n      jump\t// in\n    tag_287:\n        /* \"#utility.yul\":10111:10250   */\n      swap1\n      pop\n        /* \"#utility.yul\":9838:10257   */\n      swap2\n      swap1\n      pop\n      jump\t// out\n        /* \"#utility.yul\":10263:10494   */\n    tag_172:\n        /* \"#utility.yul\":10403:10437   */\n      0x436f6c6c61746572616c206465706f736974206d757374206265206772656174\n        /* \"#utility.yul\":10399:10400   */\n      0x00\n        /* \"#utility.yul\":10391:10397   */\n      dup3\n        /* \"#utility.yul\":10387:10401   */\n      add\n        /* \"#utility.yul\":10380:10438   */\n      mstore\n        /* \"#utility.yul\":10472:10486   */\n      0x6572207468616e207a65726f0000000000000000000000000000000000000000\n        /* \"#utility.yul\":10467:10469   */\n      0x20\n        /* \"#utility.yul\":10459:10465   */\n      dup3\n        /* \"#utility.yul\":10455:10470   */\n      add\n        /* \"#utility.yul\":10448:10487   */\n      mstore\n        /* \"#utility.yul\":10263:10494   */\n      pop\n      jump\t// out\n        /* \"#utility.yul\":10500:10866   */\n    tag_173:\n        /* \"#utility.yul\":10642:10645   */\n      0x00\n        /* \"#utility.yul\":10663:10730   */\n      tag_290\n        /* \"#utility.yul\":10727:10729   */\n      0x2c\n        /* \"#utility.yul\":10722:10725   */\n      dup4\n        /* \"#utility.yul\":10663:10730   */\n      tag_155\n      jump\t// in\n    tag_290:\n        /* \"#utility.yul\":10656:10730   */\n      swap2\n      pop\n        /* \"#utility.yul\":10739:10832   */\n      tag_291\n        /* \"#utility.yul\":10828:10831   */\n      dup3\n        /* \"#utility.yul\":10739:10832   */\n      tag_172\n      jump\t// in\n    tag_291:\n        /* \"#utility.yul\":10857:10859   */\n      0x40\n        /* \"#utility.yul\":10852:10855   */\n      dup3\n        /* \"#utility.yul\":10848:10860   */\n      add\n        /* \"#utility.yul\":10841:10860   */\n      swap1\n      pop\n        /* \"#utility.yul\":10500:10866   */\n      swap2\n      swap1\n      pop\n      jump\t// out\n        /* \"#utility.yul\":10872:11291   */\n    tag_98:\n        /* \"#utility.yul\":11038:11042   */\n      0x00\n        /* \"#utility.yul\":11076:11078   */\n      0x20\n        /* \"#utility.yul\":11065:11074   */\n      dup3\n        /* \"#utility.yul\":11061:11079   */\n      add\n        /* \"#utility.yul\":11053:11079   */\n      swap1\n      pop\n        /* \"#utility.yul\":11125:11134   */\n      dup2\n        /* \"#utility.yul\":11119:11123   */\n      dup2\n        /* \"#utility.yul\":11115:11135   */\n      sub\n        /* \"#utility.yul\":11111:11112   */\n      0x00\n        /* \"#utility.yul\":11100:11109   */\n      dup4\n        /* \"#utility.yul\":11096:11113   */\n      add\n        /* \"#utility.yul\":11089:11136   */\n      mstore\n        /* \"#utility.yul\":11153:11284   */\n      tag_293\n        /* \"#utility.yul\":11279:11283   */\n      dup2\n        /* \"#utility.yul\":11153:11284   */\n      tag_173\n      jump\t// in\n    tag_293:\n        /* \"#utility.yul\":11145:11284   */\n      swap1\n      pop\n        /* \"#utility.yul\":10872:11291   */\n      swap2\n      swap1\n      pop\n      jump\t// out\n        /* \"#utility.yul\":11297:11521   */\n    tag_174:\n        /* \"#utility.yul\":11437:11471   */\n      0x4c656e6420616d6f756e74206d7573742062652067726561746572207468616e\n        /* \"#utility.yul\":11433:11434   */\n      0x00\n        /* \"#utility.yul\":11425:11431   */\n      dup3\n        /* \"#utility.yul\":11421:11435   */\n      add\n        /* \"#utility.yul\":11414:11472   */\n      mstore\n        /* \"#utility.yul\":11506:11513   */\n      0x207a65726f000000000000000000000000000000000000000000000000000000\n        /* \"#utility.yul\":11501:11503   */\n      0x20\n        /* \"#utility.yul\":11493:11499   */\n      dup3\n        /* \"#utility.yul\":11489:11504   */\n      add\n        /* \"#utility.yul\":11482:11514   */\n      mstore\n        /* \"#utility.yul\":11297:11521   */\n      pop\n      jump\t// out\n        /* \"#utility.yul\":11527:11893   */\n    tag_175:\n        /* \"#utility.yul\":11669:11672   */\n      0x00\n        /* \"#utility.yul\":11690:11757   */\n      tag_296\n        /* \"#utility.yul\":11754:11756   */\n      0x25\n        /* \"#utility.yul\":11749:11752   */\n      dup4\n        /* \"#utility.yul\":11690:11757   */\n      tag_155\n      jump\t// in\n    tag_296:\n        /* \"#utility.yul\":11683:11757   */\n      swap2\n      pop\n        /* \"#utility.yul\":11766:11859   */\n      tag_297\n        /* \"#utility.yul\":11855:11858   */\n      dup3\n        /* \"#utility.yul\":11766:11859   */\n      tag_174\n      jump\t// in\n    tag_297:\n        /* \"#utility.yul\":11884:11886   */\n      0x40\n        /* \"#utility.yul\":11879:11882   */\n      dup3\n        /* \"#utility.yul\":11875:11887   */\n      add\n        /* \"#utility.yul\":11868:11887   */\n      swap1\n      pop\n        /* \"#utility.yul\":11527:11893   */\n      swap2\n      swap1\n      pop\n      jump\t// out\n        /* \"#utility.yul\":11899:12318   */\n    tag_103:\n        /* \"#utility.yul\":12065:12069   */\n      0x00\n        /* \"#utility.yul\":12103:12105   */\n      0x20\n        /* \"#utility.yul\":12092:12101   */\n      dup3\n        /* \"#utility.yul\":12088:12106   */\n      add\n        /* \"#utility.yul\":12080:12106   */\n      swap1\n      pop\n        /* \"#utility.yul\":12152:12161   */\n      dup2\n        /* \"#utility.yul\":12146:12150   */\n      dup2\n        /* \"#utility.yul\":12142:12162   */\n      sub\n        /* \"#utility.yul\":12138:12139   */\n      0x00\n        /* \"#utility.yul\":12127:12136   */\n      dup4\n        /* \"#utility.yul\":12123:12140   */\n      add\n        /* \"#utility.yul\":12116:12163   */\n      mstore\n        /* \"#utility.yul\":12180:12311   */\n      tag_299\n        /* \"#utility.yul\":12306:12310   */\n      dup2\n        /* \"#utility.yul\":12180:12311   */\n      tag_175\n      jump\t// in\n    tag_299:\n        /* \"#utility.yul\":12172:12311   */\n      swap1\n      pop\n        /* \"#utility.yul\":11899:12318   */\n      swap2\n      swap1\n      pop\n      jump\t// out\n        /* \"#utility.yul\":12324:12550   */\n    tag_176:\n        /* \"#utility.yul\":12464:12498   */\n      0x426f72726f7720616d6f756e74206d7573742062652067726561746572207468\n        /* \"#utility.yul\":12460:12461   */\n      0x00\n        /* \"#utility.yul\":12452:12458   */\n      dup3\n        /* \"#utility.yul\":12448:12462   */\n      add\n        /* \"#utility.yul\":12441:12499   */\n      mstore\n        /* \"#utility.yul\":12533:12542   */\n      0x616e207a65726f00000000000000000000000000000000000000000000000000\n        /* \"#utility.yul\":12528:12530   */\n      0x20\n        /* \"#utility.yul\":12520:12526   */\n      dup3\n        /* \"#utility.yul\":12516:12531   */\n      add\n        /* \"#utility.yul\":12509:12543   */\n      mstore\n        /* \"#utility.yul\":12324:12550   */\n      pop\n      jump\t// out\n        /* \"#utility.yul\":12556:12922   */\n    tag_177:\n        /* \"#utility.yul\":12698:12701   */\n      0x00\n        /* \"#utility.yul\":12719:12786   */\n      tag_302\n        /* \"#utility.yul\":12783:12785   */\n      0x27\n        /* \"#utility.yul\":12778:12781   */\n      dup4\n        /* \"#utility.yul\":12719:12786   */\n      tag_155\n      jump\t// in\n    tag_302:\n        /* \"#utility.yul\":12712:12786   */\n      swap2\n      pop\n        /* \"#utility.yul\":12795:12888   */\n      tag_303\n        /* \"#utility.yul\":12884:12887   */\n      dup3\n        /* \"#utility.yul\":12795:12888   */\n      tag_176\n      jump\t// in\n    tag_303:\n        /* \"#utility.yul\":12913:12915   */\n      0x40\n        /* \"#utility.yul\":12908:12911   */\n      dup3\n        /* \"#utility.yul\":12904:12916   */\n      add\n        /* \"#utility.yul\":12897:12916   */\n      swap1\n      pop\n        /* \"#utility.yul\":12556:12922   */\n      swap2\n      swap1\n      pop\n      jump\t// out\n        /* \"#utility.yul\":12928:13347   */\n    tag_112:\n        /* \"#utility.yul\":13094:13098   */\n      0x00\n        /* \"#utility.yul\":13132:13134   */\n      0x20\n        /* \"#utility.yul\":13121:13130   */\n      dup3\n        /* \"#utility.yul\":13117:13135   */\n      add\n        /* \"#utility.yul\":13109:13135   */\n      swap1\n      pop\n        /* \"#utility.yul\":13181:13190   */\n      dup2\n        /* \"#utility.yul\":13175:13179   */\n      dup2\n        /* \"#utility.yul\":13171:13191   */\n      sub\n        /* \"#utility.yul\":13167:13168   */\n      0x00\n        /* \"#utility.yul\":13156:13165   */\n      dup4\n        /* \"#utility.yul\":13152:13169   */\n      add\n        /* \"#utility.yul\":13145:13192   */\n      mstore\n        /* \"#utility.yul\":13209:13340   */\n      tag_305\n        /* \"#utility.yul\":13335:13339   */\n      dup2\n        /* \"#utility.yul\":13209:13340   */\n      tag_177\n      jump\t// in\n    tag_305:\n        /* \"#utility.yul\":13201:13340   */\n      swap1\n      pop\n        /* \"#utility.yul\":12928:13347   */\n      swap2\n      swap1\n      pop\n      jump\t// out\n        /* \"#utility.yul\":13353:13576   */\n    tag_178:\n        /* \"#utility.yul\":13493:13527   */\n      0x596f7520616c7265616479206861766520616e206f75747374616e64696e6720\n        /* \"#utility.yul\":13489:13490   */\n      0x00\n        /* \"#utility.yul\":13481:13487   */\n      dup3\n        /* \"#utility.yul\":13477:13491   */\n      add\n        /* \"#utility.yul\":13470:13528   */\n      mstore\n        /* \"#utility.yul\":13562:13568   */\n      0x6c6f616e00000000000000000000000000000000000000000000000000000000\n        /* \"#utility.yul\":13557:13559   */\n      0x20\n        /* \"#utility.yul\":13549:13555   */\n      dup3\n        /* \"#utility.yul\":13545:13560   */\n      add\n        /* \"#utility.yul\":13538:13569   */\n      mstore\n        /* \"#utility.yul\":13353:13576   */\n      pop\n      jump\t// out\n        /* \"#utility.yul\":13582:13948   */\n    tag_179:\n        /* \"#utility.yul\":13724:13727   */\n      0x00\n        /* \"#utility.yul\":13745:13812   */\n      tag_308\n        /* \"#utility.yul\":13809:13811   */\n      0x24\n        /* \"#utility.yul\":13804:13807   */\n      dup4\n        /* \"#utility.yul\":13745:13812   */\n      tag_155\n      jump\t// in\n    tag_308:\n        /* \"#utility.yul\":13738:13812   */\n      swap2\n      pop\n        /* \"#utility.yul\":13821:13914   */\n      tag_309\n        /* \"#utility.yul\":13910:13913   */\n      dup3\n        /* \"#utility.yul\":13821:13914   */\n      tag_178\n      jump\t// in\n    tag_309:\n        /* \"#utility.yul\":13939:13941   */\n      0x40\n        /* \"#utility.yul\":13934:13937   */\n      dup3\n        /* \"#utility.yul\":13930:13942   */\n      add\n        /* \"#utility.yul\":13923:13942   */\n      swap1\n      pop\n        /* \"#utility.yul\":13582:13948   */\n      swap2\n      swap1\n      pop\n      jump\t// out\n        /* \"#utility.yul\":13954:14373   */\n    tag_115:\n        /* \"#utility.yul\":14120:14124   */\n      0x00\n        /* \"#utility.yul\":14158:14160   */\n      0x20\n        /* \"#utility.yul\":14147:14156   */\n      dup3\n        /* \"#utility.yul\":14143:14161   */\n      add\n        /* \"#utility.yul\":14135:14161   */\n      swap1\n      pop\n        /* \"#utility.yul\":14207:14216   */\n      dup2\n        /* \"#utility.yul\":14201:14205   */\n      dup2\n        /* \"#utility.yul\":14197:14217   */\n      sub\n        /* \"#utility.yul\":14193:14194   */\n      0x00\n        /* \"#utility.yul\":14182:14191   */\n      dup4\n        /* \"#utility.yul\":14178:14195   */\n      add\n        /* \"#utility.yul\":14171:14218   */\n      mstore\n        /* \"#utility.yul\":14235:14366   */\n      tag_311\n        /* \"#utility.yul\":14361:14365   */\n      dup2\n        /* \"#utility.yul\":14235:14366   */\n      tag_179\n      jump\t// in\n    tag_311:\n        /* \"#utility.yul\":14227:14366   */\n      swap1\n      pop\n        /* \"#utility.yul\":13954:14373   */\n      swap2\n      swap1\n      pop\n      jump\t// out\n        /* \"#utility.yul\":14379:14601   */\n    tag_117:\n        /* \"#utility.yul\":14472:14476   */\n      0x00\n        /* \"#utility.yul\":14510:14512   */\n      0x20\n        /* \"#utility.yul\":14499:14508   */\n      dup3\n        /* \"#utility.yul\":14495:14513   */\n      add\n        /* \"#utility.yul\":14487:14513   */\n      swap1\n      pop\n        /* \"#utility.yul\":14523:14594   */\n      tag_313\n        /* \"#utility.yul\":14591:14592   */\n      0x00\n        /* \"#utility.yul\":14580:14589   */\n      dup4\n        /* \"#utility.yul\":14576:14593   */\n      add\n        /* \"#utility.yul\":14567:14573   */\n      dup5\n        /* \"#utility.yul\":14523:14594   */\n      tag_159\n      jump\t// in\n    tag_313:\n        /* \"#utility.yul\":14379:14601   */\n      swap3\n      swap2\n      pop\n      pop\n      jump\t// out\n        /* \"#utility.yul\":14607:14750   */\n    tag_180:\n        /* \"#utility.yul\":14664:14669   */\n      0x00\n        /* \"#utility.yul\":14695:14701   */\n      dup2\n        /* \"#utility.yul\":14689:14702   */\n      mload\n        /* \"#utility.yul\":14680:14702   */\n      swap1\n      pop\n        /* \"#utility.yul\":14711:14744   */\n      tag_315\n        /* \"#utility.yul\":14738:14743   */\n      dup2\n        /* \"#utility.yul\":14711:14744   */\n      tag_148\n      jump\t// in\n    tag_315:\n        /* \"#utility.yul\":14607:14750   */\n      swap3\n      swap2\n      pop\n      pop\n      jump\t// out\n        /* \"#utility.yul\":14756:15107   */\n    tag_121:\n        /* \"#utility.yul\":14826:14832   */\n      0x00\n        /* \"#utility.yul\":14875:14877   */\n      0x20\n        /* \"#utility.yul\":14863:14872   */\n      dup3\n        /* \"#utility.yul\":14854:14861   */\n      dup5\n        /* \"#utility.yul\":14850:14873   */\n      sub\n        /* \"#utility.yul\":14846:14878   */\n      slt\n        /* \"#utility.yul\":14843:14962   */\n      iszero\n      tag_317\n      jumpi\n        /* \"#utility.yul\":14881:14960   */\n      tag_318\n      tag_140\n      jump\t// in\n    tag_318:\n        /* \"#utility.yul\":14843:14962   */\n    tag_317:\n        /* \"#utility.yul\":15001:15002   */\n      0x00\n        /* \"#utility.yul\":15026:15090   */\n      tag_319\n        /* \"#utility.yul\":15082:15089   */\n      dup5\n        /* \"#utility.yul\":15073:15079   */\n      dup3\n        /* \"#utility.yul\":15062:15071   */\n      dup6\n        /* \"#utility.yul\":15058:15080   */\n      add\n        /* \"#utility.yul\":15026:15090   */\n      tag_180\n      jump\t// in\n    tag_319:\n        /* \"#utility.yul\":15016:15090   */\n      swap2\n      pop\n        /* \"#utility.yul\":14972:15100   */\n      pop\n        /* \"#utility.yul\":14756:15107   */\n      swap3\n      swap2\n      pop\n      pop\n      jump\t// out\n        /* \"#utility.yul\":15113:15333   */\n    tag_181:\n        /* \"#utility.yul\":15253:15287   */\n      0x4e6f7420656e6f75676820746f6b656e7320696e2074686520706c6174666f72\n        /* \"#utility.yul\":15249:15250   */\n      0x00\n        /* \"#utility.yul\":15241:15247   */\n      dup3\n        /* \"#utility.yul\":15237:15251   */\n      add\n        /* \"#utility.yul\":15230:15288   */\n      mstore\n        /* \"#utility.yul\":15322:15325   */\n      0x6d00000000000000000000000000000000000000000000000000000000000000\n        /* \"#utility.yul\":15317:15319   */\n      0x20\n        /* \"#utility.yul\":15309:15315   */\n      dup3\n        /* \"#utility.yul\":15305:15320   */\n      add\n        /* \"#utility.yul\":15298:15326   */\n      mstore\n        /* \"#utility.yul\":15113:15333   */\n      pop\n      jump\t// out\n        /* \"#utility.yul\":15339:15705   */\n    tag_182:\n        /* \"#utility.yul\":15481:15484   */\n      0x00\n        /* \"#utility.yul\":15502:15569   */\n      tag_322\n        /* \"#utility.yul\":15566:15568   */\n      0x21\n        /* \"#utility.yul\":15561:15564   */\n      dup4\n        /* \"#utility.yul\":15502:15569   */\n      tag_155\n      jump\t// in\n    tag_322:\n        /* \"#utility.yul\":15495:15569   */\n      swap2\n      pop\n        /* \"#utility.yul\":15578:15671   */\n      tag_323\n        /* \"#utility.yul\":15667:15670   */\n      dup3\n        /* \"#utility.yul\":15578:15671   */\n      tag_181\n      jump\t// in\n    tag_323:\n        /* \"#utility.yul\":15696:15698   */\n      0x40\n        /* \"#utility.yul\":15691:15694   */\n      dup3\n        /* \"#utility.yul\":15687:15699   */\n      add\n        /* \"#utility.yul\":15680:15699   */\n      swap1\n      pop\n        /* \"#utility.yul\":15339:15705   */\n      swap2\n      swap1\n      pop\n      jump\t// out\n        /* \"#utility.yul\":15711:16130   */\n    tag_124:\n        /* \"#utility.yul\":15877:15881   */\n      0x00\n        /* \"#utility.yul\":15915:15917   */\n      0x20\n        /* \"#utility.yul\":15904:15913   */\n      dup3\n        /* \"#utility.yul\":15900:15918   */\n      add\n        /* \"#utility.yul\":15892:15918   */\n      swap1\n      pop\n        /* \"#utility.yul\":15964:15973   */\n      dup2\n        /* \"#utility.yul\":15958:15962   */\n      dup2\n        /* \"#utility.yul\":15954:15974   */\n      sub\n        /* \"#utility.yul\":15950:15951   */\n      0x00\n        /* \"#utility.yul\":15939:15948   */\n      dup4\n        /* \"#utility.yul\":15935:15952   */\n      add\n        /* \"#utility.yul\":15928:15975   */\n      mstore\n        /* \"#utility.yul\":15992:16123   */\n      tag_325\n        /* \"#utility.yul\":16118:16122   */\n      dup2\n        /* \"#utility.yul\":15992:16123   */\n      tag_182\n      jump\t// in\n    tag_325:\n        /* \"#utility.yul\":15984:16123   */\n      swap1\n      pop\n        /* \"#utility.yul\":15711:16130   */\n      swap2\n      swap1\n      pop\n      jump\t// out\n        /* \"#utility.yul\":16136:16309   */\n    tag_183:\n        /* \"#utility.yul\":16276:16301   */\n      0x4e6f20636f6c6c61746572616c206465706f7369746564000000000000000000\n        /* \"#utility.yul\":16272:16273   */\n      0x00\n        /* \"#utility.yul\":16264:16270   */\n      dup3\n        /* \"#utility.yul\":16260:16274   */\n      add\n        /* \"#utility.yul\":16253:16302   */\n      mstore\n        /* \"#utility.yul\":16136:16309   */\n      pop\n      jump\t// out\n        /* \"#utility.yul\":16315:16681   */\n    tag_184:\n        /* \"#utility.yul\":16457:16460   */\n      0x00\n        /* \"#utility.yul\":16478:16545   */\n      tag_328\n        /* \"#utility.yul\":16542:16544   */\n      0x17\n        /* \"#utility.yul\":16537:16540   */\n      dup4\n        /* \"#utility.yul\":16478:16545   */\n      tag_155\n      jump\t// in\n    tag_328:\n        /* \"#utility.yul\":16471:16545   */\n      swap2\n      pop\n        /* \"#utility.yul\":16554:16647   */\n      tag_329\n        /* \"#utility.yul\":16643:16646   */\n      dup3\n        /* \"#utility.yul\":16554:16647   */\n      tag_183\n      jump\t// in\n    tag_329:\n        /* \"#utility.yul\":16672:16674   */\n      0x20\n        /* \"#utility.yul\":16667:16670   */\n      dup3\n        /* \"#utility.yul\":16663:16675   */\n      add\n        /* \"#utility.yul\":16656:16675   */\n      swap1\n      pop\n        /* \"#utility.yul\":16315:16681   */\n      swap2\n      swap1\n      pop\n      jump\t// out\n        /* \"#utility.yul\":16687:17106   */\n    tag_127:\n        /* \"#utility.yul\":16853:16857   */\n      0x00\n        /* \"#utility.yul\":16891:16893   */\n      0x20\n        /* \"#utility.yul\":16880:16889   */\n      dup3\n        /* \"#utility.yul\":16876:16894   */\n      add\n        /* \"#utility.yul\":16868:16894   */\n      swap1\n      pop\n        /* \"#utility.yul\":16940:16949   */\n      dup2\n        /* \"#utility.yul\":16934:16938   */\n      dup2\n        /* \"#utility.yul\":16930:16950   */\n      sub\n        /* \"#utility.yul\":16926:16927   */\n      0x00\n        /* \"#utility.yul\":16915:16924   */\n      dup4\n        /* \"#utility.yul\":16911:16928   */\n      add\n        /* \"#utility.yul\":16904:16951   */\n      mstore\n        /* \"#utility.yul\":16968:17099   */\n      tag_331\n        /* \"#utility.yul\":17094:17098   */\n      dup2\n        /* \"#utility.yul\":16968:17099   */\n      tag_184\n      jump\t// in\n    tag_331:\n        /* \"#utility.yul\":16960:17099   */\n      swap1\n      pop\n        /* \"#utility.yul\":16687:17106   */\n      swap2\n      swap1\n      pop\n      jump\t// out\n        /* \"#utility.yul\":17112:17444   */\n    tag_129:\n        /* \"#utility.yul\":17233:17237   */\n      0x00\n        /* \"#utility.yul\":17271:17273   */\n      0x40\n        /* \"#utility.yul\":17260:17269   */\n      dup3\n        /* \"#utility.yul\":17256:17274   */\n      add\n        /* \"#utility.yul\":17248:17274   */\n      swap1\n      pop\n        /* \"#utility.yul\":17284:17355   */\n      tag_333\n        /* \"#utility.yul\":17352:17353   */\n      0x00\n        /* \"#utility.yul\":17341:17350   */\n      dup4\n        /* \"#utility.yul\":17337:17354   */\n      add\n        /* \"#utility.yul\":17328:17334   */\n      dup6\n        /* \"#utility.yul\":17284:17355   */\n      tag_159\n      jump\t// in\n    tag_333:\n        /* \"#utility.yul\":17365:17437   */\n      tag_334\n        /* \"#utility.yul\":17433:17435   */\n      0x20\n        /* \"#utility.yul\":17422:17431   */\n      dup4\n        /* \"#utility.yul\":17418:17436   */\n      add\n        /* \"#utility.yul\":17409:17415   */\n      dup5\n        /* \"#utility.yul\":17365:17437   */\n      tag_147\n      jump\t// in\n    tag_334:\n        /* \"#utility.yul\":17112:17444   */\n      swap4\n      swap3\n      pop\n      pop\n      pop\n      jump\t// out\n        /* \"#utility.yul\":17450:17860   */\n    tag_135:\n        /* \"#utility.yul\":17490:17497   */\n      0x00\n        /* \"#utility.yul\":17513:17533   */\n      tag_336\n        /* \"#utility.yul\":17531:17532   */\n      dup3\n        /* \"#utility.yul\":17513:17533   */\n      tag_146\n      jump\t// in\n    tag_336:\n        /* \"#utility.yul\":17508:17533   */\n      swap2\n      pop\n        /* \"#utility.yul\":17547:17567   */\n      tag_337\n        /* \"#utility.yul\":17565:17566   */\n      dup4\n        /* \"#utility.yul\":17547:17567   */\n      tag_146\n      jump\t// in\n    tag_337:\n        /* \"#utility.yul\":17542:17567   */\n      swap3\n      pop\n        /* \"#utility.yul\":17602:17603   */\n      dup3\n        /* \"#utility.yul\":17599:17600   */\n      dup3\n        /* \"#utility.yul\":17595:17604   */\n      mul\n        /* \"#utility.yul\":17624:17654   */\n      tag_338\n        /* \"#utility.yul\":17642:17653   */\n      dup2\n        /* \"#utility.yul\":17624:17654   */\n      tag_146\n      jump\t// in\n    tag_338:\n        /* \"#utility.yul\":17613:17654   */\n      swap2\n      pop\n        /* \"#utility.yul\":17803:17804   */\n      dup3\n        /* \"#utility.yul\":17794:17801   */\n      dup3\n        /* \"#utility.yul\":17790:17805   */\n      div\n        /* \"#utility.yul\":17787:17788   */\n      dup5\n        /* \"#utility.yul\":17784:17806   */\n      eq\n        /* \"#utility.yul\":17764:17765   */\n      dup4\n        /* \"#utility.yul\":17757:17766   */\n      iszero\n        /* \"#utility.yul\":17737:17820   */\n      or\n        /* \"#utility.yul\":17714:17853   */\n      tag_339\n      jumpi\n        /* \"#utility.yul\":17833:17851   */\n      tag_340\n      tag_158\n      jump\t// in\n    tag_340:\n        /* \"#utility.yul\":17714:17853   */\n    tag_339:\n        /* \"#utility.yul\":17498:17860   */\n      pop\n        /* \"#utility.yul\":17450:17860   */\n      swap3\n      swap2\n      pop\n      pop\n      jump\t// out\n        /* \"#utility.yul\":17866:18046   */\n    tag_185:\n        /* \"#utility.yul\":17914:17991   */\n      0x4e487b7100000000000000000000000000000000000000000000000000000000\n        /* \"#utility.yul\":17911:17912   */\n      0x00\n        /* \"#utility.yul\":17904:17992   */\n      mstore\n        /* \"#utility.yul\":18011:18015   */\n      0x12\n        /* \"#utility.yul\":18008:18009   */\n      0x04\n        /* \"#utility.yul\":18001:18016   */\n      mstore\n        /* \"#utility.yul\":18035:18039   */\n      0x24\n        /* \"#utility.yul\":18032:18033   */\n      0x00\n        /* \"#utility.yul\":18025:18040   */\n      revert\n        /* \"#utility.yul\":18052:18237   */\n    tag_138:\n        /* \"#utility.yul\":18092:18093   */\n      0x00\n        /* \"#utility.yul\":18109:18129   */\n      tag_343\n        /* \"#utility.yul\":18127:18128   */\n      dup3\n        /* \"#utility.yul\":18109:18129   */\n      tag_146\n      jump\t// in\n    tag_343:\n        /* \"#utility.yul\":18104:18129   */\n      swap2\n      pop\n        /* \"#utility.yul\":18143:18163   */\n      tag_344\n        /* \"#utility.yul\":18161:18162   */\n      dup4\n        /* \"#utility.yul\":18143:18163   */\n      tag_146\n      jump\t// in\n    tag_344:\n        /* \"#utility.yul\":18138:18163   */\n      swap3\n      pop\n        /* \"#utility.yul\":18182:18183   */\n      dup3\n        /* \"#utility.yul\":18172:18207   */\n      tag_345\n      jumpi\n        /* \"#utility.yul\":18187:18205   */\n      tag_346\n      tag_185\n      jump\t// in\n    tag_346:\n        /* \"#utility.yul\":18172:18207   */\n    tag_345:\n        /* \"#utility.yul\":18229:18230   */\n      dup3\n        /* \"#utility.yul\":18226:18227   */\n      dup3\n        /* \"#utility.yul\":18222:18231   */\n      div\n        /* \"#utility.yul\":18217:18231   */\n      swap1\n      pop\n        /* \"#utility.yul\":18052:18237   */\n      swap3\n      swap2\n      pop\n      pop\n      jump\t// out\n\n    auxdata: 0xa26469706673582212209299c97dc4fc04a2b99c4581f2fc69fdcac5944a00e62696b99f682dba58b26d64736f6c634300081e0033\n}\n",
				"bytecode": {
					"linkReferences": {},
					"object": "608060405234801561000f575f5ffd5b5060405161173238038061173283398181016040528101906100319190610120565b815f5f6101000a81548173ffffffffffffffffffffffffffffffffffffffff021916908373ffffffffffffffffffffffffffffffffffffffff16021790555080600181905550505061015e565b5f5ffd5b5f73ffffffffffffffffffffffffffffffffffffffff82169050919050565b5f6100ab82610082565b9050919050565b5f6100bc826100a1565b9050919050565b6100cc816100b2565b81146100d6575f5ffd5b50565b5f815190506100e7816100c3565b92915050565b5f819050919050565b6100ff816100ed565b8114610109575f5ffd5b50565b5f8151905061011a816100f6565b92915050565b5f5f604083850312156101365761013561007e565b5b5f610143858286016100d9565b92505060206101548582860161010c565b9150509250929050565b6115c78061016b5f395ff3fe60806040526004361061009b575f3560e01c80637f10883b116100635780637f10883b1461014d578063a6aa57ce14610189578063b750333e146101b1578063c5ebeaec146101ed578063dad919ec14610215578063fc0c546a146102515761009b565b80631c8c16fb1461009f578063402d8883146100db5780636112fe2e146100f15780636f758140146101195780637c3a00fd14610123575b5f5ffd5b3480156100aa575f5ffd5b506100c560048036038101906100c09190610cad565b61027b565b6040516100d29190610cf0565b60405180910390f35b3480156100e6575f5ffd5b506100ef610290565b005b3480156100fc575f5ffd5b5061011760048036038101906101129190610d33565b6104a8565b005b6101216106a6565b005b34801561012e575f5ffd5b5061013761073d565b6040516101449190610cf0565b60405180910390f35b348015610158575f5ffd5b50610173600480360381019061016e9190610cad565b610743565b6040516101809190610cf0565b60405180910390f35b348015610194575f5ffd5b506101af60048036038101906101aa9190610d33565b610758565b005b3480156101bc575f5ffd5b506101d760048036038101906101d29190610cad565b61088e565b6040516101e49190610cf0565b60405180910390f35b3480156101f8575f5ffd5b50610213600480360381019061020e9190610d33565b6108a3565b005b348015610220575f5ffd5b5061023b60048036038101906102369190610cad565b610be0565b6040516102489190610cf0565b60405180910390f35b34801561025c575f5ffd5b50610265610bf5565b6040516102729190610db9565b60405180910390f35b6005602052805f5260405f205f915090505481565b5f60035f3373ffffffffffffffffffffffffffffffffffffffff1673ffffffffffffffffffffffffffffffffffffffff1681526020019081526020015f205490505f60045f3373ffffffffffffffffffffffffffffffffffffffff1673ffffffffffffffffffffffffffffffffffffffff1681526020019081526020015f205490505f8211610354576040517f08c379a000000000000000000000000000000000000000000000000000000000815260040161034b90610e2c565b60405180910390fd5b5f81426103619190610e77565b90505f61036e8483610c19565b90505f818561037d9190610eaa565b90505f60035f3373ffffffffffffffffffffffffffffffffffffffff1673ffffffffffffffffffffffffffffffffffffffff1681526020019081526020015f20819055505f60045f3373ffffffffffffffffffffffffffffffffffffffff1673ffffffffffffffffffffffffffffffffffffffff1681526020019081526020015f20819055505f5f9054906101000a900473ffffffffffffffffffffffffffffffffffffffff1673ffffffffffffffffffffffffffffffffffffffff166323b872dd3330846040518463ffffffff1660e01b815260040161046093929190610eec565b6020604051808303815f875af115801561047c573d5f5f3e3d5ffd5b505050506040513d601f19601f820116820180604052508101906104a09190610f56565b505050505050565b8060055f3373ffffffffffffffffffffffffffffffffffffffff1673ffffffffffffffffffffffffffffffffffffffff1681526020019081526020015f20541015610528576040517f08c379a000000000000000000000000000000000000000000000000000000000815260040161051f90610ff1565b60405180910390fd5b5f60035f3373ffffffffffffffffffffffffffffffffffffffff1673ffffffffffffffffffffffffffffffffffffffff1681526020019081526020015f2054146105a7576040517f08c379a000000000000000000000000000000000000000000000000000000000815260040161059e9061107f565b60405180910390fd5b8060055f3373ffffffffffffffffffffffffffffffffffffffff1673ffffffffffffffffffffffffffffffffffffffff1681526020019081526020015f205f8282546105f39190610e77565b925050819055505f3373ffffffffffffffffffffffffffffffffffffffff168260405161061f906110ca565b5f6040518083038185875af1925050503d805f8114610659576040519150601f19603f3d011682016040523d82523d5f602084013e61065e565b606091505b50509050806106a2576040517f08c379a000000000000000000000000000000000000000000000000000000000815260040161069990611128565b60405180910390fd5b5050565b5f34116106e8576040517f08c379a00000000000000000000000000000000000000000000000000000000081526004016106df906111b6565b60405180910390fd5b3460055f3373ffffffffffffffffffffffffffffffffffffffff1673ffffffffffffffffffffffffffffffffffffffff1681526020019081526020015f205f8282546107349190610eaa565b92505081905550565b60015481565b6002602052805f5260405f205f915090505481565b5f811161079a576040517f08c379a000000000000000000000000000000000000000000000000000000000815260040161079190611244565b60405180910390fd5b8060025f3373ffffffffffffffffffffffffffffffffffffffff1673ffffffffffffffffffffffffffffffffffffffff1681526020019081526020015f205f8282546107e69190610eaa565b925050819055505f5f9054906101000a900473ffffffffffffffffffffffffffffffffffffffff1673ffffffffffffffffffffffffffffffffffffffff166323b872dd3330846040518463ffffffff1660e01b815260040161084a93929190610eec565b6020604051808303815f875af1158015610866573d5f5f3e3d5ffd5b505050506040513d601f19601f8201168201806040525081019061088a9190610f56565b5050565b6003602052805f5260405f205f915090505481565b5f81116108e5576040517f08c379a00000000000000000000000000000000000000000000000000000000081526004016108dc906112d2565b60405180910390fd5b5f60035f3373ffffffffffffffffffffffffffffffffffffffff1673ffffffffffffffffffffffffffffffffffffffff1681526020019081526020015f205414610964576040517f08c379a000000000000000000000000000000000000000000000000000000000815260040161095b90611360565b60405180910390fd5b805f5f9054906101000a900473ffffffffffffffffffffffffffffffffffffffff1673ffffffffffffffffffffffffffffffffffffffff166370a08231306040518263ffffffff1660e01b81526004016109be919061137e565b602060405180830381865afa1580156109d9573d5f5f3e3d5ffd5b505050506040513d601f19601f820116820180604052508101906109fd91906113ab565b1015610a3e576040517f08c379a0000000000000000000000000000000000000000000000000000000008152600401610a3590611446565b60405180910390fd5b5f60055f3373ffffffffffffffffffffffffffffffffffffffff1673ffffffffffffffffffffffffffffffffffffffff1681526020019081526020015f205411610abd576040517f08c379a0000000000000000000000000000000000000000000000000000000008152600401610ab4906114ae565b60405180910390fd5b8060035f3373ffffffffffffffffffffffffffffffffffffffff1673ffffffffffffffffffffffffffffffffffffffff1681526020019081526020015f20819055504260045f3373ffffffffffffffffffffffffffffffffffffffff1673ffffffffffffffffffffffffffffffffffffffff1681526020019081526020015f20819055505f5f9054906101000a900473ffffffffffffffffffffffffffffffffffffffff1673ffffffffffffffffffffffffffffffffffffffff1663a9059cbb33836040518363ffffffff1660e01b8152600401610b9c9291906114cc565b6020604051808303815f875af1158015610bb8573d5f5f3e3d5ffd5b505050506040513d601f19601f82011682018060405250810190610bdc9190610f56565b5050565b6004602052805f5260405f205f915090505481565b5f5f9054906101000a900473ffffffffffffffffffffffffffffffffffffffff1681565b5f5f63bbf81e008360015486610c2f91906114f3565b610c3991906114f3565b610c439190611561565b90508091505092915050565b5f5ffd5b5f73ffffffffffffffffffffffffffffffffffffffff82169050919050565b5f610c7c82610c53565b9050919050565b610c8c81610c72565b8114610c96575f5ffd5b50565b5f81359050610ca781610c83565b92915050565b5f60208284031215610cc257610cc1610c4f565b5b5f610ccf84828501610c99565b91505092915050565b5f819050919050565b610cea81610cd8565b82525050565b5f602082019050610d035f830184610ce1565b92915050565b610d1281610cd8565b8114610d1c575f5ffd5b50565b5f81359050610d2d81610d09565b92915050565b5f60208284031215610d4857610d47610c4f565b5b5f610d5584828501610d1f565b91505092915050565b5f819050919050565b5f610d81610d7c610d7784610c53565b610d5e565b610c53565b9050919050565b5f610d9282610d67565b9050919050565b5f610da382610d88565b9050919050565b610db381610d99565b82525050565b5f602082019050610dcc5f830184610daa565b92915050565b5f82825260208201905092915050565b7f596f7520646f206e6f7420686176652061206c6f616e20746f207265706179005f82015250565b5f610e16601f83610dd2565b9150610e2182610de2565b602082019050919050565b5f6020820190508181035f830152610e4381610e0a565b9050919050565b7f4e487b71000000000000000000000000000000000000000000000000000000005f52601160045260245ffd5b5f610e8182610cd8565b9150610e8c83610cd8565b9250828203905081811115610ea457610ea3610e4a565b5b92915050565b5f610eb482610cd8565b9150610ebf83610cd8565b9250828201905080821115610ed757610ed6610e4a565b5b92915050565b610ee681610c72565b82525050565b5f606082019050610eff5f830186610edd565b610f0c6020830185610edd565b610f196040830184610ce1565b949350505050565b5f8115159050919050565b610f3581610f21565b8114610f3f575f5ffd5b50565b5f81519050610f5081610f2c565b92915050565b5f60208284031215610f6b57610f6a610c4f565b5b5f610f7884828501610f42565b91505092915050565b7f5769746864726177616c20616d6f756e74206578636565647320636f6c6c61745f8201527f6572616c2062616c616e63650000000000000000000000000000000000000000602082015250565b5f610fdb602c83610dd2565b9150610fe682610f81565b604082019050919050565b5f6020820190508181035f83015261100881610fcf565b9050919050565b7f43616e6e6f7420776974686472617720636f6c6c61746572616c2077697468205f8201527f616e206f75747374616e64696e67206c6f616e00000000000000000000000000602082015250565b5f611069603383610dd2565b91506110748261100f565b604082019050919050565b5f6020820190508181035f8301526110968161105d565b9050919050565b5f81905092915050565b50565b5f6110b55f8361109d565b91506110c0826110a7565b5f82019050919050565b5f6110d4826110aa565b9150819050919050565b7f4661696c656420746f2073656e642045746865720000000000000000000000005f82015250565b5f611112601483610dd2565b915061111d826110de565b602082019050919050565b5f6020820190508181035f83015261113f81611106565b9050919050565b7f436f6c6c61746572616c206465706f736974206d7573742062652067726561745f8201527f6572207468616e207a65726f0000000000000000000000000000000000000000602082015250565b5f6111a0602c83610dd2565b91506111ab82611146565b604082019050919050565b5f6020820190508181035f8301526111cd81611194565b9050919050565b7f4c656e6420616d6f756e74206d7573742062652067726561746572207468616e5f8201527f207a65726f000000000000000000000000000000000000000000000000000000602082015250565b5f61122e602583610dd2565b9150611239826111d4565b604082019050919050565b5f6020820190508181035f83015261125b81611222565b9050919050565b7f426f72726f7720616d6f756e74206d75737420626520677265617465722074685f8201527f616e207a65726f00000000000000000000000000000000000000000000000000602082015250565b5f6112bc602783610dd2565b91506112c782611262565b604082019050919050565b5f6020820190508181035f8301526112e9816112b0565b9050919050565b7f596f7520616c7265616479206861766520616e206f75747374616e64696e67205f8201527f6c6f616e00000000000000000000000000000000000000000000000000000000602082015250565b5f61134a602483610dd2565b9150611355826112f0565b604082019050919050565b5f6020820190508181035f8301526113778161133e565b9050919050565b5f6020820190506113915f830184610edd565b92915050565b5f815190506113a581610d09565b92915050565b5f602082840312156113c0576113bf610c4f565b5b5f6113cd84828501611397565b91505092915050565b7f4e6f7420656e6f75676820746f6b656e7320696e2074686520706c6174666f725f8201527f6d00000000000000000000000000000000000000000000000000000000000000602082015250565b5f611430602183610dd2565b915061143b826113d6565b604082019050919050565b5f6020820190508181035f83015261145d81611424565b9050919050565b7f4e6f20636f6c6c61746572616c206465706f73697465640000000000000000005f82015250565b5f611498601783610dd2565b91506114a382611464565b602082019050919050565b5f6020820190508181035f8301526114c58161148c565b9050919050565b5f6040820190506114df5f830185610edd565b6114ec6020830184610ce1565b9392505050565b5f6114fd82610cd8565b915061150883610cd8565b925082820261151681610cd8565b9150828204841483151761152d5761152c610e4a565b5b5092915050565b7f4e487b71000000000000000000000000000000000000000000000000000000005f52601260045260245ffd5b5f61156b82610cd8565b915061157683610cd8565b92508261158657611585611534565b5b82820490509291505056fea26469706673582212209299c97dc4fc04a2b99c4581f2fc69fdcac5944a00e62696b99f682dba58b26d64736f6c634300081e0033",
					"opcodes": "PUSH1 0x80 PUSH1 0x40 MSTORE CALLVALUE DUP1 ISZERO PUSH2 0xF JUMPI PUSH0 PUSH0 REVERT JUMPDEST POP PUSH1 0x40 MLOAD PUSH2 0x1732 CODESIZE SUB DUP1 PUSH2 0x1732 DUP4 CODECOPY DUP2 DUP2 ADD PUSH1 0x40 MSTORE DUP2 ADD SWAP1 PUSH2 0x31 SWAP2 SWAP1 PUSH2 0x120 JUMP JUMPDEST DUP2 PUSH0 PUSH0 PUSH2 0x100 EXP DUP2 SLOAD DUP2 PUSH20 0xFFFFFFFFFFFFFFFFFFFFFFFFFFFFFFFFFFFFFFFF MUL NOT AND SWAP1 DUP4 PUSH20 0xFFFFFFFFFFFFFFFFFFFFFFFFFFFFFFFFFFFFFFFF AND MUL OR SWAP1 SSTORE POP DUP1 PUSH1 0x1 DUP2 SWAP1 SSTORE POP POP POP PUSH2 0x15E JUMP JUMPDEST PUSH0 PUSH0 REVERT JUMPDEST PUSH0 PUSH20 0xFFFFFFFFFFFFFFFFFFFFFFFFFFFFFFFFFFFFFFFF DUP3 AND SWAP1 POP SWAP2 SWAP1 POP JUMP JUMPDEST PUSH0 PUSH2 0xAB DUP3 PUSH2 0x82 JUMP JUMPDEST SWAP1 POP SWAP2 SWAP1 POP JUMP JUMPDEST PUSH0 PUSH2 0xBC DUP3 PUSH2 0xA1 JUMP JUMPDEST SWAP1 POP SWAP2 SWAP1 POP JUMP JUMPDEST PUSH2 0xCC DUP2 PUSH2 0xB2 JUMP JUMPDEST DUP2 EQ PUSH2 0xD6 JUMPI PUSH0 PUSH0 REVERT JUMPDEST POP JUMP JUMPDEST PUSH0 DUP2 MLOAD SWAP1 POP PUSH2 0xE7 DUP2 PUSH2 0xC3 JUMP JUMPDEST SWAP3 SWAP2 POP POP JUMP JUMPDEST PUSH0 DUP2 SWAP1 POP SWAP2 SWAP1 POP JUMP JUMPDEST PUSH2 0xFF DUP2 PUSH2 0xED JUMP JUMPDEST DUP2 EQ PUSH2 0x109 JUMPI PUSH0 PUSH0 REVERT JUMPDEST POP JUMP JUMPDEST PUSH0 DUP2 MLOAD SWAP1 POP PUSH2 0x11A DUP2 PUSH2 0xF6 JUMP JUMPDEST SWAP3 SWAP2 POP POP JUMP JUMPDEST PUSH0 PUSH0 PUSH1 0x40 DUP4 DUP6 SUB SLT ISZERO PUSH2 0x136 JUMPI PUSH2 0x135 PUSH2 0x7E JUMP JUMPDEST JUMPDEST PUSH0 PUSH2 0x143 DUP6 DUP3 DUP7 ADD PUSH2 0xD9 JUMP JUMPDEST SWAP3 POP POP PUSH1 0x20 PUSH2 0x154 DUP6 DUP3 DUP7 ADD PUSH2 0x10C JUMP JUMPDEST SWAP2 POP POP SWAP3 POP SWAP3 SWAP1 POP JUMP JUMPDEST PUSH2 0x15C7 DUP1 PUSH2 0x16B PUSH0 CODECOPY PUSH0 RETURN INVALID PUSH1 0x80 PUSH1 0x40 MSTORE PUSH1 0x4 CALLDATASIZE LT PUSH2 0x9B JUMPI PUSH0 CALLDATALOAD PUSH1 0xE0 SHR DUP1 PUSH4 0x7F10883B GT PUSH2 0x63 JUMPI DUP1 PUSH4 0x7F10883B EQ PUSH2 0x14D JUMPI DUP1 PUSH4 0xA6AA57CE EQ PUSH2 0x189 JUMPI DUP1 PUSH4 0xB750333E EQ PUSH2 0x1B1 JUMPI DUP1 PUSH4 0xC5EBEAEC EQ PUSH2 0x1ED JUMPI DUP1 PUSH4 0xDAD919EC EQ PUSH2 0x215 JUMPI DUP1 PUSH4 0xFC0C546A EQ PUSH2 0x251 JUMPI PUSH2 0x9B JUMP JUMPDEST DUP1 PUSH4 0x1C8C16FB EQ PUSH2 0x9F JUMPI DUP1 PUSH4 0x402D8883 EQ PUSH2 0xDB JUMPI DUP1 PUSH4 0x6112FE2E EQ PUSH2 0xF1 JUMPI DUP1 PUSH4 0x6F758140 EQ PUSH2 0x119 JUMPI DUP1 PUSH4 0x7C3A00FD EQ PUSH2 0x123 JUMPI JUMPDEST PUSH0 PUSH0 REVERT JUMPDEST CALLVALUE DUP1 ISZERO PUSH2 0xAA JUMPI PUSH0 PUSH0 REVERT JUMPDEST POP PUSH2 0xC5 PUSH1 0x4 DUP1 CALLDATASIZE SUB DUP2 ADD SWAP1 PUSH2 0xC0 SWAP2 SWAP1 PUSH2 0xCAD JUMP JUMPDEST PUSH2 0x27B JUMP JUMPDEST PUSH1 0x40 MLOAD PUSH2 0xD2 SWAP2 SWAP1 PUSH2 0xCF0 JUMP JUMPDEST PUSH1 0x40 MLOAD DUP1 SWAP2 SUB SWAP1 RETURN JUMPDEST CALLVALUE DUP1 ISZERO PUSH2 0xE6 JUMPI PUSH0 PUSH0 REVERT JUMPDEST POP PUSH2 0xEF PUSH2 0x290 JUMP JUMPDEST STOP JUMPDEST CALLVALUE DUP1 ISZERO PUSH2 0xFC JUMPI PUSH0 PUSH0 REVERT JUMPDEST POP PUSH2 0x117 PUSH1 0x4 DUP1 CALLDATASIZE SUB DUP2 ADD SWAP1 PUSH2 0x112 SWAP2 SWAP1 PUSH2 0xD33 JUMP JUMPDEST PUSH2 0x4A8 JUMP JUMPDEST STOP JUMPDEST PUSH2 0x121 PUSH2 0x6A6 JUMP JUMPDEST STOP JUMPDEST CALLVALUE DUP1 ISZERO PUSH2 0x12E JUMPI PUSH0 PUSH0 REVERT JUMPDEST POP PUSH2 0x137 PUSH2 0x73D JUMP JUMPDEST PUSH1 0x40 MLOAD PUSH2 0x144 SWAP2 SWAP1 PUSH2 0xCF0 JUMP JUMPDEST PUSH1 0x40 MLOAD DUP1 SWAP2 SUB SWAP1 RETURN JUMPDEST CALLVALUE DUP1 ISZERO PUSH2 0x158 JUMPI PUSH0 PUSH0 REVERT JUMPDEST POP PUSH2 0x173 PUSH1 0x4 DUP1 CALLDATASIZE SUB DUP2 ADD SWAP1 PUSH2 0x16E SWAP2 SWAP1 PUSH2 0xCAD JUMP JUMPDEST PUSH2 0x743 JUMP JUMPDEST PUSH1 0x40 MLOAD PUSH2 0x180 SWAP2 SWAP1 PUSH2 0xCF0 JUMP JUMPDEST PUSH1 0x40 MLOAD DUP1 SWAP2 SUB SWAP1 RETURN JUMPDEST CALLVALUE DUP1 ISZERO PUSH2 0x194 JUMPI PUSH0 PUSH0 REVERT JUMPDEST POP PUSH2 0x1AF PUSH1 0x4 DUP1 CALLDATASIZE SUB DUP2 ADD SWAP1 PUSH2 0x1AA SWAP2 SWAP1 PUSH2 0xD33 JUMP JUMPDEST PUSH2 0x758 JUMP JUMPDEST STOP JUMPDEST CALLVALUE DUP1 ISZERO PUSH2 0x1BC JUMPI PUSH0 PUSH0 REVERT JUMPDEST POP PUSH2 0x1D7 PUSH1 0x4 DUP1 CALLDATASIZE SUB DUP2 ADD SWAP1 PUSH2 0x1D2 SWAP2 SWAP1 PUSH2 0xCAD JUMP JUMPDEST PUSH2 0x88E JUMP JUMPDEST PUSH1 0x40 MLOAD PUSH2 0x1E4 SWAP2 SWAP1 PUSH2 0xCF0 JUMP JUMPDEST PUSH1 0x40 MLOAD DUP1 SWAP2 SUB SWAP1 RETURN JUMPDEST CALLVALUE DUP1 ISZERO PUSH2 0x1F8 JUMPI PUSH0 PUSH0 REVERT JUMPDEST POP PUSH2 0x213 PUSH1 0x4 DUP1 CALLDATASIZE SUB DUP2 ADD SWAP1 PUSH2 0x20E SWAP2 SWAP1 PUSH2 0xD33 JUMP JUMPDEST PUSH2 0x8A3 JUMP JUMPDEST STOP JUMPDEST CALLVALUE DUP1 ISZERO PUSH2 0x220 JUMPI PUSH0 PUSH0 REVERT JUMPDEST POP PUSH2 0x23B PUSH1 0x4 DUP1 CALLDATASIZE SUB DUP2 ADD SWAP1 PUSH2 0x236 SWAP2 SWAP1 PUSH2 0xCAD JUMP JUMPDEST PUSH2 0xBE0 JUMP JUMPDEST PUSH1 0x40 MLOAD PUSH2 0x248 SWAP2 SWAP1 PUSH2 0xCF0 JUMP JUMPDEST PUSH1 0x40 MLOAD DUP1 SWAP2 SUB SWAP1 RETURN JUMPDEST CALLVALUE DUP1 ISZERO PUSH2 0x25C JUMPI PUSH0 PUSH0 REVERT JUMPDEST POP PUSH2 0x265 PUSH2 0xBF5 JUMP JUMPDEST PUSH1 0x40 MLOAD PUSH2 0x272 SWAP2 SWAP1 PUSH2 0xDB9 JUMP JUMPDEST PUSH1 0x40 MLOAD DUP1 SWAP2 SUB SWAP1 RETURN JUMPDEST PUSH1 0x5 PUSH1 0x20 MSTORE DUP1 PUSH0 MSTORE PUSH1 0x40 PUSH0 KECCAK256 PUSH0 SWAP2 POP SWAP1 POP SLOAD DUP2 JUMP JUMPDEST PUSH0 PUSH1 0x3 PUSH0 CALLER PUSH20 0xFFFFFFFFFFFFFFFFFFFFFFFFFFFFFFFFFFFFFFFF AND PUSH20 0xFFFFFFFFFFFFFFFFFFFFFFFFFFFFFFFFFFFFFFFF AND DUP2 MSTORE PUSH1 0x20 ADD SWAP1 DUP2 MSTORE PUSH1 0x20 ADD PUSH0 KECCAK256 SLOAD SWAP1 POP PUSH0 PUSH1 0x4 PUSH0 CALLER PUSH20 0xFFFFFFFFFFFFFFFFFFFFFFFFFFFFFFFFFFFFFFFF AND PUSH20 0xFFFFFFFFFFFFFFFFFFFFFFFFFFFFFFFFFFFFFFFF AND DUP2 MSTORE PUSH1 0x20 ADD SWAP1 DUP2 MSTORE PUSH1 0x20 ADD PUSH0 KECCAK256 SLOAD SWAP1 POP PUSH0 DUP3 GT PUSH2 0x354 JUMPI PUSH1 0x40 MLOAD PUSH32 0x8C379A000000000000000000000000000000000000000000000000000000000 DUP2 MSTORE PUSH1 0x4 ADD PUSH2 0x34B SWAP1 PUSH2 0xE2C JUMP JUMPDEST PUSH1 0x40 MLOAD DUP1 SWAP2 SUB SWAP1 REVERT JUMPDEST PUSH0 DUP2 TIMESTAMP PUSH2 0x361 SWAP2 SWAP1 PUSH2 0xE77 JUMP JUMPDEST SWAP1 POP PUSH0 PUSH2 0x36E DUP5 DUP4 PUSH2 0xC19 JUMP JUMPDEST SWAP1 POP PUSH0 DUP2 DUP6 PUSH2 0x37D SWAP2 SWAP1 PUSH2 0xEAA JUMP JUMPDEST SWAP1 POP PUSH0 PUSH1 0x3 PUSH0 CALLER PUSH20 0xFFFFFFFFFFFFFFFFFFFFFFFFFFFFFFFFFFFFFFFF AND PUSH20 0xFFFFFFFFFFFFFFFFFFFFFFFFFFFFFFFFFFFFFFFF AND DUP2 MSTORE PUSH1 0x20 ADD SWAP1 DUP2 MSTORE PUSH1 0x20 ADD PUSH0 KECCAK256 DUP2 SWAP1 SSTORE POP PUSH0 PUSH1 0x4 PUSH0 CALLER PUSH20 0xFFFFFFFFFFFFFFFFFFFFFFFFFFFFFFFFFFFFFFFF AND PUSH20 0xFFFFFFFFFFFFFFFFFFFFFFFFFFFFFFFFFFFFFFFF AND DUP2 MSTORE PUSH1 0x20 ADD SWAP1 DUP2 MSTORE PUSH1 0x20 ADD PUSH0 KECCAK256 DUP2 SWAP1 SSTORE POP PUSH0 PUSH0 SWAP1 SLOAD SWAP1 PUSH2 0x100 EXP SWAP1 DIV PUSH20 0xFFFFFFFFFFFFFFFFFFFFFFFFFFFFFFFFFFFFFFFF AND PUSH20 0xFFFFFFFFFFFFFFFFFFFFFFFFFFFFFFFFFFFFFFFF AND PUSH4 0x23B872DD CALLER ADDRESS DUP5 PUSH1 0x40 MLOAD DUP5 PUSH4 0xFFFFFFFF AND PUSH1 0xE0 SHL DUP2 MSTORE PUSH1 0x4 ADD PUSH2 0x460 SWAP4 SWAP3 SWAP2 SWAP1 PUSH2 0xEEC JUMP JUMPDEST PUSH1 0x20 PUSH1 0x40 MLOAD DUP1 DUP4 SUB DUP2 PUSH0 DUP8 GAS CALL ISZERO DUP1 ISZERO PUSH2 0x47C JUMPI RETURNDATASIZE PUSH0 PUSH0 RETURNDATACOPY RETURNDATASIZE PUSH0 REVERT JUMPDEST POP POP POP POP PUSH1 0x40 MLOAD RETURNDATASIZE PUSH1 0x1F NOT PUSH1 0x1F DUP3 ADD AND DUP3 ADD DUP1 PUSH1 0x40 MSTORE POP DUP2 ADD SWAP1 PUSH2 0x4A0 SWAP2 SWAP1 PUSH2 0xF56 JUMP JUMPDEST POP POP POP POP POP POP JUMP JUMPDEST DUP1 PUSH1 0x5 PUSH0 CALLER PUSH20 0xFFFFFFFFFFFFFFFFFFFFFFFFFFFFFFFFFFFFFFFF AND PUSH20 0xFFFFFFFFFFFFFFFFFFFFFFFFFFFFFFFFFFFFFFFF AND DUP2 MSTORE PUSH1 0x20 ADD SWAP1 DUP2 MSTORE PUSH1 0x20 ADD PUSH0 KECCAK256 SLOAD LT ISZERO PUSH2 0x528 JUMPI PUSH1 0x40 MLOAD PUSH32 0x8C379A000000000000000000000000000000000000000000000000000000000 DUP2 MSTORE PUSH1 0x4 ADD PUSH2 0x51F SWAP1 PUSH2 0xFF1 JUMP JUMPDEST PUSH1 0x40 MLOAD DUP1 SWAP2 SUB SWAP1 REVERT JUMPDEST PUSH0 PUSH1 0x3 PUSH0 CALLER PUSH20 0xFFFFFFFFFFFFFFFFFFFFFFFFFFFFFFFFFFFFFFFF AND PUSH20 0xFFFFFFFFFFFFFFFFFFFFFFFFFFFFFFFFFFFFFFFF AND DUP2 MSTORE PUSH1 0x20 ADD SWAP1 DUP2 MSTORE PUSH1 0x20 ADD PUSH0 KECCAK256 SLOAD EQ PUSH2 0x5A7 JUMPI PUSH1 0x40 MLOAD PUSH32 0x8C379A000000000000000000000000000000000000000000000000000000000 DUP2 MSTORE PUSH1 0x4 ADD PUSH2 0x59E SWAP1 PUSH2 0x107F JUMP JUMPDEST PUSH1 0x40 MLOAD DUP1 SWAP2 SUB SWAP1 REVERT JUMPDEST DUP1 PUSH1 0x5 PUSH0 CALLER PUSH20 0xFFFFFFFFFFFFFFFFFFFFFFFFFFFFFFFFFFFFFFFF AND PUSH20 0xFFFFFFFFFFFFFFFFFFFFFFFFFFFFFFFFFFFFFFFF AND DUP2 MSTORE PUSH1 0x20 ADD SWAP1 DUP2 MSTORE PUSH1 0x20 ADD PUSH0 KECCAK256 PUSH0 DUP3 DUP3 SLOAD PUSH2 0x5F3 SWAP2 SWAP1 PUSH2 0xE77 JUMP JUMPDEST SWAP3 POP POP DUP2 SWAP1 SSTORE POP PUSH0 CALLER PUSH20 0xFFFFFFFFFFFFFFFFFFFFFFFFFFFFFFFFFFFFFFFF AND DUP3 PUSH1 0x40 MLOAD PUSH2 0x61F SWAP1 PUSH2 0x10CA JUMP JUMPDEST PUSH0 PUSH1 0x40 MLOAD DUP1 DUP4 SUB DUP2 DUP6 DUP8 GAS CALL SWAP3 POP POP POP RETURNDATASIZE DUP1 PUSH0 DUP2 EQ PUSH2 0x659 JUMPI PUSH1 0x40 MLOAD SWAP2 POP PUSH1 0x1F NOT PUSH1 0x3F RETURNDATASIZE ADD AND DUP3 ADD PUSH1 0x40 MSTORE RETURNDATASIZE DUP3 MSTORE RETURNDATASIZE PUSH0 PUSH1 0x20 DUP5 ADD RETURNDATACOPY PUSH2 0x65E JUMP JUMPDEST PUSH1 0x60 SWAP2 POP JUMPDEST POP POP SWAP1 POP DUP1 PUSH2 0x6A2 JUMPI PUSH1 0x40 MLOAD PUSH32 0x8C379A000000000000000000000000000000000000000000000000000000000 DUP2 MSTORE PUSH1 0x4 ADD PUSH2 0x699 SWAP1 PUSH2 0x1128 JUMP JUMPDEST PUSH1 0x40 MLOAD DUP1 SWAP2 SUB SWAP1 REVERT JUMPDEST POP POP JUMP JUMPDEST PUSH0 CALLVALUE GT PUSH2 0x6E8 JUMPI PUSH1 0x40 MLOAD PUSH32 0x8C379A000000000000000000000000000000000000000000000000000000000 DUP2 MSTORE PUSH1 0x4 ADD PUSH2 0x6DF SWAP1 PUSH2 0x11B6 JUMP JUMPDEST PUSH1 0x40 MLOAD DUP1 SWAP2 SUB SWAP1 REVERT JUMPDEST CALLVALUE PUSH1 0x5 PUSH0 CALLER PUSH20 0xFFFFFFFFFFFFFFFFFFFFFFFFFFFFFFFFFFFFFFFF AND PUSH20 0xFFFFFFFFFFFFFFFFFFFFFFFFFFFFFFFFFFFFFFFF AND DUP2 MSTORE PUSH1 0x20 ADD SWAP1 DUP2 MSTORE PUSH1 0x20 ADD PUSH0 KECCAK256 PUSH0 DUP3 DUP3 SLOAD PUSH2 0x734 SWAP2 SWAP1 PUSH2 0xEAA JUMP JUMPDEST SWAP3 POP POP DUP2 SWAP1 SSTORE POP JUMP JUMPDEST PUSH1 0x1 SLOAD DUP2 JUMP JUMPDEST PUSH1 0x2 PUSH1 0x20 MSTORE DUP1 PUSH0 MSTORE PUSH1 0x40 PUSH0 KECCAK256 PUSH0 SWAP2 POP SWAP1 POP SLOAD DUP2 JUMP JUMPDEST PUSH0 DUP2 GT PUSH2 0x79A JUMPI PUSH1 0x40 MLOAD PUSH32 0x8C379A000000000000000000000000000000000000000000000000000000000 DUP2 MSTORE PUSH1 0x4 ADD PUSH2 0x791 SWAP1 PUSH2 0x1244 JUMP JUMPDEST PUSH1 0x40 MLOAD DUP1 SWAP2 SUB SWAP1 REVERT JUMPDEST DUP1 PUSH1 0x2 PUSH0 CALLER PUSH20 0xFFFFFFFFFFFFFFFFFFFFFFFFFFFFFFFFFFFFFFFF AND PUSH20 0xFFFFFFFFFFFFFFFFFFFFFFFFFFFFFFFFFFFFFFFF AND DUP2 MSTORE PUSH1 0x20 ADD SWAP1 DUP2 MSTORE PUSH1 0x20 ADD PUSH0 KECCAK256 PUSH0 DUP3 DUP3 SLOAD PUSH2 0x7E6 SWAP2 SWAP1 PUSH2 0xEAA JUMP JUMPDEST SWAP3 POP POP DUP2 SWAP1 SSTORE POP PUSH0 PUSH0 SWAP1 SLOAD SWAP1 PUSH2 0x100 EXP SWAP1 DIV PUSH20 0xFFFFFFFFFFFFFFFFFFFFFFFFFFFFFFFFFFFFFFFF AND PUSH20 0xFFFFFFFFFFFFFFFFFFFFFFFFFFFFFFFFFFFFFFFF AND PUSH4 0x23B872DD CALLER ADDRESS DUP5 PUSH1 0x40 MLOAD DUP5 PUSH4 0xFFFFFFFF AND PUSH1 0xE0 SHL DUP2 MSTORE PUSH1 0x4 ADD PUSH2 0x84A SWAP4 SWAP3 SWAP2 SWAP1 PUSH2 0xEEC JUMP JUMPDEST PUSH1 0x20 PUSH1 0x40 MLOAD DUP1 DUP4 SUB DUP2 PUSH0 DUP8 GAS CALL ISZERO DUP1 ISZERO PUSH2 0x866 JUMPI RETURNDATASIZE PUSH0 PUSH0 RETURNDATACOPY RETURNDATASIZE PUSH0 REVERT JUMPDEST POP POP POP POP PUSH1 0x40 MLOAD RETURNDATASIZE PUSH1 0x1F NOT PUSH1 0x1F DUP3 ADD AND DUP3 ADD DUP1 PUSH1 0x40 MSTORE POP DUP2 ADD SWAP1 PUSH2 0x88A SWAP2 SWAP1 PUSH2 0xF56 JUMP JUMPDEST POP POP JUMP JUMPDEST PUSH1 0x3 PUSH1 0x20 MSTORE DUP1 PUSH0 MSTORE PUSH1 0x40 PUSH0 KECCAK256 PUSH0 SWAP2 POP SWAP1 POP SLOAD DUP2 JUMP JUMPDEST PUSH0 DUP2 GT PUSH2 0x8E5 JUMPI PUSH1 0x40 MLOAD PUSH32 0x8C379A000000000000000000000000000000000000000000000000000000000 DUP2 MSTORE PUSH1 0x4 ADD PUSH2 0x8DC SWAP1 PUSH2 0x12D2 JUMP JUMPDEST PUSH1 0x40 MLOAD DUP1 SWAP2 SUB SWAP1 REVERT JUMPDEST PUSH0 PUSH1 0x3 PUSH0 CALLER PUSH20 0xFFFFFFFFFFFFFFFFFFFFFFFFFFFFFFFFFFFFFFFF AND PUSH20 0xFFFFFFFFFFFFFFFFFFFFFFFFFFFFFFFFFFFFFFFF AND DUP2 MSTORE PUSH1 0x20 ADD SWAP1 DUP2 MSTORE PUSH1 0x20 ADD PUSH0 KECCAK256 SLOAD EQ PUSH2 0x964 JUMPI PUSH1 0x40 MLOAD PUSH32 0x8C379A000000000000000000000000000000000000000000000000000000000 DUP2 MSTORE PUSH1 0x4 ADD PUSH2 0x95B SWAP1 PUSH2 0x1360 JUMP JUMPDEST PUSH1 0x40 MLOAD DUP1 SWAP2 SUB SWAP1 REVERT JUMPDEST DUP1 PUSH0 PUSH0 SWAP1 SLOAD SWAP1 PUSH2 0x100 EXP SWAP1 DIV PUSH20 0xFFFFFFFFFFFFFFFFFFFFFFFFFFFFFFFFFFFFFFFF AND PUSH20 0xFFFFFFFFFFFFFFFFFFFFFFFFFFFFFFFFFFFFFFFF AND PUSH4 0x70A08231 ADDRESS PUSH1 0x40 MLOAD DUP3 PUSH4 0xFFFFFFFF AND PUSH1 0xE0 SHL DUP2 MSTORE PUSH1 0x4 ADD PUSH2 0x9BE SWAP2 SWAP1 PUSH2 0x137E JUMP JUMPDEST PUSH1 0x20 PUSH1 0x40 MLOAD DUP1 DUP4 SUB DUP2 DUP7 GAS STATICCALL ISZERO DUP1 ISZERO PUSH2 0x9D9 JUMPI RETURNDATASIZE PUSH0 PUSH0 RETURNDATACOPY RETURNDATASIZE PUSH0 REVERT JUMPDEST POP POP POP POP PUSH1 0x40 MLOAD RETURNDATASIZE PUSH1 0x1F NOT PUSH1 0x1F DUP3 ADD AND DUP3 ADD DUP1 PUSH1 0x40 MSTORE POP DUP2 ADD SWAP1 PUSH2 0x9FD SWAP2 SWAP1 PUSH2 0x13AB JUMP JUMPDEST LT ISZERO PUSH2 0xA3E JUMPI PUSH1 0x40 MLOAD PUSH32 0x8C379A000000000000000000000000000000000000000000000000000000000 DUP2 MSTORE PUSH1 0x4 ADD PUSH2 0xA35 SWAP1 PUSH2 0x1446 JUMP JUMPDEST PUSH1 0x40 MLOAD DUP1 SWAP2 SUB SWAP1 REVERT JUMPDEST PUSH0 PUSH1 0x5 PUSH0 CALLER PUSH20 0xFFFFFFFFFFFFFFFFFFFFFFFFFFFFFFFFFFFFFFFF AND PUSH20 0xFFFFFFFFFFFFFFFFFFFFFFFFFFFFFFFFFFFFFFFF AND DUP2 MSTORE PUSH1 0x20 ADD SWAP1 DUP2 MSTORE PUSH1 0x20 ADD PUSH0 KECCAK256 SLOAD GT PUSH2 0xABD JUMPI PUSH1 0x40 MLOAD PUSH32 0x8C379A000000000000000000000000000000000000000000000000000000000 DUP2 MSTORE PUSH1 0x4 ADD PUSH2 0xAB4 SWAP1 PUSH2 0x14AE JUMP JUMPDEST PUSH1 0x40 MLOAD DUP1 SWAP2 SUB SWAP1 REVERT JUMPDEST DUP1 PUSH1 0x3 PUSH0 CALLER PUSH20 0xFFFFFFFFFFFFFFFFFFFFFFFFFFFFFFFFFFFFFFFF AND PUSH20 0xFFFFFFFFFFFFFFFFFFFFFFFFFFFFFFFFFFFFFFFF AND DUP2 MSTORE PUSH1 0x20 ADD SWAP1 DUP2 MSTORE PUSH1 0x20 ADD PUSH0 KECCAK256 DUP2 SWAP1 SSTORE POP TIMESTAMP PUSH1 0x4 PUSH0 CALLER PUSH20 0xFFFFFFFFFFFFFFFFFFFFFFFFFFFFFFFFFFFFFFFF AND PUSH20 0xFFFFFFFFFFFFFFFFFFFFFFFFFFFFFFFFFFFFFFFF AND DUP2 MSTORE PUSH1 0x20 ADD SWAP1 DUP2 MSTORE PUSH1 0x20 ADD PUSH0 KECCAK256 DUP2 SWAP1 SSTORE POP PUSH0 PUSH0 SWAP1 SLOAD SWAP1 PUSH2 0x100 EXP SWAP1 DIV PUSH20 0xFFFFFFFFFFFFFFFFFFFFFFFFFFFFFFFFFFFFFFFF AND PUSH20 0xFFFFFFFFFFFFFFFFFFFFFFFFFFFFFFFFFFFFFFFF AND PUSH4 0xA9059CBB CALLER DUP4 PUSH1 0x40 MLOAD DUP4 PUSH4 0xFFFFFFFF AND PUSH1 0xE0 SHL DUP2 MSTORE PUSH1 0x4 ADD PUSH2 0xB9C SWAP3 SWAP2 SWAP1 PUSH2 0x14CC JUMP JUMPDEST PUSH1 0x20 PUSH1 0x40 MLOAD DUP1 DUP4 SUB DUP2 PUSH0 DUP8 GAS CALL ISZERO DUP1 ISZERO PUSH2 0xBB8 JUMPI RETURNDATASIZE PUSH0 PUSH0 RETURNDATACOPY RETURNDATASIZE PUSH0 REVERT JUMPDEST POP POP POP POP PUSH1 0x40 MLOAD RETURNDATASIZE PUSH1 0x1F NOT PUSH1 0x1F DUP3 ADD AND DUP3 ADD DUP1 PUSH1 0x40 MSTORE POP DUP2 ADD SWAP1 PUSH2 0xBDC SWAP2 SWAP1 PUSH2 0xF56 JUMP JUMPDEST POP POP JUMP JUMPDEST PUSH1 0x4 PUSH1 0x20 MSTORE DUP1 PUSH0 MSTORE PUSH1 0x40 PUSH0 KECCAK256 PUSH0 SWAP2 POP SWAP1 POP SLOAD DUP2 JUMP JUMPDEST PUSH0 PUSH0 SWAP1 SLOAD SWAP1 PUSH2 0x100 EXP SWAP1 DIV PUSH20 0xFFFFFFFFFFFFFFFFFFFFFFFFFFFFFFFFFFFFFFFF AND DUP2 JUMP JUMPDEST PUSH0 PUSH0 PUSH4 0xBBF81E00 DUP4 PUSH1 0x1 SLOAD DUP7 PUSH2 0xC2F SWAP2 SWAP1 PUSH2 0x14F3 JUMP JUMPDEST PUSH2 0xC39 SWAP2 SWAP1 PUSH2 0x14F3 JUMP JUMPDEST PUSH2 0xC43 SWAP2 SWAP1 PUSH2 0x1561 JUMP JUMPDEST SWAP1 POP DUP1 SWAP2 POP POP SWAP3 SWAP2 POP POP JUMP JUMPDEST PUSH0 PUSH0 REVERT JUMPDEST PUSH0 PUSH20 0xFFFFFFFFFFFFFFFFFFFFFFFFFFFFFFFFFFFFFFFF DUP3 AND SWAP1 POP SWAP2 SWAP1 POP JUMP JUMPDEST PUSH0 PUSH2 0xC7C DUP3 PUSH2 0xC53 JUMP JUMPDEST SWAP1 POP SWAP2 SWAP1 POP JUMP JUMPDEST PUSH2 0xC8C DUP2 PUSH2 0xC72 JUMP JUMPDEST DUP2 EQ PUSH2 0xC96 JUMPI PUSH0 PUSH0 REVERT JUMPDEST POP JUMP JUMPDEST PUSH0 DUP2 CALLDATALOAD SWAP1 POP PUSH2 0xCA7 DUP2 PUSH2 0xC83 JUMP JUMPDEST SWAP3 SWAP2 POP POP JUMP JUMPDEST PUSH0 PUSH1 0x20 DUP3 DUP5 SUB SLT ISZERO PUSH2 0xCC2 JUMPI PUSH2 0xCC1 PUSH2 0xC4F JUMP JUMPDEST JUMPDEST PUSH0 PUSH2 0xCCF DUP5 DUP3 DUP6 ADD PUSH2 0xC99 JUMP JUMPDEST SWAP2 POP POP SWAP3 SWAP2 POP POP JUMP JUMPDEST PUSH0 DUP2 SWAP1 POP SWAP2 SWAP1 POP JUMP JUMPDEST PUSH2 0xCEA DUP2 PUSH2 0xCD8 JUMP JUMPDEST DUP3 MSTORE POP POP JUMP JUMPDEST PUSH0 PUSH1 0x20 DUP3 ADD SWAP1 POP PUSH2 0xD03 PUSH0 DUP4 ADD DUP5 PUSH2 0xCE1 JUMP JUMPDEST SWAP3 SWAP2 POP POP JUMP JUMPDEST PUSH2 0xD12 DUP2 PUSH2 0xCD8 JUMP JUMPDEST DUP2 EQ PUSH2 0xD1C JUMPI PUSH0 PUSH0 REVERT JUMPDEST POP JUMP JUMPDEST PUSH0 DUP2 CALLDATALOAD SWAP1 POP PUSH2 0xD2D DUP2 PUSH2 0xD09 JUMP JUMPDEST SWAP3 SWAP2 POP POP JUMP JUMPDEST PUSH0 PUSH1 0x20 DUP3 DUP5 SUB SLT ISZERO PUSH2 0xD48 JUMPI PUSH2 0xD47 PUSH2 0xC4F JUMP JUMPDEST JUMPDEST PUSH0 PUSH2 0xD55 DUP5 DUP3 DUP6 ADD PUSH2 0xD1F JUMP JUMPDEST SWAP2 POP POP SWAP3 SWAP2 POP POP JUMP JUMPDEST PUSH0 DUP2 SWAP1 POP SWAP2 SWAP1 POP JUMP JUMPDEST PUSH0 PUSH2 0xD81 PUSH2 0xD7C PUSH2 0xD77 DUP5 PUSH2 0xC53 JUMP JUMPDEST PUSH2 0xD5E JUMP JUMPDEST PUSH2 0xC53 JUMP JUMPDEST SWAP1 POP SWAP2 SWAP1 POP JUMP JUMPDEST PUSH0 PUSH2 0xD92 DUP3 PUSH2 0xD67 JUMP JUMPDEST SWAP1 POP SWAP2 SWAP1 POP JUMP JUMPDEST PUSH0 PUSH2 0xDA3 DUP3 PUSH2 0xD88 JUMP JUMPDEST SWAP1 POP SWAP2 SWAP1 POP JUMP JUMPDEST PUSH2 0xDB3 DUP2 PUSH2 0xD99 JUMP JUMPDEST DUP3 MSTORE POP POP JUMP JUMPDEST PUSH0 PUSH1 0x20 DUP3 ADD SWAP1 POP PUSH2 0xDCC PUSH0 DUP4 ADD DUP5 PUSH2 0xDAA JUMP JUMPDEST SWAP3 SWAP2 POP POP JUMP JUMPDEST PUSH0 DUP3 DUP3 MSTORE PUSH1 0x20 DUP3 ADD SWAP1 POP SWAP3 SWAP2 POP POP JUMP JUMPDEST PUSH32 0x596F7520646F206E6F7420686176652061206C6F616E20746F20726570617900 PUSH0 DUP3 ADD MSTORE POP JUMP JUMPDEST PUSH0 PUSH2 0xE16 PUSH1 0x1F DUP4 PUSH2 0xDD2 JUMP JUMPDEST SWAP2 POP PUSH2 0xE21 DUP3 PUSH2 0xDE2 JUMP JUMPDEST PUSH1 0x20 DUP3 ADD SWAP1 POP SWAP2 SWAP1 POP JUMP JUMPDEST PUSH0 PUSH1 0x20 DUP3 ADD SWAP1 POP DUP2 DUP2 SUB PUSH0 DUP4 ADD MSTORE PUSH2 0xE43 DUP2 PUSH2 0xE0A JUMP JUMPDEST SWAP1 POP SWAP2 SWAP1 POP JUMP JUMPDEST PUSH32 0x4E487B7100000000000000000000000000000000000000000000000000000000 PUSH0 MSTORE PUSH1 0x11 PUSH1 0x4 MSTORE PUSH1 0x24 PUSH0 REVERT JUMPDEST PUSH0 PUSH2 0xE81 DUP3 PUSH2 0xCD8 JUMP JUMPDEST SWAP2 POP PUSH2 0xE8C DUP4 PUSH2 0xCD8 JUMP JUMPDEST SWAP3 POP DUP3 DUP3 SUB SWAP1 POP DUP2 DUP2 GT ISZERO PUSH2 0xEA4 JUMPI PUSH2 0xEA3 PUSH2 0xE4A JUMP JUMPDEST JUMPDEST SWAP3 SWAP2 POP POP JUMP JUMPDEST PUSH0 PUSH2 0xEB4 DUP3 PUSH2 0xCD8 JUMP JUMPDEST SWAP2 POP PUSH2 0xEBF DUP4 PUSH2 0xCD8 JUMP JUMPDEST SWAP3 POP DUP3 DUP3 ADD SWAP1 POP DUP1 DUP3 GT ISZERO PUSH2 0xED7 JUMPI PUSH2 0xED6 PUSH2 0xE4A JUMP JUMPDEST JUMPDEST SWAP3 SWAP2 POP POP JUMP JUMPDEST PUSH2 0xEE6 DUP2 PUSH2 0xC72 JUMP JUMPDEST DUP3 MSTORE POP POP JUMP JUMPDEST PUSH0 PUSH1 0x60 DUP3 ADD SWAP1 POP PUSH2 0xEFF PUSH0 DUP4 ADD DUP7 PUSH2 0xEDD JUMP JUMPDEST PUSH2 0xF0C PUSH1 0x20 DUP4 ADD DUP6 PUSH2 0xEDD JUMP JUMPDEST PUSH2 0xF19 PUSH1 0x40 DUP4 ADD DUP5 PUSH2 0xCE1 JUMP JUMPDEST SWAP5 SWAP4 POP POP POP POP JUMP JUMPDEST PUSH0 DUP2 ISZERO ISZERO SWAP1 POP SWAP2 SWAP1 POP JUMP JUMPDEST PUSH2 0xF35 DUP2 PUSH2 0xF21 JUMP JUMPDEST DUP2 EQ PUSH2 0xF3F JUMPI PUSH0 PUSH0 REVERT JUMPDEST POP JUMP JUMPDEST PUSH0 DUP2 MLOAD SWAP1 POP PUSH2 0xF50 DUP2 PUSH2 0xF2C JUMP JUMPDEST SWAP3 SWAP2 POP POP JUMP JUMPDEST PUSH0 PUSH1 0x20 DUP3 DUP5 SUB SLT ISZERO PUSH2 0xF6B JUMPI PUSH2 0xF6A PUSH2 0xC4F JUMP JUMPDEST JUMPDEST PUSH0 PUSH2 0xF78 DUP5 DUP3 DUP6 ADD PUSH2 0xF42 JUMP JUMPDEST SWAP2 POP POP SWAP3 SWAP2 POP POP JUMP JUMPDEST PUSH32 0x5769746864726177616C20616D6F756E74206578636565647320636F6C6C6174 PUSH0 DUP3 ADD MSTORE PUSH32 0x6572616C2062616C616E63650000000000000000000000000000000000000000 PUSH1 0x20 DUP3 ADD MSTORE POP JUMP JUMPDEST PUSH0 PUSH2 0xFDB PUSH1 0x2C DUP4 PUSH2 0xDD2 JUMP JUMPDEST SWAP2 POP PUSH2 0xFE6 DUP3 PUSH2 0xF81 JUMP JUMPDEST PUSH1 0x40 DUP3 ADD SWAP1 POP SWAP2 SWAP1 POP JUMP JUMPDEST PUSH0 PUSH1 0x20 DUP3 ADD SWAP1 POP DUP2 DUP2 SUB PUSH0 DUP4 ADD MSTORE PUSH2 0x1008 DUP2 PUSH2 0xFCF JUMP JUMPDEST SWAP1 POP SWAP2 SWAP1 POP JUMP JUMPDEST PUSH32 0x43616E6E6F7420776974686472617720636F6C6C61746572616C207769746820 PUSH0 DUP3 ADD MSTORE PUSH32 0x616E206F75747374616E64696E67206C6F616E00000000000000000000000000 PUSH1 0x20 DUP3 ADD MSTORE POP JUMP JUMPDEST PUSH0 PUSH2 0x1069 PUSH1 0x33 DUP4 PUSH2 0xDD2 JUMP JUMPDEST SWAP2 POP PUSH2 0x1074 DUP3 PUSH2 0x100F JUMP JUMPDEST PUSH1 0x40 DUP3 ADD SWAP1 POP SWAP2 SWAP1 POP JUMP JUMPDEST PUSH0 PUSH1 0x20 DUP3 ADD SWAP1 POP DUP2 DUP2 SUB PUSH0 DUP4 ADD MSTORE PUSH2 0x1096 DUP2 PUSH2 0x105D JUMP JUMPDEST SWAP1 POP SWAP2 SWAP1 POP JUMP JUMPDEST PUSH0 DUP2 SWAP1 POP SWAP3 SWAP2 POP POP JUMP JUMPDEST POP JUMP JUMPDEST PUSH0 PUSH2 0x10B5 PUSH0 DUP4 PUSH2 0x109D JUMP JUMPDEST SWAP2 POP PUSH2 0x10C0 DUP3 PUSH2 0x10A7 JUMP JUMPDEST PUSH0 DUP3 ADD SWAP1 POP SWAP2 SWAP1 POP JUMP JUMPDEST PUSH0 PUSH2 0x10D4 DUP3 PUSH2 0x10AA JUMP JUMPDEST SWAP2 POP DUP2 SWAP1 POP SWAP2 SWAP1 POP JUMP JUMPDEST PUSH32 0x4661696C656420746F2073656E64204574686572000000000000000000000000 PUSH0 DUP3 ADD MSTORE POP JUMP JUMPDEST PUSH0 PUSH2 0x1112 PUSH1 0x14 DUP4 PUSH2 0xDD2 JUMP JUMPDEST SWAP2 POP PUSH2 0x111D DUP3 PUSH2 0x10DE JUMP JUMPDEST PUSH1 0x20 DUP3 ADD SWAP1 POP SWAP2 SWAP1 POP JUMP JUMPDEST PUSH0 PUSH1 0x20 DUP3 ADD SWAP1 POP DUP2 DUP2 SUB PUSH0 DUP4 ADD MSTORE PUSH2 0x113F DUP2 PUSH2 0x1106 JUMP JUMPDEST SWAP1 POP SWAP2 SWAP1 POP JUMP JUMPDEST PUSH32 0x436F6C6C61746572616C206465706F736974206D757374206265206772656174 PUSH0 DUP3 ADD MSTORE PUSH32 0x6572207468616E207A65726F0000000000000000000000000000000000000000 PUSH1 0x20 DUP3 ADD MSTORE POP JUMP JUMPDEST PUSH0 PUSH2 0x11A0 PUSH1 0x2C DUP4 PUSH2 0xDD2 JUMP JUMPDEST SWAP2 POP PUSH2 0x11AB DUP3 PUSH2 0x1146 JUMP JUMPDEST PUSH1 0x40 DUP3 ADD SWAP1 POP SWAP2 SWAP1 POP JUMP JUMPDEST PUSH0 PUSH1 0x20 DUP3 ADD SWAP1 POP DUP2 DUP2 SUB PUSH0 DUP4 ADD MSTORE PUSH2 0x11CD DUP2 PUSH2 0x1194 JUMP JUMPDEST SWAP1 POP SWAP2 SWAP1 POP JUMP JUMPDEST PUSH32 0x4C656E6420616D6F756E74206D7573742062652067726561746572207468616E PUSH0 DUP3 ADD MSTORE PUSH32 0x207A65726F000000000000000000000000000000000000000000000000000000 PUSH1 0x20 DUP3 ADD MSTORE POP JUMP JUMPDEST PUSH0 PUSH2 0x122E PUSH1 0x25 DUP4 PUSH2 0xDD2 JUMP JUMPDEST SWAP2 POP PUSH2 0x1239 DUP3 PUSH2 0x11D4 JUMP JUMPDEST PUSH1 0x40 DUP3 ADD SWAP1 POP SWAP2 SWAP1 POP JUMP JUMPDEST PUSH0 PUSH1 0x20 DUP3 ADD SWAP1 POP DUP2 DUP2 SUB PUSH0 DUP4 ADD MSTORE PUSH2 0x125B DUP2 PUSH2 0x1222 JUMP JUMPDEST SWAP1 POP SWAP2 SWAP1 POP JUMP JUMPDEST PUSH32 0x426F72726F7720616D6F756E74206D7573742062652067726561746572207468 PUSH0 DUP3 ADD MSTORE PUSH32 0x616E207A65726F00000000000000000000000000000000000000000000000000 PUSH1 0x20 DUP3 ADD MSTORE POP JUMP JUMPDEST PUSH0 PUSH2 0x12BC PUSH1 0x27 DUP4 PUSH2 0xDD2 JUMP JUMPDEST SWAP2 POP PUSH2 0x12C7 DUP3 PUSH2 0x1262 JUMP JUMPDEST PUSH1 0x40 DUP3 ADD SWAP1 POP SWAP2 SWAP1 POP JUMP JUMPDEST PUSH0 PUSH1 0x20 DUP3 ADD SWAP1 POP DUP2 DUP2 SUB PUSH0 DUP4 ADD MSTORE PUSH2 0x12E9 DUP2 PUSH2 0x12B0 JUMP JUMPDEST SWAP1 POP SWAP2 SWAP1 POP JUMP JUMPDEST PUSH32 0x596F7520616C7265616479206861766520616E206F75747374616E64696E6720 PUSH0 DUP3 ADD MSTORE PUSH32 0x6C6F616E00000000000000000000000000000000000000000000000000000000 PUSH1 0x20 DUP3 ADD MSTORE POP JUMP JUMPDEST PUSH0 PUSH2 0x134A PUSH1 0x24 DUP4 PUSH2 0xDD2 JUMP JUMPDEST SWAP2 POP PUSH2 0x1355 DUP3 PUSH2 0x12F0 JUMP JUMPDEST PUSH1 0x40 DUP3 ADD SWAP1 POP SWAP2 SWAP1 POP JUMP JUMPDEST PUSH0 PUSH1 0x20 DUP3 ADD SWAP1 POP DUP2 DUP2 SUB PUSH0 DUP4 ADD MSTORE PUSH2 0x1377 DUP2 PUSH2 0x133E JUMP JUMPDEST SWAP1 POP SWAP2 SWAP1 POP JUMP JUMPDEST PUSH0 PUSH1 0x20 DUP3 ADD SWAP1 POP PUSH2 0x1391 PUSH0 DUP4 ADD DUP5 PUSH2 0xEDD JUMP JUMPDEST SWAP3 SWAP2 POP POP JUMP JUMPDEST PUSH0 DUP2 MLOAD SWAP1 POP PUSH2 0x13A5 DUP2 PUSH2 0xD09 JUMP JUMPDEST SWAP3 SWAP2 POP POP JUMP JUMPDEST PUSH0 PUSH1 0x20 DUP3 DUP5 SUB SLT ISZERO PUSH2 0x13C0 JUMPI PUSH2 0x13BF PUSH2 0xC4F JUMP JUMPDEST JUMPDEST PUSH0 PUSH2 0x13CD DUP5 DUP3 DUP6 ADD PUSH2 0x1397 JUMP JUMPDEST SWAP2 POP POP SWAP3 SWAP2 POP POP JUMP JUMPDEST PUSH32 0x4E6F7420656E6F75676820746F6B656E7320696E2074686520706C6174666F72 PUSH0 DUP3 ADD MSTORE PUSH32 0x6D00000000000000000000000000000000000000000000000000000000000000 PUSH1 0x20 DUP3 ADD MSTORE POP JUMP JUMPDEST PUSH0 PUSH2 0x1430 PUSH1 0x21 DUP4 PUSH2 0xDD2 JUMP JUMPDEST SWAP2 POP PUSH2 0x143B DUP3 PUSH2 0x13D6 JUMP JUMPDEST PUSH1 0x40 DUP3 ADD SWAP1 POP SWAP2 SWAP1 POP JUMP JUMPDEST PUSH0 PUSH1 0x20 DUP3 ADD SWAP1 POP DUP2 DUP2 SUB PUSH0 DUP4 ADD MSTORE PUSH2 0x145D DUP2 PUSH2 0x1424 JUMP JUMPDEST SWAP1 POP SWAP2 SWAP1 POP JUMP JUMPDEST PUSH32 0x4E6F20636F6C6C61746572616C206465706F7369746564000000000000000000 PUSH0 DUP3 ADD MSTORE POP JUMP JUMPDEST PUSH0 PUSH2 0x1498 PUSH1 0x17 DUP4 PUSH2 0xDD2 JUMP JUMPDEST SWAP2 POP PUSH2 0x14A3 DUP3 PUSH2 0x1464 JUMP JUMPDEST PUSH1 0x20 DUP3 ADD SWAP1 POP SWAP2 SWAP1 POP JUMP JUMPDEST PUSH0 PUSH1 0x20 DUP3 ADD SWAP1 POP DUP2 DUP2 SUB PUSH0 DUP4 ADD MSTORE PUSH2 0x14C5 DUP2 PUSH2 0x148C JUMP JUMPDEST SWAP1 POP SWAP2 SWAP1 POP JUMP JUMPDEST PUSH0 PUSH1 0x40 DUP3 ADD SWAP1 POP PUSH2 0x14DF PUSH0 DUP4 ADD DUP6 PUSH2 0xEDD JUMP JUMPDEST PUSH2 0x14EC PUSH1 0x20 DUP4 ADD DUP5 PUSH2 0xCE1 JUMP JUMPDEST SWAP4 SWAP3 POP POP POP JUMP JUMPDEST PUSH0 PUSH2 0x14FD DUP3 PUSH2 0xCD8 JUMP JUMPDEST SWAP2 POP PUSH2 0x1508 DUP4 PUSH2 0xCD8 JUMP JUMPDEST SWAP3 POP DUP3 DUP3 MUL PUSH2 0x1516 DUP2 PUSH2 0xCD8 JUMP JUMPDEST SWAP2 POP DUP3 DUP3 DIV DUP5 EQ DUP4 ISZERO OR PUSH2 0x152D JUMPI PUSH2 0x152C PUSH2 0xE4A JUMP JUMPDEST JUMPDEST POP SWAP3 SWAP2 POP POP JUMP JUMPDEST PUSH32 0x4E487B7100000000000000000000000000000000000000000000000000000000 PUSH0 MSTORE PUSH1 0x12 PUSH1 0x4 MSTORE PUSH1 0x24 PUSH0 REVERT JUMPDEST PUSH0 PUSH2 0x156B DUP3 PUSH2 0xCD8 JUMP JUMPDEST SWAP2 POP PUSH2 0x1576 DUP4 PUSH2 0xCD8 JUMP JUMPDEST SWAP3 POP DUP3 PUSH2 0x1586 JUMPI PUSH2 0x1585 PUSH2 0x1534 JUMP JUMPDEST JUMPDEST DUP3 DUP3 DIV SWAP1 POP SWAP3 SWAP2 POP POP JUMP INVALID LOG2 PUSH5 0x6970667358 0x22 SLT KECCAK256 SWAP3 SWAP10 0xC9 PUSH30 0xC4FC04A2B99C4581F2FC69FDCAC5944A00E62696B99F682DBA58B26D6473 PUSH16 0x6C634300081E00330000000000000000 "
				},
				"gasEstimates": {
					"creation": {
						"codeDepositCost": "1115000",
						"executionCost": "infinite",
						"totalCost": "infinite"
					},
					"external": {
						"borrow(uint256)": "infinite",
						"borrowStartTime(address)": "2890",
						"borrowingBalance(address)": "2846",
						"depositCollateral()": "infinite",
						"ethCollateral(address)": "2803",
						"interestRate()": "2514",
						"lend(uint256)": "infinite",
						"lendingBalance(address)": "2802",
						"repay()": "infinite",
						"token()": "infinite",
						"withdrawCollateral(uint256)": "infinite"
					},
					"internal": {
						"calculateInterest(uint256,uint256)": "infinite"
					}
				},
				"methodIdentifiers": {
					"borrow(uint256)": "c5ebeaec",
					"borrowStartTime(address)": "dad919ec",
					"borrowingBalance(address)": "b750333e",
					"depositCollateral()": "6f758140",
					"ethCollateral(address)": "1c8c16fb",
					"interestRate()": "7c3a00fd",
					"lend(uint256)": "a6aa57ce",
					"lendingBalance(address)": "7f10883b",
					"repay()": "402d8883",
					"token()": "fc0c546a",
					"withdrawCollateral(uint256)": "6112fe2e"
				}
			},
			"storageLayout": {
				"storage": [
					{
						"astId": 84,
						"contract": "LendingPlatformWithCollateral.sol:LendingPlatformWithCollateral",
						"label": "token",
						"offset": 0,
						"slot": "0",
						"type": "t_contract(IERC20)77"
					},
					{
						"astId": 86,
						"contract": "LendingPlatformWithCollateral.sol:LendingPlatformWithCollateral",
						"label": "interestRate",
						"offset": 0,
						"slot": "1",
						"type": "t_uint256"
					},
					{
						"astId": 90,
						"contract": "LendingPlatformWithCollateral.sol:LendingPlatformWithCollateral",
						"label": "lendingBalance",
						"offset": 0,
						"slot": "2",
						"type": "t_mapping(t_address,t_uint256)"
					},
					{
						"astId": 94,
						"contract": "LendingPlatformWithCollateral.sol:LendingPlatformWithCollateral",
						"label": "borrowingBalance",
						"offset": 0,
						"slot": "3",
						"type": "t_mapping(t_address,t_uint256)"
					},
					{
						"astId": 98,
						"contract": "LendingPlatformWithCollateral.sol:LendingPlatformWithCollateral",
						"label": "borrowStartTime",
						"offset": 0,
						"slot": "4",
						"type": "t_mapping(t_address,t_uint256)"
					},
					{
						"astId": 103,
						"contract": "LendingPlatformWithCollateral.sol:LendingPlatformWithCollateral",
						"label": "ethCollateral",
						"offset": 0,
						"slot": "5",
						"type": "t_mapping(t_address,t_uint256)"
					}
				],
				"types": {
					"t_address": {
						"encoding": "inplace",
						"label": "address",
						"numberOfBytes": "20"
					},
					"t_contract(IERC20)77": {
						"encoding": "inplace",
						"label": "contract IERC20",
						"numberOfBytes": "20"
					},
					"t_mapping(t_address,t_uint256)": {
						"encoding": "mapping",
						"key": "t_address",
						"label": "mapping(address => uint256)",
						"numberOfBytes": "32",
						"value": "t_uint256"
					},
					"t_uint256": {
						"encoding": "inplace",
						"label": "uint256",
						"numberOfBytes": "32"
					}
				}
			},
			"userdoc": {
				"kind": "user",
				"methods": {
					"borrow(uint256)": {
						"notice": "Allows a user with collateral to borrow tokens from the platform."
					},
					"depositCollateral()": {
						"notice": "Allows a user to deposit ETH to be used as collateral."
					},
					"ethCollateral(address)": {
						"notice": "New mapping to track the ETH collateral deposited by each user."
					},
					"lend(uint256)": {
						"notice": "Allows a user to lend tokens to the platform."
					},
					"repay()": {
						"notice": "Repays an outstanding loan along with accrued interest."
					},
					"withdrawCollateral(uint256)": {
						"notice": "Allows a user to withdraw their deposited ETH collateral."
					}
				},
				"version": 1
			}
		}
	}
}