{
	"LendingPlatform.sol": {
		"LendingPlatform": {
			"abi": [
				{
					"inputs": [
						{
							"internalType": "contract IERC20",
							"name": "_token",
							"type": "address"
						},
						{
							"internalType": "uint256",
							"name": "_interestRate",
							"type": "uint256"
						}
					],
					"stateMutability": "nonpayable",
					"type": "constructor"
				},
				{
					"inputs": [
						{
							"internalType": "uint256",
							"name": "_amount",
							"type": "uint256"
						}
					],
					"name": "borrow",
					"outputs": [],
					"stateMutability": "nonpayable",
					"type": "function"
				},
				{
					"inputs": [
						{
							"internalType": "address",
							"name": "",
							"type": "address"
						}
					],
					"name": "borrowStartTime",
					"outputs": [
						{
							"internalType": "uint256",
							"name": "",
							"type": "uint256"
						}
					],
					"stateMutability": "view",
					"type": "function"
				},
				{
					"inputs": [
						{
							"internalType": "address",
							"name": "",
							"type": "address"
						}
					],
					"name": "borrowingBalance",
					"outputs": [
						{
							"internalType": "uint256",
							"name": "",
							"type": "uint256"
						}
					],
					"stateMutability": "view",
					"type": "function"
				},
				{
					"inputs": [],
					"name": "interestRate",
					"outputs": [
						{
							"internalType": "uint256",
							"name": "",
							"type": "uint256"
						}
					],
					"stateMutability": "view",
					"type": "function"
				},
				{
					"inputs": [
						{
							"internalType": "uint256",
							"name": "_amount",
							"type": "uint256"
						}
					],
					"name": "lend",
					"outputs": [],
					"stateMutability": "nonpayable",
					"type": "function"
				},
				{
					"inputs": [
						{
							"internalType": "address",
							"name": "",
							"type": "address"
						}
					],
					"name": "lendingBalance",
					"outputs": [
						{
							"internalType": "uint256",
							"name": "",
							"type": "uint256"
						}
					],
					"stateMutability": "view",
					"type": "function"
				},
				{
					"inputs": [],
					"name": "repay",
					"outputs": [],
					"stateMutability": "nonpayable",
					"type": "function"
				},
				{
					"inputs": [],
					"name": "token",
					"outputs": [
						{
							"internalType": "contract IERC20",
							"name": "",
							"type": "address"
						}
					],
					"stateMutability": "view",
					"type": "function"
				}
			],
			"devdoc": {
				"details": "A simple platform for lending and borrowing a specific ERC20 token. Interest is calculated annually.",
				"kind": "dev",
				"methods": {
					"borrow(uint256)": {
						"details": "A user cannot borrow if they have an existing outstanding loan. The platform must have sufficient liquidity to cover the loan.",
						"params": {
							"_amount": "The amount of tokens to borrow."
						}
					},
					"constructor": {
						"details": "Initializes the contract by setting the token and interest rate.",
						"params": {
							"_interestRate": "The annual interest rate for loans (e.g., 5 for 5%).",
							"_token": "The contract address of the ERC20 token for lending/borrowing."
						}
					},
					"lend(uint256)": {
						"details": "The user must first approve this contract to spend their tokens. The function follows the checks-effects-interactions pattern for security.",
						"params": {
							"_amount": "The amount of tokens to lend."
						}
					},
					"repay()": {
						"details": "The user must first approve this contract to spend the total repayment amount. Resets the user's borrow balance and start time upon successful repayment."
					}
				},
				"stateVariables": {
					"borrowStartTime": {
						"details": "Used to calculate the duration of the loan for interest."
					},
					"interestRate": {
						"details": "Stored as a percentage, e.g., 5 for 5%."
					}
				},
				"title": "LendingPlatform",
				"version": 1
			},
			"evm": {
				"assembly": "    /* \"LendingPlatform.sol\":271:6238  contract LendingPlatform {... */\n  mstore(0x40, 0x80)\n    /* \"LendingPlatform.sol\":1471:1593  constructor(IERC20 _token, uint256 _interestRate) {... */\n  callvalue\n  dup1\n  iszero\n  tag_1\n  jumpi\n  revert(0x00, 0x00)\ntag_1:\n  pop\n  mload(0x40)\n  sub(codesize, bytecodeSize)\n  dup1\n  bytecodeSize\n  dup4\n  codecopy\n  dup2\n  dup2\n  add\n  0x40\n  mstore\n  dup2\n  add\n  swap1\n  tag_2\n  swap2\n  swap1\n  tag_3\n  jump\t// in\ntag_2:\n    /* \"LendingPlatform.sol\":1540:1546  _token */\n  dup2\n    /* \"LendingPlatform.sol\":1532:1537  token */\n  0x00\n  0x00\n    /* \"LendingPlatform.sol\":1532:1546  token = _token */\n  0x0100\n  exp\n  dup2\n  sload\n  dup2\n  0xffffffffffffffffffffffffffffffffffffffff\n  mul\n  not\n  and\n  swap1\n  dup4\n  0xffffffffffffffffffffffffffffffffffffffff\n  and\n  mul\n  or\n  swap1\n  sstore\n  pop\n    /* \"LendingPlatform.sol\":1572:1585  _interestRate */\n  dup1\n    /* \"LendingPlatform.sol\":1557:1569  interestRate */\n  0x01\n    /* \"LendingPlatform.sol\":1557:1585  interestRate = _interestRate */\n  dup2\n  swap1\n  sstore\n  pop\n    /* \"LendingPlatform.sol\":1471:1593  constructor(IERC20 _token, uint256 _interestRate) {... */\n  pop\n  pop\n    /* \"LendingPlatform.sol\":271:6238  contract LendingPlatform {... */\n  jump(tag_6)\n    /* \"#utility.yul\":88:205   */\ntag_8:\n    /* \"#utility.yul\":197:198   */\n  0x00\n    /* \"#utility.yul\":194:195   */\n  0x00\n    /* \"#utility.yul\":187:199   */\n  revert\n    /* \"#utility.yul\":334:460   */\ntag_10:\n    /* \"#utility.yul\":371:378   */\n  0x00\n    /* \"#utility.yul\":411:453   */\n  0xffffffffffffffffffffffffffffffffffffffff\n    /* \"#utility.yul\":404:409   */\n  dup3\n    /* \"#utility.yul\":400:454   */\n  and\n    /* \"#utility.yul\":389:454   */\n  swap1\n  pop\n    /* \"#utility.yul\":334:460   */\n  swap2\n  swap1\n  pop\n  jump\t// out\n    /* \"#utility.yul\":466:562   */\ntag_11:\n    /* \"#utility.yul\":503:510   */\n  0x00\n    /* \"#utility.yul\":532:556   */\n  tag_24\n    /* \"#utility.yul\":550:555   */\n  dup3\n    /* \"#utility.yul\":532:556   */\n  tag_10\n  jump\t// in\ntag_24:\n    /* \"#utility.yul\":521:556   */\n  swap1\n  pop\n    /* \"#utility.yul\":466:562   */\n  swap2\n  swap1\n  pop\n  jump\t// out\n    /* \"#utility.yul\":568:677   */\ntag_12:\n    /* \"#utility.yul\":618:625   */\n  0x00\n    /* \"#utility.yul\":647:671   */\n  tag_26\n    /* \"#utility.yul\":665:670   */\n  dup3\n    /* \"#utility.yul\":647:671   */\n  tag_11\n  jump\t// in\ntag_26:\n    /* \"#utility.yul\":636:671   */\n  swap1\n  pop\n    /* \"#utility.yul\":568:677   */\n  swap2\n  swap1\n  pop\n  jump\t// out\n    /* \"#utility.yul\":683:831   */\ntag_13:\n    /* \"#utility.yul\":769:806   */\n  tag_28\n    /* \"#utility.yul\":800:805   */\n  dup2\n    /* \"#utility.yul\":769:806   */\n  tag_12\n  jump\t// in\ntag_28:\n    /* \"#utility.yul\":762:767   */\n  dup2\n    /* \"#utility.yul\":759:807   */\n  eq\n    /* \"#utility.yul\":749:825   */\n  tag_29\n  jumpi\n    /* \"#utility.yul\":821:822   */\n  0x00\n    /* \"#utility.yul\":818:819   */\n  0x00\n    /* \"#utility.yul\":811:823   */\n  revert\n    /* \"#utility.yul\":749:825   */\ntag_29:\n    /* \"#utility.yul\":683:831   */\n  pop\n  jump\t// out\n    /* \"#utility.yul\":837:1006   */\ntag_14:\n    /* \"#utility.yul\":907:912   */\n  0x00\n    /* \"#utility.yul\":938:944   */\n  dup2\n    /* \"#utility.yul\":932:945   */\n  mload\n    /* \"#utility.yul\":923:945   */\n  swap1\n  pop\n    /* \"#utility.yul\":954:1000   */\n  tag_31\n    /* \"#utility.yul\":994:999   */\n  dup2\n    /* \"#utility.yul\":954:1000   */\n  tag_13\n  jump\t// in\ntag_31:\n    /* \"#utility.yul\":837:1006   */\n  swap3\n  swap2\n  pop\n  pop\n  jump\t// out\n    /* \"#utility.yul\":1012:1089   */\ntag_15:\n    /* \"#utility.yul\":1049:1056   */\n  0x00\n    /* \"#utility.yul\":1078:1083   */\n  dup2\n    /* \"#utility.yul\":1067:1083   */\n  swap1\n  pop\n    /* \"#utility.yul\":1012:1089   */\n  swap2\n  swap1\n  pop\n  jump\t// out\n    /* \"#utility.yul\":1095:1217   */\ntag_16:\n    /* \"#utility.yul\":1168:1192   */\n  tag_34\n    /* \"#utility.yul\":1186:1191   */\n  dup2\n    /* \"#utility.yul\":1168:1192   */\n  tag_15\n  jump\t// in\ntag_34:\n    /* \"#utility.yul\":1161:1166   */\n  dup2\n    /* \"#utility.yul\":1158:1193   */\n  eq\n    /* \"#utility.yul\":1148:1211   */\n  tag_35\n  jumpi\n    /* \"#utility.yul\":1207:1208   */\n  0x00\n    /* \"#utility.yul\":1204:1205   */\n  0x00\n    /* \"#utility.yul\":1197:1209   */\n  revert\n    /* \"#utility.yul\":1148:1211   */\ntag_35:\n    /* \"#utility.yul\":1095:1217   */\n  pop\n  jump\t// out\n    /* \"#utility.yul\":1223:1366   */\ntag_17:\n    /* \"#utility.yul\":1280:1285   */\n  0x00\n    /* \"#utility.yul\":1311:1317   */\n  dup2\n    /* \"#utility.yul\":1305:1318   */\n  mload\n    /* \"#utility.yul\":1296:1318   */\n  swap1\n  pop\n    /* \"#utility.yul\":1327:1360   */\n  tag_37\n    /* \"#utility.yul\":1354:1359   */\n  dup2\n    /* \"#utility.yul\":1327:1360   */\n  tag_16\n  jump\t// in\ntag_37:\n    /* \"#utility.yul\":1223:1366   */\n  swap3\n  swap2\n  pop\n  pop\n  jump\t// out\n    /* \"#utility.yul\":1372:1905   */\ntag_3:\n    /* \"#utility.yul\":1464:1470   */\n  0x00\n    /* \"#utility.yul\":1472:1478   */\n  0x00\n    /* \"#utility.yul\":1521:1523   */\n  0x40\n    /* \"#utility.yul\":1509:1518   */\n  dup4\n    /* \"#utility.yul\":1500:1507   */\n  dup6\n    /* \"#utility.yul\":1496:1519   */\n  sub\n    /* \"#utility.yul\":1492:1524   */\n  slt\n    /* \"#utility.yul\":1489:1608   */\n  iszero\n  tag_39\n  jumpi\n    /* \"#utility.yul\":1527:1606   */\n  tag_40\n  tag_8\n  jump\t// in\ntag_40:\n    /* \"#utility.yul\":1489:1608   */\ntag_39:\n    /* \"#utility.yul\":1647:1648   */\n  0x00\n    /* \"#utility.yul\":1672:1749   */\n  tag_41\n    /* \"#utility.yul\":1741:1748   */\n  dup6\n    /* \"#utility.yul\":1732:1738   */\n  dup3\n    /* \"#utility.yul\":1721:1730   */\n  dup7\n    /* \"#utility.yul\":1717:1739   */\n  add\n    /* \"#utility.yul\":1672:1749   */\n  tag_14\n  jump\t// in\ntag_41:\n    /* \"#utility.yul\":1662:1749   */\n  swap3\n  pop\n    /* \"#utility.yul\":1618:1759   */\n  pop\n    /* \"#utility.yul\":1798:1800   */\n  0x20\n    /* \"#utility.yul\":1824:1888   */\n  tag_42\n    /* \"#utility.yul\":1880:1887   */\n  dup6\n    /* \"#utility.yul\":1871:1877   */\n  dup3\n    /* \"#utility.yul\":1860:1869   */\n  dup7\n    /* \"#utility.yul\":1856:1878   */\n  add\n    /* \"#utility.yul\":1824:1888   */\n  tag_17\n  jump\t// in\ntag_42:\n    /* \"#utility.yul\":1814:1888   */\n  swap2\n  pop\n    /* \"#utility.yul\":1769:1898   */\n  pop\n    /* \"#utility.yul\":1372:1905   */\n  swap3\n  pop\n  swap3\n  swap1\n  pop\n  jump\t// out\n    /* \"LendingPlatform.sol\":271:6238  contract LendingPlatform {... */\ntag_6:\n  dataSize(sub_0)\n  dup1\n  dataOffset(sub_0)\n  0x00\n  codecopy\n  0x00\n  return\nstop\n\nsub_0: assembly {\n        /* \"LendingPlatform.sol\":271:6238  contract LendingPlatform {... */\n      mstore(0x40, 0x80)\n      callvalue\n      dup1\n      iszero\n      tag_1\n      jumpi\n      revert(0x00, 0x00)\n    tag_1:\n      pop\n      jumpi(tag_2, lt(calldatasize, 0x04))\n      shr(0xe0, calldataload(0x00))\n      dup1\n      0xb750333e\n      gt\n      tag_11\n      jumpi\n      dup1\n      0xb750333e\n      eq\n      tag_7\n      jumpi\n      dup1\n      0xc5ebeaec\n      eq\n      tag_8\n      jumpi\n      dup1\n      0xdad919ec\n      eq\n      tag_9\n      jumpi\n      dup1\n      0xfc0c546a\n      eq\n      tag_10\n      jumpi\n      jump(tag_2)\n    tag_11:\n      dup1\n      0x402d8883\n      eq\n      tag_3\n      jumpi\n      dup1\n      0x7c3a00fd\n      eq\n      tag_4\n      jumpi\n      dup1\n      0x7f10883b\n      eq\n      tag_5\n      jumpi\n      dup1\n      0xa6aa57ce\n      eq\n      tag_6\n      jumpi\n    tag_2:\n      revert(0x00, 0x00)\n        /* \"LendingPlatform.sol\":5028:6235  function repay() public {... */\n    tag_3:\n      tag_12\n      tag_13\n      jump\t// in\n    tag_12:\n      stop\n        /* \"LendingPlatform.sol\":594:621  uint256 public interestRate */\n    tag_4:\n      tag_14\n      tag_15\n      jump\t// in\n    tag_14:\n      mload(0x40)\n      tag_16\n      swap2\n      swap1\n      tag_17\n      jump\t// in\n    tag_16:\n      mload(0x40)\n      dup1\n      swap2\n      sub\n      swap1\n      return\n        /* \"LendingPlatform.sol\":726:775  mapping(address => uint256) public lendingBalance */\n    tag_5:\n      tag_18\n      0x04\n      dup1\n      calldatasize\n      sub\n      dup2\n      add\n      swap1\n      tag_19\n      swap2\n      swap1\n      tag_20\n      jump\t// in\n    tag_19:\n      tag_21\n      jump\t// in\n    tag_18:\n      mload(0x40)\n      tag_22\n      swap2\n      swap1\n      tag_17\n      jump\t// in\n    tag_22:\n      mload(0x40)\n      dup1\n      swap2\n      sub\n      swap1\n      return\n        /* \"LendingPlatform.sol\":1895:2547  function lend(uint256 _amount) public {... */\n    tag_6:\n      tag_23\n      0x04\n      dup1\n      calldatasize\n      sub\n      dup2\n      add\n      swap1\n      tag_24\n      swap2\n      swap1\n      tag_25\n      jump\t// in\n    tag_24:\n      tag_26\n      jump\t// in\n    tag_23:\n      stop\n        /* \"LendingPlatform.sol\":884:935  mapping(address => uint256) public borrowingBalance */\n    tag_7:\n      tag_27\n      0x04\n      dup1\n      calldatasize\n      sub\n      dup2\n      add\n      swap1\n      tag_28\n      swap2\n      swap1\n      tag_20\n      jump\t// in\n    tag_28:\n      tag_29\n      jump\t// in\n    tag_27:\n      mload(0x40)\n      tag_30\n      swap2\n      swap1\n      tag_17\n      jump\t// in\n    tag_30:\n      mload(0x40)\n      dup1\n      swap2\n      sub\n      swap1\n      return\n        /* \"LendingPlatform.sol\":2842:3767  function borrow(uint256 _amount) public {... */\n    tag_8:\n      tag_31\n      0x04\n      dup1\n      calldatasize\n      sub\n      dup2\n      add\n      swap1\n      tag_32\n      swap2\n      swap1\n      tag_25\n      jump\t// in\n    tag_32:\n      tag_33\n      jump\t// in\n    tag_31:\n      stop\n        /* \"LendingPlatform.sol\":1119:1169  mapping(address => uint256) public borrowStartTime */\n    tag_9:\n      tag_34\n      0x04\n      dup1\n      calldatasize\n      sub\n      dup2\n      add\n      swap1\n      tag_35\n      swap2\n      swap1\n      tag_20\n      jump\t// in\n    tag_35:\n      tag_36\n      jump\t// in\n    tag_34:\n      mload(0x40)\n      tag_37\n      swap2\n      swap1\n      tag_17\n      jump\t// in\n    tag_37:\n      mload(0x40)\n      dup1\n      swap2\n      sub\n      swap1\n      return\n        /* \"LendingPlatform.sol\":439:458  IERC20 public token */\n    tag_10:\n      tag_38\n      tag_39\n      jump\t// in\n    tag_38:\n      mload(0x40)\n      tag_40\n      swap2\n      swap1\n      tag_41\n      jump\t// in\n    tag_40:\n      mload(0x40)\n      dup1\n      swap2\n      sub\n      swap1\n      return\n        /* \"LendingPlatform.sol\":5028:6235  function repay() public {... */\n    tag_13:\n        /* \"LendingPlatform.sol\":5098:5120  uint256 borrowedAmount */\n      0x00\n        /* \"LendingPlatform.sol\":5123:5139  borrowingBalance */\n      0x03\n        /* \"LendingPlatform.sol\":5123:5151  borrowingBalance[msg.sender] */\n      0x00\n        /* \"LendingPlatform.sol\":5140:5150  msg.sender */\n      caller\n        /* \"LendingPlatform.sol\":5123:5151  borrowingBalance[msg.sender] */\n      0xffffffffffffffffffffffffffffffffffffffff\n      and\n      0xffffffffffffffffffffffffffffffffffffffff\n      and\n      dup2\n      mstore\n      0x20\n      add\n      swap1\n      dup2\n      mstore\n      0x20\n      add\n      0x00\n      keccak256\n      sload\n        /* \"LendingPlatform.sol\":5098:5151  uint256 borrowedAmount = borrowingBalance[msg.sender] */\n      swap1\n      pop\n        /* \"LendingPlatform.sol\":5162:5179  uint256 startTime */\n      0x00\n        /* \"LendingPlatform.sol\":5182:5197  borrowStartTime */\n      0x04\n        /* \"LendingPlatform.sol\":5182:5209  borrowStartTime[msg.sender] */\n      0x00\n        /* \"LendingPlatform.sol\":5198:5208  msg.sender */\n      caller\n        /* \"LendingPlatform.sol\":5182:5209  borrowStartTime[msg.sender] */\n      0xffffffffffffffffffffffffffffffffffffffff\n      and\n      0xffffffffffffffffffffffffffffffffffffffff\n      and\n      dup2\n      mstore\n      0x20\n      add\n      swap1\n      dup2\n      mstore\n      0x20\n      add\n      0x00\n      keccak256\n      sload\n        /* \"LendingPlatform.sol\":5162:5209  uint256 startTime = borrowStartTime[msg.sender] */\n      swap1\n      pop\n        /* \"LendingPlatform.sol\":5300:5301  0 */\n      0x00\n        /* \"LendingPlatform.sol\":5283:5297  borrowedAmount */\n      dup3\n        /* \"LendingPlatform.sol\":5283:5301  borrowedAmount > 0 */\n      gt\n        /* \"LendingPlatform.sol\":5275:5337  require(borrowedAmount > 0, \"You do not have a loan to repay\") */\n      tag_43\n      jumpi\n      mload(0x40)\n      0x08c379a000000000000000000000000000000000000000000000000000000000\n      dup2\n      mstore\n      0x04\n      add\n      tag_44\n      swap1\n      tag_45\n      jump\t// in\n    tag_44:\n      mload(0x40)\n      dup1\n      swap2\n      sub\n      swap1\n      revert\n    tag_43:\n        /* \"LendingPlatform.sol\":5437:5453  uint256 duration */\n      0x00\n        /* \"LendingPlatform.sol\":5474:5483  startTime */\n      dup2\n        /* \"LendingPlatform.sol\":5456:5471  block.timestamp */\n      timestamp\n        /* \"LendingPlatform.sol\":5456:5483  block.timestamp - startTime */\n      tag_46\n      swap2\n      swap1\n      tag_47\n      jump\t// in\n    tag_46:\n        /* \"LendingPlatform.sol\":5437:5483  uint256 duration = block.timestamp - startTime */\n      swap1\n      pop\n        /* \"LendingPlatform.sol\":5562:5578  uint256 interest */\n      0x00\n        /* \"LendingPlatform.sol\":5581:5624  calculateInterest(borrowedAmount, duration) */\n      tag_48\n        /* \"LendingPlatform.sol\":5599:5613  borrowedAmount */\n      dup5\n        /* \"LendingPlatform.sol\":5615:5623  duration */\n      dup4\n        /* \"LendingPlatform.sol\":5581:5598  calculateInterest */\n      tag_49\n        /* \"LendingPlatform.sol\":5581:5624  calculateInterest(borrowedAmount, duration) */\n      jump\t// in\n    tag_48:\n        /* \"LendingPlatform.sol\":5562:5624  uint256 interest = calculateInterest(borrowedAmount, duration) */\n      swap1\n      pop\n        /* \"LendingPlatform.sol\":5685:5707  uint256 totalRepayment */\n      0x00\n        /* \"LendingPlatform.sol\":5727:5735  interest */\n      dup2\n        /* \"LendingPlatform.sol\":5710:5724  borrowedAmount */\n      dup6\n        /* \"LendingPlatform.sol\":5710:5735  borrowedAmount + interest */\n      tag_50\n      swap2\n      swap1\n      tag_51\n      jump\t// in\n    tag_50:\n        /* \"LendingPlatform.sol\":5685:5735  uint256 totalRepayment = borrowedAmount + interest */\n      swap1\n      pop\n        /* \"LendingPlatform.sol\":5903:5904  0 */\n      0x00\n        /* \"LendingPlatform.sol\":5872:5888  borrowingBalance */\n      0x03\n        /* \"LendingPlatform.sol\":5872:5900  borrowingBalance[msg.sender] */\n      0x00\n        /* \"LendingPlatform.sol\":5889:5899  msg.sender */\n      caller\n        /* \"LendingPlatform.sol\":5872:5900  borrowingBalance[msg.sender] */\n      0xffffffffffffffffffffffffffffffffffffffff\n      and\n      0xffffffffffffffffffffffffffffffffffffffff\n      and\n      dup2\n      mstore\n      0x20\n      add\n      swap1\n      dup2\n      mstore\n      0x20\n      add\n      0x00\n      keccak256\n        /* \"LendingPlatform.sol\":5872:5904  borrowingBalance[msg.sender] = 0 */\n      dup2\n      swap1\n      sstore\n      pop\n        /* \"LendingPlatform.sol\":5945:5946  0 */\n      0x00\n        /* \"LendingPlatform.sol\":5915:5930  borrowStartTime */\n      0x04\n        /* \"LendingPlatform.sol\":5915:5942  borrowStartTime[msg.sender] */\n      0x00\n        /* \"LendingPlatform.sol\":5931:5941  msg.sender */\n      caller\n        /* \"LendingPlatform.sol\":5915:5942  borrowStartTime[msg.sender] */\n      0xffffffffffffffffffffffffffffffffffffffff\n      and\n      0xffffffffffffffffffffffffffffffffffffffff\n      and\n      dup2\n      mstore\n      0x20\n      add\n      swap1\n      dup2\n      mstore\n      0x20\n      add\n      0x00\n      keccak256\n        /* \"LendingPlatform.sol\":5915:5946  borrowStartTime[msg.sender] = 0 */\n      dup2\n      swap1\n      sstore\n      pop\n        /* \"LendingPlatform.sol\":6166:6171  token */\n      0x00\n      0x00\n      swap1\n      sload\n      swap1\n      0x0100\n      exp\n      swap1\n      div\n      0xffffffffffffffffffffffffffffffffffffffff\n      and\n        /* \"LendingPlatform.sol\":6166:6184  token.transferFrom */\n      0xffffffffffffffffffffffffffffffffffffffff\n      and\n      0x23b872dd\n        /* \"LendingPlatform.sol\":6185:6195  msg.sender */\n      caller\n        /* \"LendingPlatform.sol\":6205:6209  this */\n      address\n        /* \"LendingPlatform.sol\":6212:6226  totalRepayment */\n      dup5\n        /* \"LendingPlatform.sol\":6166:6227  token.transferFrom(msg.sender, address(this), totalRepayment) */\n      mload(0x40)\n      dup5\n      0xffffffff\n      and\n      0xe0\n      shl\n      dup2\n      mstore\n      0x04\n      add\n      tag_52\n      swap4\n      swap3\n      swap2\n      swap1\n      tag_53\n      jump\t// in\n    tag_52:\n      0x20\n      mload(0x40)\n      dup1\n      dup4\n      sub\n      dup2\n      0x00\n      dup8\n      gas\n      call\n      iszero\n      dup1\n      iszero\n      tag_55\n      jumpi\n      returndatacopy(0x00, 0x00, returndatasize)\n      revert(0x00, returndatasize)\n    tag_55:\n      pop\n      pop\n      pop\n      pop\n      mload(0x40)\n      returndatasize\n      not(0x1f)\n      0x1f\n      dup3\n      add\n      and\n      dup3\n      add\n      dup1\n      0x40\n      mstore\n      pop\n      dup2\n      add\n      swap1\n      tag_56\n      swap2\n      swap1\n      tag_57\n      jump\t// in\n    tag_56:\n      pop\n        /* \"LendingPlatform.sol\":5052:6235  {... */\n      pop\n      pop\n      pop\n      pop\n      pop\n        /* \"LendingPlatform.sol\":5028:6235  function repay() public {... */\n      jump\t// out\n        /* \"LendingPlatform.sol\":594:621  uint256 public interestRate */\n    tag_15:\n      sload(0x01)\n      dup2\n      jump\t// out\n        /* \"LendingPlatform.sol\":726:775  mapping(address => uint256) public lendingBalance */\n    tag_21:\n      mstore(0x20, 0x02)\n      dup1\n      0x00\n      mstore\n      keccak256(0x00, 0x40)\n      0x00\n      swap2\n      pop\n      swap1\n      pop\n      sload\n      dup2\n      jump\t// out\n        /* \"LendingPlatform.sol\":1895:2547  function lend(uint256 _amount) public {... */\n    tag_26:\n        /* \"LendingPlatform.sol\":2029:2030  0 */\n      0x00\n        /* \"LendingPlatform.sol\":2019:2026  _amount */\n      dup2\n        /* \"LendingPlatform.sol\":2019:2030  _amount > 0 */\n      gt\n        /* \"LendingPlatform.sol\":2011:2072  require(_amount > 0, \"Lend amount must be greater than zero\") */\n      tag_59\n      jumpi\n      mload(0x40)\n      0x08c379a000000000000000000000000000000000000000000000000000000000\n      dup2\n      mstore\n      0x04\n      add\n      tag_60\n      swap1\n      tag_61\n      jump\t// in\n    tag_60:\n      mload(0x40)\n      dup1\n      swap2\n      sub\n      swap1\n      revert\n    tag_59:\n        /* \"LendingPlatform.sol\":2190:2197  _amount */\n      dup1\n        /* \"LendingPlatform.sol\":2160:2174  lendingBalance */\n      0x02\n        /* \"LendingPlatform.sol\":2160:2186  lendingBalance[msg.sender] */\n      0x00\n        /* \"LendingPlatform.sol\":2175:2185  msg.sender */\n      caller\n        /* \"LendingPlatform.sol\":2160:2186  lendingBalance[msg.sender] */\n      0xffffffffffffffffffffffffffffffffffffffff\n      and\n      0xffffffffffffffffffffffffffffffffffffffff\n      and\n      dup2\n      mstore\n      0x20\n      add\n      swap1\n      dup2\n      mstore\n      0x20\n      add\n      0x00\n      keccak256\n      0x00\n        /* \"LendingPlatform.sol\":2160:2197  lendingBalance[msg.sender] += _amount */\n      dup3\n      dup3\n      sload\n      tag_62\n      swap2\n      swap1\n      tag_51\n      jump\t// in\n    tag_62:\n      swap3\n      pop\n      pop\n      dup2\n      swap1\n      sstore\n      pop\n        /* \"LendingPlatform.sol\":2485:2490  token */\n      0x00\n      0x00\n      swap1\n      sload\n      swap1\n      0x0100\n      exp\n      swap1\n      div\n      0xffffffffffffffffffffffffffffffffffffffff\n      and\n        /* \"LendingPlatform.sol\":2485:2503  token.transferFrom */\n      0xffffffffffffffffffffffffffffffffffffffff\n      and\n      0x23b872dd\n        /* \"LendingPlatform.sol\":2504:2514  msg.sender */\n      caller\n        /* \"LendingPlatform.sol\":2524:2528  this */\n      address\n        /* \"LendingPlatform.sol\":2531:2538  _amount */\n      dup5\n        /* \"LendingPlatform.sol\":2485:2539  token.transferFrom(msg.sender, address(this), _amount) */\n      mload(0x40)\n      dup5\n      0xffffffff\n      and\n      0xe0\n      shl\n      dup2\n      mstore\n      0x04\n      add\n      tag_63\n      swap4\n      swap3\n      swap2\n      swap1\n      tag_53\n      jump\t// in\n    tag_63:\n      0x20\n      mload(0x40)\n      dup1\n      dup4\n      sub\n      dup2\n      0x00\n      dup8\n      gas\n      call\n      iszero\n      dup1\n      iszero\n      tag_65\n      jumpi\n      returndatacopy(0x00, 0x00, returndatasize)\n      revert(0x00, returndatasize)\n    tag_65:\n      pop\n      pop\n      pop\n      pop\n      mload(0x40)\n      returndatasize\n      not(0x1f)\n      0x1f\n      dup3\n      add\n      and\n      dup3\n      add\n      dup1\n      0x40\n      mstore\n      pop\n      dup2\n      add\n      swap1\n      tag_66\n      swap2\n      swap1\n      tag_57\n      jump\t// in\n    tag_66:\n      pop\n        /* \"LendingPlatform.sol\":1895:2547  function lend(uint256 _amount) public {... */\n      pop\n      jump\t// out\n        /* \"LendingPlatform.sol\":884:935  mapping(address => uint256) public borrowingBalance */\n    tag_29:\n      mstore(0x20, 0x03)\n      dup1\n      0x00\n      mstore\n      keccak256(0x00, 0x40)\n      0x00\n      swap2\n      pop\n      swap1\n      pop\n      sload\n      dup2\n      jump\t// out\n        /* \"LendingPlatform.sol\":2842:3767  function borrow(uint256 _amount) public {... */\n    tag_33:\n        /* \"LendingPlatform.sol\":3000:3001  0 */\n      0x00\n        /* \"LendingPlatform.sol\":2990:2997  _amount */\n      dup2\n        /* \"LendingPlatform.sol\":2990:3001  _amount > 0 */\n      gt\n        /* \"LendingPlatform.sol\":2982:3045  require(_amount > 0, \"Borrow amount must be greater than zero\") */\n      tag_68\n      jumpi\n      mload(0x40)\n      0x08c379a000000000000000000000000000000000000000000000000000000000\n      dup2\n      mstore\n      0x04\n      add\n      tag_69\n      swap1\n      tag_70\n      jump\t// in\n    tag_69:\n      mload(0x40)\n      dup1\n      swap2\n      sub\n      swap1\n      revert\n    tag_68:\n        /* \"LendingPlatform.sol\":3156:3157  0 */\n      0x00\n        /* \"LendingPlatform.sol\":3124:3140  borrowingBalance */\n      0x03\n        /* \"LendingPlatform.sol\":3124:3152  borrowingBalance[msg.sender] */\n      0x00\n        /* \"LendingPlatform.sol\":3141:3151  msg.sender */\n      caller\n        /* \"LendingPlatform.sol\":3124:3152  borrowingBalance[msg.sender] */\n      0xffffffffffffffffffffffffffffffffffffffff\n      and\n      0xffffffffffffffffffffffffffffffffffffffff\n      and\n      dup2\n      mstore\n      0x20\n      add\n      swap1\n      dup2\n      mstore\n      0x20\n      add\n      0x00\n      keccak256\n      sload\n        /* \"LendingPlatform.sol\":3124:3157  borrowingBalance[msg.sender] == 0 */\n      eq\n        /* \"LendingPlatform.sol\":3116:3198  require(borrowingBalance[msg.sender] == 0, \"You already have an outstanding loan\") */\n      tag_71\n      jumpi\n      mload(0x40)\n      0x08c379a000000000000000000000000000000000000000000000000000000000\n      dup2\n      mstore\n      0x04\n      add\n      tag_72\n      swap1\n      tag_73\n      jump\t// in\n    tag_72:\n      mload(0x40)\n      dup1\n      swap2\n      sub\n      swap1\n      revert\n    tag_71:\n        /* \"LendingPlatform.sol\":3314:3321  _amount */\n      dup1\n        /* \"LendingPlatform.sol\":3280:3285  token */\n      0x00\n      0x00\n      swap1\n      sload\n      swap1\n      0x0100\n      exp\n      swap1\n      div\n      0xffffffffffffffffffffffffffffffffffffffff\n      and\n        /* \"LendingPlatform.sol\":3280:3295  token.balanceOf */\n      0xffffffffffffffffffffffffffffffffffffffff\n      and\n      0x70a08231\n        /* \"LendingPlatform.sol\":3304:3308  this */\n      address\n        /* \"LendingPlatform.sol\":3280:3310  token.balanceOf(address(this)) */\n      mload(0x40)\n      dup3\n      0xffffffff\n      and\n      0xe0\n      shl\n      dup2\n      mstore\n      0x04\n      add\n      tag_74\n      swap2\n      swap1\n      tag_75\n      jump\t// in\n    tag_74:\n      0x20\n      mload(0x40)\n      dup1\n      dup4\n      sub\n      dup2\n      dup7\n      gas\n      staticcall\n      iszero\n      dup1\n      iszero\n      tag_77\n      jumpi\n      returndatacopy(0x00, 0x00, returndatasize)\n      revert(0x00, returndatasize)\n    tag_77:\n      pop\n      pop\n      pop\n      pop\n      mload(0x40)\n      returndatasize\n      not(0x1f)\n      0x1f\n      dup3\n      add\n      and\n      dup3\n      add\n      dup1\n      0x40\n      mstore\n      pop\n      dup2\n      add\n      swap1\n      tag_78\n      swap2\n      swap1\n      tag_79\n      jump\t// in\n    tag_78:\n        /* \"LendingPlatform.sol\":3280:3321  token.balanceOf(address(this)) >= _amount */\n      lt\n      iszero\n        /* \"LendingPlatform.sol\":3272:3359  require(token.balanceOf(address(this)) >= _amount, \"Not enough tokens in the platform\") */\n      tag_80\n      jumpi\n      mload(0x40)\n      0x08c379a000000000000000000000000000000000000000000000000000000000\n      dup2\n      mstore\n      0x04\n      add\n      tag_81\n      swap1\n      tag_82\n      jump\t// in\n    tag_81:\n      mload(0x40)\n      dup1\n      swap2\n      sub\n      swap1\n      revert\n    tag_80:\n        /* \"LendingPlatform.sol\":3480:3487  _amount */\n      dup1\n        /* \"LendingPlatform.sol\":3449:3465  borrowingBalance */\n      0x03\n        /* \"LendingPlatform.sol\":3449:3477  borrowingBalance[msg.sender] */\n      0x00\n        /* \"LendingPlatform.sol\":3466:3476  msg.sender */\n      caller\n        /* \"LendingPlatform.sol\":3449:3477  borrowingBalance[msg.sender] */\n      0xffffffffffffffffffffffffffffffffffffffff\n      and\n      0xffffffffffffffffffffffffffffffffffffffff\n      and\n      dup2\n      mstore\n      0x20\n      add\n      swap1\n      dup2\n      mstore\n      0x20\n      add\n      0x00\n      keccak256\n        /* \"LendingPlatform.sol\":3449:3487  borrowingBalance[msg.sender] = _amount */\n      dup2\n      swap1\n      sstore\n      pop\n        /* \"LendingPlatform.sol\":3600:3615  block.timestamp */\n      timestamp\n        /* \"LendingPlatform.sol\":3570:3585  borrowStartTime */\n      0x04\n        /* \"LendingPlatform.sol\":3570:3597  borrowStartTime[msg.sender] */\n      0x00\n        /* \"LendingPlatform.sol\":3586:3596  msg.sender */\n      caller\n        /* \"LendingPlatform.sol\":3570:3597  borrowStartTime[msg.sender] */\n      0xffffffffffffffffffffffffffffffffffffffff\n      and\n      0xffffffffffffffffffffffffffffffffffffffff\n      and\n      dup2\n      mstore\n      0x20\n      add\n      swap1\n      dup2\n      mstore\n      0x20\n      add\n      0x00\n      keccak256\n        /* \"LendingPlatform.sol\":3570:3615  borrowStartTime[msg.sender] = block.timestamp */\n      dup2\n      swap1\n      sstore\n      pop\n        /* \"LendingPlatform.sol\":3724:3729  token */\n      0x00\n      0x00\n      swap1\n      sload\n      swap1\n      0x0100\n      exp\n      swap1\n      div\n      0xffffffffffffffffffffffffffffffffffffffff\n      and\n        /* \"LendingPlatform.sol\":3724:3738  token.transfer */\n      0xffffffffffffffffffffffffffffffffffffffff\n      and\n      0xa9059cbb\n        /* \"LendingPlatform.sol\":3739:3749  msg.sender */\n      caller\n        /* \"LendingPlatform.sol\":3751:3758  _amount */\n      dup4\n        /* \"LendingPlatform.sol\":3724:3759  token.transfer(msg.sender, _amount) */\n      mload(0x40)\n      dup4\n      0xffffffff\n      and\n      0xe0\n      shl\n      dup2\n      mstore\n      0x04\n      add\n      tag_83\n      swap3\n      swap2\n      swap1\n      tag_84\n      jump\t// in\n    tag_83:\n      0x20\n      mload(0x40)\n      dup1\n      dup4\n      sub\n      dup2\n      0x00\n      dup8\n      gas\n      call\n      iszero\n      dup1\n      iszero\n      tag_86\n      jumpi\n      returndatacopy(0x00, 0x00, returndatasize)\n      revert(0x00, returndatasize)\n    tag_86:\n      pop\n      pop\n      pop\n      pop\n      mload(0x40)\n      returndatasize\n      not(0x1f)\n      0x1f\n      dup3\n      add\n      and\n      dup3\n      add\n      dup1\n      0x40\n      mstore\n      pop\n      dup2\n      add\n      swap1\n      tag_87\n      swap2\n      swap1\n      tag_57\n      jump\t// in\n    tag_87:\n      pop\n        /* \"LendingPlatform.sol\":2842:3767  function borrow(uint256 _amount) public {... */\n      pop\n      jump\t// out\n        /* \"LendingPlatform.sol\":1119:1169  mapping(address => uint256) public borrowStartTime */\n    tag_36:\n      mstore(0x20, 0x04)\n      dup1\n      0x00\n      mstore\n      keccak256(0x00, 0x40)\n      0x00\n      swap2\n      pop\n      swap1\n      pop\n      sload\n      dup2\n      jump\t// out\n        /* \"LendingPlatform.sol\":439:458  IERC20 public token */\n    tag_39:\n      0x00\n      0x00\n      swap1\n      sload\n      swap1\n      0x0100\n      exp\n      swap1\n      div\n      0xffffffffffffffffffffffffffffffffffffffff\n      and\n      dup2\n      jump\t// out\n        /* \"LendingPlatform.sol\":4258:4755  function calculateInterest(uint256 _amount, uint256 _duration) internal view returns (uint256) {... */\n    tag_49:\n        /* \"LendingPlatform.sol\":4344:4351  uint256 */\n      0x00\n        /* \"LendingPlatform.sol\":4647:4663  uint256 interest */\n      0x00\n        /* \"LendingPlatform.sol\":4706:4720  365 days * 100 */\n      0xbbf81e00\n        /* \"LendingPlatform.sol\":4692:4701  _duration */\n      dup4\n        /* \"LendingPlatform.sol\":4677:4689  interestRate */\n      sload(0x01)\n        /* \"LendingPlatform.sol\":4667:4674  _amount */\n      dup7\n        /* \"LendingPlatform.sol\":4667:4689  _amount * interestRate */\n      tag_89\n      swap2\n      swap1\n      tag_90\n      jump\t// in\n    tag_89:\n        /* \"LendingPlatform.sol\":4667:4701  _amount * interestRate * _duration */\n      tag_91\n      swap2\n      swap1\n      tag_90\n      jump\t// in\n    tag_91:\n        /* \"LendingPlatform.sol\":4666:4721  (_amount * interestRate * _duration) / (365 days * 100) */\n      tag_92\n      swap2\n      swap1\n      tag_93\n      jump\t// in\n    tag_92:\n        /* \"LendingPlatform.sol\":4647:4721  uint256 interest = (_amount * interestRate * _duration) / (365 days * 100) */\n      swap1\n      pop\n        /* \"LendingPlatform.sol\":4739:4747  interest */\n      dup1\n        /* \"LendingPlatform.sol\":4732:4747  return interest */\n      swap2\n      pop\n      pop\n        /* \"LendingPlatform.sol\":4258:4755  function calculateInterest(uint256 _amount, uint256 _duration) internal view returns (uint256) {... */\n      swap3\n      swap2\n      pop\n      pop\n      jump\t// out\n        /* \"#utility.yul\":7:84   */\n    tag_94:\n        /* \"#utility.yul\":44:51   */\n      0x00\n        /* \"#utility.yul\":73:78   */\n      dup2\n        /* \"#utility.yul\":62:78   */\n      swap1\n      pop\n        /* \"#utility.yul\":7:84   */\n      swap2\n      swap1\n      pop\n      jump\t// out\n        /* \"#utility.yul\":90:208   */\n    tag_95:\n        /* \"#utility.yul\":177:201   */\n      tag_131\n        /* \"#utility.yul\":195:200   */\n      dup2\n        /* \"#utility.yul\":177:201   */\n      tag_94\n      jump\t// in\n    tag_131:\n        /* \"#utility.yul\":172:175   */\n      dup3\n        /* \"#utility.yul\":165:202   */\n      mstore\n        /* \"#utility.yul\":90:208   */\n      pop\n      pop\n      jump\t// out\n        /* \"#utility.yul\":214:436   */\n    tag_17:\n        /* \"#utility.yul\":307:311   */\n      0x00\n        /* \"#utility.yul\":345:347   */\n      0x20\n        /* \"#utility.yul\":334:343   */\n      dup3\n        /* \"#utility.yul\":330:348   */\n      add\n        /* \"#utility.yul\":322:348   */\n      swap1\n      pop\n        /* \"#utility.yul\":358:429   */\n      tag_133\n        /* \"#utility.yul\":426:427   */\n      0x00\n        /* \"#utility.yul\":415:424   */\n      dup4\n        /* \"#utility.yul\":411:428   */\n      add\n        /* \"#utility.yul\":402:408   */\n      dup5\n        /* \"#utility.yul\":358:429   */\n      tag_95\n      jump\t// in\n    tag_133:\n        /* \"#utility.yul\":214:436   */\n      swap3\n      swap2\n      pop\n      pop\n      jump\t// out\n        /* \"#utility.yul\":523:640   */\n    tag_97:\n        /* \"#utility.yul\":632:633   */\n      0x00\n        /* \"#utility.yul\":629:630   */\n      0x00\n        /* \"#utility.yul\":622:634   */\n      revert\n        /* \"#utility.yul\":769:895   */\n    tag_99:\n        /* \"#utility.yul\":806:813   */\n      0x00\n        /* \"#utility.yul\":846:888   */\n      0xffffffffffffffffffffffffffffffffffffffff\n        /* \"#utility.yul\":839:844   */\n      dup3\n        /* \"#utility.yul\":835:889   */\n      and\n        /* \"#utility.yul\":824:889   */\n      swap1\n      pop\n        /* \"#utility.yul\":769:895   */\n      swap2\n      swap1\n      pop\n      jump\t// out\n        /* \"#utility.yul\":901:997   */\n    tag_100:\n        /* \"#utility.yul\":938:945   */\n      0x00\n        /* \"#utility.yul\":967:991   */\n      tag_139\n        /* \"#utility.yul\":985:990   */\n      dup3\n        /* \"#utility.yul\":967:991   */\n      tag_99\n      jump\t// in\n    tag_139:\n        /* \"#utility.yul\":956:991   */\n      swap1\n      pop\n        /* \"#utility.yul\":901:997   */\n      swap2\n      swap1\n      pop\n      jump\t// out\n        /* \"#utility.yul\":1003:1125   */\n    tag_101:\n        /* \"#utility.yul\":1076:1100   */\n      tag_141\n        /* \"#utility.yul\":1094:1099   */\n      dup2\n        /* \"#utility.yul\":1076:1100   */\n      tag_100\n      jump\t// in\n    tag_141:\n        /* \"#utility.yul\":1069:1074   */\n      dup2\n        /* \"#utility.yul\":1066:1101   */\n      eq\n        /* \"#utility.yul\":1056:1119   */\n      tag_142\n      jumpi\n        /* \"#utility.yul\":1115:1116   */\n      0x00\n        /* \"#utility.yul\":1112:1113   */\n      0x00\n        /* \"#utility.yul\":1105:1117   */\n      revert\n        /* \"#utility.yul\":1056:1119   */\n    tag_142:\n        /* \"#utility.yul\":1003:1125   */\n      pop\n      jump\t// out\n        /* \"#utility.yul\":1131:1270   */\n    tag_102:\n        /* \"#utility.yul\":1177:1182   */\n      0x00\n        /* \"#utility.yul\":1215:1221   */\n      dup2\n        /* \"#utility.yul\":1202:1222   */\n      calldataload\n        /* \"#utility.yul\":1193:1222   */\n      swap1\n      pop\n        /* \"#utility.yul\":1231:1264   */\n      tag_144\n        /* \"#utility.yul\":1258:1263   */\n      dup2\n        /* \"#utility.yul\":1231:1264   */\n      tag_101\n      jump\t// in\n    tag_144:\n        /* \"#utility.yul\":1131:1270   */\n      swap3\n      swap2\n      pop\n      pop\n      jump\t// out\n        /* \"#utility.yul\":1276:1605   */\n    tag_20:\n        /* \"#utility.yul\":1335:1341   */\n      0x00\n        /* \"#utility.yul\":1384:1386   */\n      0x20\n        /* \"#utility.yul\":1372:1381   */\n      dup3\n        /* \"#utility.yul\":1363:1370   */\n      dup5\n        /* \"#utility.yul\":1359:1382   */\n      sub\n        /* \"#utility.yul\":1355:1387   */\n      slt\n        /* \"#utility.yul\":1352:1471   */\n      iszero\n      tag_146\n      jumpi\n        /* \"#utility.yul\":1390:1469   */\n      tag_147\n      tag_97\n      jump\t// in\n    tag_147:\n        /* \"#utility.yul\":1352:1471   */\n    tag_146:\n        /* \"#utility.yul\":1510:1511   */\n      0x00\n        /* \"#utility.yul\":1535:1588   */\n      tag_148\n        /* \"#utility.yul\":1580:1587   */\n      dup5\n        /* \"#utility.yul\":1571:1577   */\n      dup3\n        /* \"#utility.yul\":1560:1569   */\n      dup6\n        /* \"#utility.yul\":1556:1578   */\n      add\n        /* \"#utility.yul\":1535:1588   */\n      tag_102\n      jump\t// in\n    tag_148:\n        /* \"#utility.yul\":1525:1588   */\n      swap2\n      pop\n        /* \"#utility.yul\":1481:1598   */\n      pop\n        /* \"#utility.yul\":1276:1605   */\n      swap3\n      swap2\n      pop\n      pop\n      jump\t// out\n        /* \"#utility.yul\":1611:1733   */\n    tag_103:\n        /* \"#utility.yul\":1684:1708   */\n      tag_150\n        /* \"#utility.yul\":1702:1707   */\n      dup2\n        /* \"#utility.yul\":1684:1708   */\n      tag_94\n      jump\t// in\n    tag_150:\n        /* \"#utility.yul\":1677:1682   */\n      dup2\n        /* \"#utility.yul\":1674:1709   */\n      eq\n        /* \"#utility.yul\":1664:1727   */\n      tag_151\n      jumpi\n        /* \"#utility.yul\":1723:1724   */\n      0x00\n        /* \"#utility.yul\":1720:1721   */\n      0x00\n        /* \"#utility.yul\":1713:1725   */\n      revert\n        /* \"#utility.yul\":1664:1727   */\n    tag_151:\n        /* \"#utility.yul\":1611:1733   */\n      pop\n      jump\t// out\n        /* \"#utility.yul\":1739:1878   */\n    tag_104:\n        /* \"#utility.yul\":1785:1790   */\n      0x00\n        /* \"#utility.yul\":1823:1829   */\n      dup2\n        /* \"#utility.yul\":1810:1830   */\n      calldataload\n        /* \"#utility.yul\":1801:1830   */\n      swap1\n      pop\n        /* \"#utility.yul\":1839:1872   */\n      tag_153\n        /* \"#utility.yul\":1866:1871   */\n      dup2\n        /* \"#utility.yul\":1839:1872   */\n      tag_103\n      jump\t// in\n    tag_153:\n        /* \"#utility.yul\":1739:1878   */\n      swap3\n      swap2\n      pop\n      pop\n      jump\t// out\n        /* \"#utility.yul\":1884:2213   */\n    tag_25:\n        /* \"#utility.yul\":1943:1949   */\n      0x00\n        /* \"#utility.yul\":1992:1994   */\n      0x20\n        /* \"#utility.yul\":1980:1989   */\n      dup3\n        /* \"#utility.yul\":1971:1978   */\n      dup5\n        /* \"#utility.yul\":1967:1990   */\n      sub\n        /* \"#utility.yul\":1963:1995   */\n      slt\n        /* \"#utility.yul\":1960:2079   */\n      iszero\n      tag_155\n      jumpi\n        /* \"#utility.yul\":1998:2077   */\n      tag_156\n      tag_97\n      jump\t// in\n    tag_156:\n        /* \"#utility.yul\":1960:2079   */\n    tag_155:\n        /* \"#utility.yul\":2118:2119   */\n      0x00\n        /* \"#utility.yul\":2143:2196   */\n      tag_157\n        /* \"#utility.yul\":2188:2195   */\n      dup5\n        /* \"#utility.yul\":2179:2185   */\n      dup3\n        /* \"#utility.yul\":2168:2177   */\n      dup6\n        /* \"#utility.yul\":2164:2186   */\n      add\n        /* \"#utility.yul\":2143:2196   */\n      tag_104\n      jump\t// in\n    tag_157:\n        /* \"#utility.yul\":2133:2196   */\n      swap2\n      pop\n        /* \"#utility.yul\":2089:2206   */\n      pop\n        /* \"#utility.yul\":1884:2213   */\n      swap3\n      swap2\n      pop\n      pop\n      jump\t// out\n        /* \"#utility.yul\":2219:2279   */\n    tag_105:\n        /* \"#utility.yul\":2247:2250   */\n      0x00\n        /* \"#utility.yul\":2268:2273   */\n      dup2\n        /* \"#utility.yul\":2261:2273   */\n      swap1\n      pop\n        /* \"#utility.yul\":2219:2279   */\n      swap2\n      swap1\n      pop\n      jump\t// out\n        /* \"#utility.yul\":2285:2427   */\n    tag_106:\n        /* \"#utility.yul\":2335:2344   */\n      0x00\n        /* \"#utility.yul\":2368:2421   */\n      tag_160\n        /* \"#utility.yul\":2386:2420   */\n      tag_161\n        /* \"#utility.yul\":2395:2419   */\n      tag_162\n        /* \"#utility.yul\":2413:2418   */\n      dup5\n        /* \"#utility.yul\":2395:2419   */\n      tag_99\n      jump\t// in\n    tag_162:\n        /* \"#utility.yul\":2386:2420   */\n      tag_105\n      jump\t// in\n    tag_161:\n        /* \"#utility.yul\":2368:2421   */\n      tag_99\n      jump\t// in\n    tag_160:\n        /* \"#utility.yul\":2355:2421   */\n      swap1\n      pop\n        /* \"#utility.yul\":2285:2427   */\n      swap2\n      swap1\n      pop\n      jump\t// out\n        /* \"#utility.yul\":2433:2559   */\n    tag_107:\n        /* \"#utility.yul\":2483:2492   */\n      0x00\n        /* \"#utility.yul\":2516:2553   */\n      tag_164\n        /* \"#utility.yul\":2547:2552   */\n      dup3\n        /* \"#utility.yul\":2516:2553   */\n      tag_106\n      jump\t// in\n    tag_164:\n        /* \"#utility.yul\":2503:2553   */\n      swap1\n      pop\n        /* \"#utility.yul\":2433:2559   */\n      swap2\n      swap1\n      pop\n      jump\t// out\n        /* \"#utility.yul\":2565:2704   */\n    tag_108:\n        /* \"#utility.yul\":2628:2637   */\n      0x00\n        /* \"#utility.yul\":2661:2698   */\n      tag_166\n        /* \"#utility.yul\":2692:2697   */\n      dup3\n        /* \"#utility.yul\":2661:2698   */\n      tag_107\n      jump\t// in\n    tag_166:\n        /* \"#utility.yul\":2648:2698   */\n      swap1\n      pop\n        /* \"#utility.yul\":2565:2704   */\n      swap2\n      swap1\n      pop\n      jump\t// out\n        /* \"#utility.yul\":2710:2867   */\n    tag_109:\n        /* \"#utility.yul\":2810:2860   */\n      tag_168\n        /* \"#utility.yul\":2854:2859   */\n      dup2\n        /* \"#utility.yul\":2810:2860   */\n      tag_108\n      jump\t// in\n    tag_168:\n        /* \"#utility.yul\":2805:2808   */\n      dup3\n        /* \"#utility.yul\":2798:2861   */\n      mstore\n        /* \"#utility.yul\":2710:2867   */\n      pop\n      pop\n      jump\t// out\n        /* \"#utility.yul\":2873:3121   */\n    tag_41:\n        /* \"#utility.yul\":2979:2983   */\n      0x00\n        /* \"#utility.yul\":3017:3019   */\n      0x20\n        /* \"#utility.yul\":3006:3015   */\n      dup3\n        /* \"#utility.yul\":3002:3020   */\n      add\n        /* \"#utility.yul\":2994:3020   */\n      swap1\n      pop\n        /* \"#utility.yul\":3030:3114   */\n      tag_170\n        /* \"#utility.yul\":3111:3112   */\n      0x00\n        /* \"#utility.yul\":3100:3109   */\n      dup4\n        /* \"#utility.yul\":3096:3113   */\n      add\n        /* \"#utility.yul\":3087:3093   */\n      dup5\n        /* \"#utility.yul\":3030:3114   */\n      tag_109\n      jump\t// in\n    tag_170:\n        /* \"#utility.yul\":2873:3121   */\n      swap3\n      swap2\n      pop\n      pop\n      jump\t// out\n        /* \"#utility.yul\":3127:3296   */\n    tag_110:\n        /* \"#utility.yul\":3211:3222   */\n      0x00\n        /* \"#utility.yul\":3245:3251   */\n      dup3\n        /* \"#utility.yul\":3240:3243   */\n      dup3\n        /* \"#utility.yul\":3233:3252   */\n      mstore\n        /* \"#utility.yul\":3285:3289   */\n      0x20\n        /* \"#utility.yul\":3280:3283   */\n      dup3\n        /* \"#utility.yul\":3276:3290   */\n      add\n        /* \"#utility.yul\":3261:3290   */\n      swap1\n      pop\n        /* \"#utility.yul\":3127:3296   */\n      swap3\n      swap2\n      pop\n      pop\n      jump\t// out\n        /* \"#utility.yul\":3302:3483   */\n    tag_111:\n        /* \"#utility.yul\":3442:3475   */\n      0x596f7520646f206e6f7420686176652061206c6f616e20746f20726570617900\n        /* \"#utility.yul\":3438:3439   */\n      0x00\n        /* \"#utility.yul\":3430:3436   */\n      dup3\n        /* \"#utility.yul\":3426:3440   */\n      add\n        /* \"#utility.yul\":3419:3476   */\n      mstore\n        /* \"#utility.yul\":3302:3483   */\n      pop\n      jump\t// out\n        /* \"#utility.yul\":3489:3855   */\n    tag_112:\n        /* \"#utility.yul\":3631:3634   */\n      0x00\n        /* \"#utility.yul\":3652:3719   */\n      tag_174\n        /* \"#utility.yul\":3716:3718   */\n      0x1f\n        /* \"#utility.yul\":3711:3714   */\n      dup4\n        /* \"#utility.yul\":3652:3719   */\n      tag_110\n      jump\t// in\n    tag_174:\n        /* \"#utility.yul\":3645:3719   */\n      swap2\n      pop\n        /* \"#utility.yul\":3728:3821   */\n      tag_175\n        /* \"#utility.yul\":3817:3820   */\n      dup3\n        /* \"#utility.yul\":3728:3821   */\n      tag_111\n      jump\t// in\n    tag_175:\n        /* \"#utility.yul\":3846:3848   */\n      0x20\n        /* \"#utility.yul\":3841:3844   */\n      dup3\n        /* \"#utility.yul\":3837:3849   */\n      add\n        /* \"#utility.yul\":3830:3849   */\n      swap1\n      pop\n        /* \"#utility.yul\":3489:3855   */\n      swap2\n      swap1\n      pop\n      jump\t// out\n        /* \"#utility.yul\":3861:4280   */\n    tag_45:\n        /* \"#utility.yul\":4027:4031   */\n      0x00\n        /* \"#utility.yul\":4065:4067   */\n      0x20\n        /* \"#utility.yul\":4054:4063   */\n      dup3\n        /* \"#utility.yul\":4050:4068   */\n      add\n        /* \"#utility.yul\":4042:4068   */\n      swap1\n      pop\n        /* \"#utility.yul\":4114:4123   */\n      dup2\n        /* \"#utility.yul\":4108:4112   */\n      dup2\n        /* \"#utility.yul\":4104:4124   */\n      sub\n        /* \"#utility.yul\":4100:4101   */\n      0x00\n        /* \"#utility.yul\":4089:4098   */\n      dup4\n        /* \"#utility.yul\":4085:4102   */\n      add\n        /* \"#utility.yul\":4078:4125   */\n      mstore\n        /* \"#utility.yul\":4142:4273   */\n      tag_177\n        /* \"#utility.yul\":4268:4272   */\n      dup2\n        /* \"#utility.yul\":4142:4273   */\n      tag_112\n      jump\t// in\n    tag_177:\n        /* \"#utility.yul\":4134:4273   */\n      swap1\n      pop\n        /* \"#utility.yul\":3861:4280   */\n      swap2\n      swap1\n      pop\n      jump\t// out\n        /* \"#utility.yul\":4286:4466   */\n    tag_113:\n        /* \"#utility.yul\":4334:4411   */\n      0x4e487b7100000000000000000000000000000000000000000000000000000000\n        /* \"#utility.yul\":4331:4332   */\n      0x00\n        /* \"#utility.yul\":4324:4412   */\n      mstore\n        /* \"#utility.yul\":4431:4435   */\n      0x11\n        /* \"#utility.yul\":4428:4429   */\n      0x04\n        /* \"#utility.yul\":4421:4436   */\n      mstore\n        /* \"#utility.yul\":4455:4459   */\n      0x24\n        /* \"#utility.yul\":4452:4453   */\n      0x00\n        /* \"#utility.yul\":4445:4460   */\n      revert\n        /* \"#utility.yul\":4472:4666   */\n    tag_47:\n        /* \"#utility.yul\":4512:4516   */\n      0x00\n        /* \"#utility.yul\":4532:4552   */\n      tag_180\n        /* \"#utility.yul\":4550:4551   */\n      dup3\n        /* \"#utility.yul\":4532:4552   */\n      tag_94\n      jump\t// in\n    tag_180:\n        /* \"#utility.yul\":4527:4552   */\n      swap2\n      pop\n        /* \"#utility.yul\":4566:4586   */\n      tag_181\n        /* \"#utility.yul\":4584:4585   */\n      dup4\n        /* \"#utility.yul\":4566:4586   */\n      tag_94\n      jump\t// in\n    tag_181:\n        /* \"#utility.yul\":4561:4586   */\n      swap3\n      pop\n        /* \"#utility.yul\":4610:4611   */\n      dup3\n        /* \"#utility.yul\":4607:4608   */\n      dup3\n        /* \"#utility.yul\":4603:4612   */\n      sub\n        /* \"#utility.yul\":4595:4612   */\n      swap1\n      pop\n        /* \"#utility.yul\":4634:4635   */\n      dup2\n        /* \"#utility.yul\":4628:4632   */\n      dup2\n        /* \"#utility.yul\":4625:4636   */\n      gt\n        /* \"#utility.yul\":4622:4659   */\n      iszero\n      tag_182\n      jumpi\n        /* \"#utility.yul\":4639:4657   */\n      tag_183\n      tag_113\n      jump\t// in\n    tag_183:\n        /* \"#utility.yul\":4622:4659   */\n    tag_182:\n        /* \"#utility.yul\":4472:4666   */\n      swap3\n      swap2\n      pop\n      pop\n      jump\t// out\n        /* \"#utility.yul\":4672:4863   */\n    tag_51:\n        /* \"#utility.yul\":4712:4715   */\n      0x00\n        /* \"#utility.yul\":4731:4751   */\n      tag_185\n        /* \"#utility.yul\":4749:4750   */\n      dup3\n        /* \"#utility.yul\":4731:4751   */\n      tag_94\n      jump\t// in\n    tag_185:\n        /* \"#utility.yul\":4726:4751   */\n      swap2\n      pop\n        /* \"#utility.yul\":4765:4785   */\n      tag_186\n        /* \"#utility.yul\":4783:4784   */\n      dup4\n        /* \"#utility.yul\":4765:4785   */\n      tag_94\n      jump\t// in\n    tag_186:\n        /* \"#utility.yul\":4760:4785   */\n      swap3\n      pop\n        /* \"#utility.yul\":4808:4809   */\n      dup3\n        /* \"#utility.yul\":4805:4806   */\n      dup3\n        /* \"#utility.yul\":4801:4810   */\n      add\n        /* \"#utility.yul\":4794:4810   */\n      swap1\n      pop\n        /* \"#utility.yul\":4829:4832   */\n      dup1\n        /* \"#utility.yul\":4826:4827   */\n      dup3\n        /* \"#utility.yul\":4823:4833   */\n      gt\n        /* \"#utility.yul\":4820:4856   */\n      iszero\n      tag_187\n      jumpi\n        /* \"#utility.yul\":4836:4854   */\n      tag_188\n      tag_113\n      jump\t// in\n    tag_188:\n        /* \"#utility.yul\":4820:4856   */\n    tag_187:\n        /* \"#utility.yul\":4672:4863   */\n      swap3\n      swap2\n      pop\n      pop\n      jump\t// out\n        /* \"#utility.yul\":4869:4987   */\n    tag_114:\n        /* \"#utility.yul\":4956:4980   */\n      tag_190\n        /* \"#utility.yul\":4974:4979   */\n      dup2\n        /* \"#utility.yul\":4956:4980   */\n      tag_100\n      jump\t// in\n    tag_190:\n        /* \"#utility.yul\":4951:4954   */\n      dup3\n        /* \"#utility.yul\":4944:4981   */\n      mstore\n        /* \"#utility.yul\":4869:4987   */\n      pop\n      pop\n      jump\t// out\n        /* \"#utility.yul\":4993:5435   */\n    tag_53:\n        /* \"#utility.yul\":5142:5146   */\n      0x00\n        /* \"#utility.yul\":5180:5182   */\n      0x60\n        /* \"#utility.yul\":5169:5178   */\n      dup3\n        /* \"#utility.yul\":5165:5183   */\n      add\n        /* \"#utility.yul\":5157:5183   */\n      swap1\n      pop\n        /* \"#utility.yul\":5193:5264   */\n      tag_192\n        /* \"#utility.yul\":5261:5262   */\n      0x00\n        /* \"#utility.yul\":5250:5259   */\n      dup4\n        /* \"#utility.yul\":5246:5263   */\n      add\n        /* \"#utility.yul\":5237:5243   */\n      dup7\n        /* \"#utility.yul\":5193:5264   */\n      tag_114\n      jump\t// in\n    tag_192:\n        /* \"#utility.yul\":5274:5346   */\n      tag_193\n        /* \"#utility.yul\":5342:5344   */\n      0x20\n        /* \"#utility.yul\":5331:5340   */\n      dup4\n        /* \"#utility.yul\":5327:5345   */\n      add\n        /* \"#utility.yul\":5318:5324   */\n      dup6\n        /* \"#utility.yul\":5274:5346   */\n      tag_114\n      jump\t// in\n    tag_193:\n        /* \"#utility.yul\":5356:5428   */\n      tag_194\n        /* \"#utility.yul\":5424:5426   */\n      0x40\n        /* \"#utility.yul\":5413:5422   */\n      dup4\n        /* \"#utility.yul\":5409:5427   */\n      add\n        /* \"#utility.yul\":5400:5406   */\n      dup5\n        /* \"#utility.yul\":5356:5428   */\n      tag_95\n      jump\t// in\n    tag_194:\n        /* \"#utility.yul\":4993:5435   */\n      swap5\n      swap4\n      pop\n      pop\n      pop\n      pop\n      jump\t// out\n        /* \"#utility.yul\":5441:5531   */\n    tag_115:\n        /* \"#utility.yul\":5475:5482   */\n      0x00\n        /* \"#utility.yul\":5518:5523   */\n      dup2\n        /* \"#utility.yul\":5511:5524   */\n      iszero\n        /* \"#utility.yul\":5504:5525   */\n      iszero\n        /* \"#utility.yul\":5493:5525   */\n      swap1\n      pop\n        /* \"#utility.yul\":5441:5531   */\n      swap2\n      swap1\n      pop\n      jump\t// out\n        /* \"#utility.yul\":5537:5653   */\n    tag_116:\n        /* \"#utility.yul\":5607:5628   */\n      tag_197\n        /* \"#utility.yul\":5622:5627   */\n      dup2\n        /* \"#utility.yul\":5607:5628   */\n      tag_115\n      jump\t// in\n    tag_197:\n        /* \"#utility.yul\":5600:5605   */\n      dup2\n        /* \"#utility.yul\":5597:5629   */\n      eq\n        /* \"#utility.yul\":5587:5647   */\n      tag_198\n      jumpi\n        /* \"#utility.yul\":5643:5644   */\n      0x00\n        /* \"#utility.yul\":5640:5641   */\n      0x00\n        /* \"#utility.yul\":5633:5645   */\n      revert\n        /* \"#utility.yul\":5587:5647   */\n    tag_198:\n        /* \"#utility.yul\":5537:5653   */\n      pop\n      jump\t// out\n        /* \"#utility.yul\":5659:5796   */\n    tag_117:\n        /* \"#utility.yul\":5713:5718   */\n      0x00\n        /* \"#utility.yul\":5744:5750   */\n      dup2\n        /* \"#utility.yul\":5738:5751   */\n      mload\n        /* \"#utility.yul\":5729:5751   */\n      swap1\n      pop\n        /* \"#utility.yul\":5760:5790   */\n      tag_200\n        /* \"#utility.yul\":5784:5789   */\n      dup2\n        /* \"#utility.yul\":5760:5790   */\n      tag_116\n      jump\t// in\n    tag_200:\n        /* \"#utility.yul\":5659:5796   */\n      swap3\n      swap2\n      pop\n      pop\n      jump\t// out\n        /* \"#utility.yul\":5802:6147   */\n    tag_57:\n        /* \"#utility.yul\":5869:5875   */\n      0x00\n        /* \"#utility.yul\":5918:5920   */\n      0x20\n        /* \"#utility.yul\":5906:5915   */\n      dup3\n        /* \"#utility.yul\":5897:5904   */\n      dup5\n        /* \"#utility.yul\":5893:5916   */\n      sub\n        /* \"#utility.yul\":5889:5921   */\n      slt\n        /* \"#utility.yul\":5886:6005   */\n      iszero\n      tag_202\n      jumpi\n        /* \"#utility.yul\":5924:6003   */\n      tag_203\n      tag_97\n      jump\t// in\n    tag_203:\n        /* \"#utility.yul\":5886:6005   */\n    tag_202:\n        /* \"#utility.yul\":6044:6045   */\n      0x00\n        /* \"#utility.yul\":6069:6130   */\n      tag_204\n        /* \"#utility.yul\":6122:6129   */\n      dup5\n        /* \"#utility.yul\":6113:6119   */\n      dup3\n        /* \"#utility.yul\":6102:6111   */\n      dup6\n        /* \"#utility.yul\":6098:6120   */\n      add\n        /* \"#utility.yul\":6069:6130   */\n      tag_117\n      jump\t// in\n    tag_204:\n        /* \"#utility.yul\":6059:6130   */\n      swap2\n      pop\n        /* \"#utility.yul\":6015:6140   */\n      pop\n        /* \"#utility.yul\":5802:6147   */\n      swap3\n      swap2\n      pop\n      pop\n      jump\t// out\n        /* \"#utility.yul\":6153:6377   */\n    tag_118:\n        /* \"#utility.yul\":6293:6327   */\n      0x4c656e6420616d6f756e74206d7573742062652067726561746572207468616e\n        /* \"#utility.yul\":6289:6290   */\n      0x00\n        /* \"#utility.yul\":6281:6287   */\n      dup3\n        /* \"#utility.yul\":6277:6291   */\n      add\n        /* \"#utility.yul\":6270:6328   */\n      mstore\n        /* \"#utility.yul\":6362:6369   */\n      0x207a65726f000000000000000000000000000000000000000000000000000000\n        /* \"#utility.yul\":6357:6359   */\n      0x20\n        /* \"#utility.yul\":6349:6355   */\n      dup3\n        /* \"#utility.yul\":6345:6360   */\n      add\n        /* \"#utility.yul\":6338:6370   */\n      mstore\n        /* \"#utility.yul\":6153:6377   */\n      pop\n      jump\t// out\n        /* \"#utility.yul\":6383:6749   */\n    tag_119:\n        /* \"#utility.yul\":6525:6528   */\n      0x00\n        /* \"#utility.yul\":6546:6613   */\n      tag_207\n        /* \"#utility.yul\":6610:6612   */\n      0x25\n        /* \"#utility.yul\":6605:6608   */\n      dup4\n        /* \"#utility.yul\":6546:6613   */\n      tag_110\n      jump\t// in\n    tag_207:\n        /* \"#utility.yul\":6539:6613   */\n      swap2\n      pop\n        /* \"#utility.yul\":6622:6715   */\n      tag_208\n        /* \"#utility.yul\":6711:6714   */\n      dup3\n        /* \"#utility.yul\":6622:6715   */\n      tag_118\n      jump\t// in\n    tag_208:\n        /* \"#utility.yul\":6740:6742   */\n      0x40\n        /* \"#utility.yul\":6735:6738   */\n      dup3\n        /* \"#utility.yul\":6731:6743   */\n      add\n        /* \"#utility.yul\":6724:6743   */\n      swap1\n      pop\n        /* \"#utility.yul\":6383:6749   */\n      swap2\n      swap1\n      pop\n      jump\t// out\n        /* \"#utility.yul\":6755:7174   */\n    tag_61:\n        /* \"#utility.yul\":6921:6925   */\n      0x00\n        /* \"#utility.yul\":6959:6961   */\n      0x20\n        /* \"#utility.yul\":6948:6957   */\n      dup3\n        /* \"#utility.yul\":6944:6962   */\n      add\n        /* \"#utility.yul\":6936:6962   */\n      swap1\n      pop\n        /* \"#utility.yul\":7008:7017   */\n      dup2\n        /* \"#utility.yul\":7002:7006   */\n      dup2\n        /* \"#utility.yul\":6998:7018   */\n      sub\n        /* \"#utility.yul\":6994:6995   */\n      0x00\n        /* \"#utility.yul\":6983:6992   */\n      dup4\n        /* \"#utility.yul\":6979:6996   */\n      add\n        /* \"#utility.yul\":6972:7019   */\n      mstore\n        /* \"#utility.yul\":7036:7167   */\n      tag_210\n        /* \"#utility.yul\":7162:7166   */\n      dup2\n        /* \"#utility.yul\":7036:7167   */\n      tag_119\n      jump\t// in\n    tag_210:\n        /* \"#utility.yul\":7028:7167   */\n      swap1\n      pop\n        /* \"#utility.yul\":6755:7174   */\n      swap2\n      swap1\n      pop\n      jump\t// out\n        /* \"#utility.yul\":7180:7406   */\n    tag_120:\n        /* \"#utility.yul\":7320:7354   */\n      0x426f72726f7720616d6f756e74206d7573742062652067726561746572207468\n        /* \"#utility.yul\":7316:7317   */\n      0x00\n        /* \"#utility.yul\":7308:7314   */\n      dup3\n        /* \"#utility.yul\":7304:7318   */\n      add\n        /* \"#utility.yul\":7297:7355   */\n      mstore\n        /* \"#utility.yul\":7389:7398   */\n      0x616e207a65726f00000000000000000000000000000000000000000000000000\n        /* \"#utility.yul\":7384:7386   */\n      0x20\n        /* \"#utility.yul\":7376:7382   */\n      dup3\n        /* \"#utility.yul\":7372:7387   */\n      add\n        /* \"#utility.yul\":7365:7399   */\n      mstore\n        /* \"#utility.yul\":7180:7406   */\n      pop\n      jump\t// out\n        /* \"#utility.yul\":7412:7778   */\n    tag_121:\n        /* \"#utility.yul\":7554:7557   */\n      0x00\n        /* \"#utility.yul\":7575:7642   */\n      tag_213\n        /* \"#utility.yul\":7639:7641   */\n      0x27\n        /* \"#utility.yul\":7634:7637   */\n      dup4\n        /* \"#utility.yul\":7575:7642   */\n      tag_110\n      jump\t// in\n    tag_213:\n        /* \"#utility.yul\":7568:7642   */\n      swap2\n      pop\n        /* \"#utility.yul\":7651:7744   */\n      tag_214\n        /* \"#utility.yul\":7740:7743   */\n      dup3\n        /* \"#utility.yul\":7651:7744   */\n      tag_120\n      jump\t// in\n    tag_214:\n        /* \"#utility.yul\":7769:7771   */\n      0x40\n        /* \"#utility.yul\":7764:7767   */\n      dup3\n        /* \"#utility.yul\":7760:7772   */\n      add\n        /* \"#utility.yul\":7753:7772   */\n      swap1\n      pop\n        /* \"#utility.yul\":7412:7778   */\n      swap2\n      swap1\n      pop\n      jump\t// out\n        /* \"#utility.yul\":7784:8203   */\n    tag_70:\n        /* \"#utility.yul\":7950:7954   */\n      0x00\n        /* \"#utility.yul\":7988:7990   */\n      0x20\n        /* \"#utility.yul\":7977:7986   */\n      dup3\n        /* \"#utility.yul\":7973:7991   */\n      add\n        /* \"#utility.yul\":7965:7991   */\n      swap1\n      pop\n        /* \"#utility.yul\":8037:8046   */\n      dup2\n        /* \"#utility.yul\":8031:8035   */\n      dup2\n        /* \"#utility.yul\":8027:8047   */\n      sub\n        /* \"#utility.yul\":8023:8024   */\n      0x00\n        /* \"#utility.yul\":8012:8021   */\n      dup4\n        /* \"#utility.yul\":8008:8025   */\n      add\n        /* \"#utility.yul\":8001:8048   */\n      mstore\n        /* \"#utility.yul\":8065:8196   */\n      tag_216\n        /* \"#utility.yul\":8191:8195   */\n      dup2\n        /* \"#utility.yul\":8065:8196   */\n      tag_121\n      jump\t// in\n    tag_216:\n        /* \"#utility.yul\":8057:8196   */\n      swap1\n      pop\n        /* \"#utility.yul\":7784:8203   */\n      swap2\n      swap1\n      pop\n      jump\t// out\n        /* \"#utility.yul\":8209:8432   */\n    tag_122:\n        /* \"#utility.yul\":8349:8383   */\n      0x596f7520616c7265616479206861766520616e206f75747374616e64696e6720\n        /* \"#utility.yul\":8345:8346   */\n      0x00\n        /* \"#utility.yul\":8337:8343   */\n      dup3\n        /* \"#utility.yul\":8333:8347   */\n      add\n        /* \"#utility.yul\":8326:8384   */\n      mstore\n        /* \"#utility.yul\":8418:8424   */\n      0x6c6f616e00000000000000000000000000000000000000000000000000000000\n        /* \"#utility.yul\":8413:8415   */\n      0x20\n        /* \"#utility.yul\":8405:8411   */\n      dup3\n        /* \"#utility.yul\":8401:8416   */\n      add\n        /* \"#utility.yul\":8394:8425   */\n      mstore\n        /* \"#utility.yul\":8209:8432   */\n      pop\n      jump\t// out\n        /* \"#utility.yul\":8438:8804   */\n    tag_123:\n        /* \"#utility.yul\":8580:8583   */\n      0x00\n        /* \"#utility.yul\":8601:8668   */\n      tag_219\n        /* \"#utility.yul\":8665:8667   */\n      0x24\n        /* \"#utility.yul\":8660:8663   */\n      dup4\n        /* \"#utility.yul\":8601:8668   */\n      tag_110\n      jump\t// in\n    tag_219:\n        /* \"#utility.yul\":8594:8668   */\n      swap2\n      pop\n        /* \"#utility.yul\":8677:8770   */\n      tag_220\n        /* \"#utility.yul\":8766:8769   */\n      dup3\n        /* \"#utility.yul\":8677:8770   */\n      tag_122\n      jump\t// in\n    tag_220:\n        /* \"#utility.yul\":8795:8797   */\n      0x40\n        /* \"#utility.yul\":8790:8793   */\n      dup3\n        /* \"#utility.yul\":8786:8798   */\n      add\n        /* \"#utility.yul\":8779:8798   */\n      swap1\n      pop\n        /* \"#utility.yul\":8438:8804   */\n      swap2\n      swap1\n      pop\n      jump\t// out\n        /* \"#utility.yul\":8810:9229   */\n    tag_73:\n        /* \"#utility.yul\":8976:8980   */\n      0x00\n        /* \"#utility.yul\":9014:9016   */\n      0x20\n        /* \"#utility.yul\":9003:9012   */\n      dup3\n        /* \"#utility.yul\":8999:9017   */\n      add\n        /* \"#utility.yul\":8991:9017   */\n      swap1\n      pop\n        /* \"#utility.yul\":9063:9072   */\n      dup2\n        /* \"#utility.yul\":9057:9061   */\n      dup2\n        /* \"#utility.yul\":9053:9073   */\n      sub\n        /* \"#utility.yul\":9049:9050   */\n      0x00\n        /* \"#utility.yul\":9038:9047   */\n      dup4\n        /* \"#utility.yul\":9034:9051   */\n      add\n        /* \"#utility.yul\":9027:9074   */\n      mstore\n        /* \"#utility.yul\":9091:9222   */\n      tag_222\n        /* \"#utility.yul\":9217:9221   */\n      dup2\n        /* \"#utility.yul\":9091:9222   */\n      tag_123\n      jump\t// in\n    tag_222:\n        /* \"#utility.yul\":9083:9222   */\n      swap1\n      pop\n        /* \"#utility.yul\":8810:9229   */\n      swap2\n      swap1\n      pop\n      jump\t// out\n        /* \"#utility.yul\":9235:9457   */\n    tag_75:\n        /* \"#utility.yul\":9328:9332   */\n      0x00\n        /* \"#utility.yul\":9366:9368   */\n      0x20\n        /* \"#utility.yul\":9355:9364   */\n      dup3\n        /* \"#utility.yul\":9351:9369   */\n      add\n        /* \"#utility.yul\":9343:9369   */\n      swap1\n      pop\n        /* \"#utility.yul\":9379:9450   */\n      tag_224\n        /* \"#utility.yul\":9447:9448   */\n      0x00\n        /* \"#utility.yul\":9436:9445   */\n      dup4\n        /* \"#utility.yul\":9432:9449   */\n      add\n        /* \"#utility.yul\":9423:9429   */\n      dup5\n        /* \"#utility.yul\":9379:9450   */\n      tag_114\n      jump\t// in\n    tag_224:\n        /* \"#utility.yul\":9235:9457   */\n      swap3\n      swap2\n      pop\n      pop\n      jump\t// out\n        /* \"#utility.yul\":9463:9606   */\n    tag_124:\n        /* \"#utility.yul\":9520:9525   */\n      0x00\n        /* \"#utility.yul\":9551:9557   */\n      dup2\n        /* \"#utility.yul\":9545:9558   */\n      mload\n        /* \"#utility.yul\":9536:9558   */\n      swap1\n      pop\n        /* \"#utility.yul\":9567:9600   */\n      tag_226\n        /* \"#utility.yul\":9594:9599   */\n      dup2\n        /* \"#utility.yul\":9567:9600   */\n      tag_103\n      jump\t// in\n    tag_226:\n        /* \"#utility.yul\":9463:9606   */\n      swap3\n      swap2\n      pop\n      pop\n      jump\t// out\n        /* \"#utility.yul\":9612:9963   */\n    tag_79:\n        /* \"#utility.yul\":9682:9688   */\n      0x00\n        /* \"#utility.yul\":9731:9733   */\n      0x20\n        /* \"#utility.yul\":9719:9728   */\n      dup3\n        /* \"#utility.yul\":9710:9717   */\n      dup5\n        /* \"#utility.yul\":9706:9729   */\n      sub\n        /* \"#utility.yul\":9702:9734   */\n      slt\n        /* \"#utility.yul\":9699:9818   */\n      iszero\n      tag_228\n      jumpi\n        /* \"#utility.yul\":9737:9816   */\n      tag_229\n      tag_97\n      jump\t// in\n    tag_229:\n        /* \"#utility.yul\":9699:9818   */\n    tag_228:\n        /* \"#utility.yul\":9857:9858   */\n      0x00\n        /* \"#utility.yul\":9882:9946   */\n      tag_230\n        /* \"#utility.yul\":9938:9945   */\n      dup5\n        /* \"#utility.yul\":9929:9935   */\n      dup3\n        /* \"#utility.yul\":9918:9927   */\n      dup6\n        /* \"#utility.yul\":9914:9936   */\n      add\n        /* \"#utility.yul\":9882:9946   */\n      tag_124\n      jump\t// in\n    tag_230:\n        /* \"#utility.yul\":9872:9946   */\n      swap2\n      pop\n        /* \"#utility.yul\":9828:9956   */\n      pop\n        /* \"#utility.yul\":9612:9963   */\n      swap3\n      swap2\n      pop\n      pop\n      jump\t// out\n        /* \"#utility.yul\":9969:10189   */\n    tag_125:\n        /* \"#utility.yul\":10109:10143   */\n      0x4e6f7420656e6f75676820746f6b656e7320696e2074686520706c6174666f72\n        /* \"#utility.yul\":10105:10106   */\n      0x00\n        /* \"#utility.yul\":10097:10103   */\n      dup3\n        /* \"#utility.yul\":10093:10107   */\n      add\n        /* \"#utility.yul\":10086:10144   */\n      mstore\n        /* \"#utility.yul\":10178:10181   */\n      0x6d00000000000000000000000000000000000000000000000000000000000000\n        /* \"#utility.yul\":10173:10175   */\n      0x20\n        /* \"#utility.yul\":10165:10171   */\n      dup3\n        /* \"#utility.yul\":10161:10176   */\n      add\n        /* \"#utility.yul\":10154:10182   */\n      mstore\n        /* \"#utility.yul\":9969:10189   */\n      pop\n      jump\t// out\n        /* \"#utility.yul\":10195:10561   */\n    tag_126:\n        /* \"#utility.yul\":10337:10340   */\n      0x00\n        /* \"#utility.yul\":10358:10425   */\n      tag_233\n        /* \"#utility.yul\":10422:10424   */\n      0x21\n        /* \"#utility.yul\":10417:10420   */\n      dup4\n        /* \"#utility.yul\":10358:10425   */\n      tag_110\n      jump\t// in\n    tag_233:\n        /* \"#utility.yul\":10351:10425   */\n      swap2\n      pop\n        /* \"#utility.yul\":10434:10527   */\n      tag_234\n        /* \"#utility.yul\":10523:10526   */\n      dup3\n        /* \"#utility.yul\":10434:10527   */\n      tag_125\n      jump\t// in\n    tag_234:\n        /* \"#utility.yul\":10552:10554   */\n      0x40\n        /* \"#utility.yul\":10547:10550   */\n      dup3\n        /* \"#utility.yul\":10543:10555   */\n      add\n        /* \"#utility.yul\":10536:10555   */\n      swap1\n      pop\n        /* \"#utility.yul\":10195:10561   */\n      swap2\n      swap1\n      pop\n      jump\t// out\n        /* \"#utility.yul\":10567:10986   */\n    tag_82:\n        /* \"#utility.yul\":10733:10737   */\n      0x00\n        /* \"#utility.yul\":10771:10773   */\n      0x20\n        /* \"#utility.yul\":10760:10769   */\n      dup3\n        /* \"#utility.yul\":10756:10774   */\n      add\n        /* \"#utility.yul\":10748:10774   */\n      swap1\n      pop\n        /* \"#utility.yul\":10820:10829   */\n      dup2\n        /* \"#utility.yul\":10814:10818   */\n      dup2\n        /* \"#utility.yul\":10810:10830   */\n      sub\n        /* \"#utility.yul\":10806:10807   */\n      0x00\n        /* \"#utility.yul\":10795:10804   */\n      dup4\n        /* \"#utility.yul\":10791:10808   */\n      add\n        /* \"#utility.yul\":10784:10831   */\n      mstore\n        /* \"#utility.yul\":10848:10979   */\n      tag_236\n        /* \"#utility.yul\":10974:10978   */\n      dup2\n        /* \"#utility.yul\":10848:10979   */\n      tag_126\n      jump\t// in\n    tag_236:\n        /* \"#utility.yul\":10840:10979   */\n      swap1\n      pop\n        /* \"#utility.yul\":10567:10986   */\n      swap2\n      swap1\n      pop\n      jump\t// out\n        /* \"#utility.yul\":10992:11324   */\n    tag_84:\n        /* \"#utility.yul\":11113:11117   */\n      0x00\n        /* \"#utility.yul\":11151:11153   */\n      0x40\n        /* \"#utility.yul\":11140:11149   */\n      dup3\n        /* \"#utility.yul\":11136:11154   */\n      add\n        /* \"#utility.yul\":11128:11154   */\n      swap1\n      pop\n        /* \"#utility.yul\":11164:11235   */\n      tag_238\n        /* \"#utility.yul\":11232:11233   */\n      0x00\n        /* \"#utility.yul\":11221:11230   */\n      dup4\n        /* \"#utility.yul\":11217:11234   */\n      add\n        /* \"#utility.yul\":11208:11214   */\n      dup6\n        /* \"#utility.yul\":11164:11235   */\n      tag_114\n      jump\t// in\n    tag_238:\n        /* \"#utility.yul\":11245:11317   */\n      tag_239\n        /* \"#utility.yul\":11313:11315   */\n      0x20\n        /* \"#utility.yul\":11302:11311   */\n      dup4\n        /* \"#utility.yul\":11298:11316   */\n      add\n        /* \"#utility.yul\":11289:11295   */\n      dup5\n        /* \"#utility.yul\":11245:11317   */\n      tag_95\n      jump\t// in\n    tag_239:\n        /* \"#utility.yul\":10992:11324   */\n      swap4\n      swap3\n      pop\n      pop\n      pop\n      jump\t// out\n        /* \"#utility.yul\":11330:11740   */\n    tag_90:\n        /* \"#utility.yul\":11370:11377   */\n      0x00\n        /* \"#utility.yul\":11393:11413   */\n      tag_241\n        /* \"#utility.yul\":11411:11412   */\n      dup3\n        /* \"#utility.yul\":11393:11413   */\n      tag_94\n      jump\t// in\n    tag_241:\n        /* \"#utility.yul\":11388:11413   */\n      swap2\n      pop\n        /* \"#utility.yul\":11427:11447   */\n      tag_242\n        /* \"#utility.yul\":11445:11446   */\n      dup4\n        /* \"#utility.yul\":11427:11447   */\n      tag_94\n      jump\t// in\n    tag_242:\n        /* \"#utility.yul\":11422:11447   */\n      swap3\n      pop\n        /* \"#utility.yul\":11482:11483   */\n      dup3\n        /* \"#utility.yul\":11479:11480   */\n      dup3\n        /* \"#utility.yul\":11475:11484   */\n      mul\n        /* \"#utility.yul\":11504:11534   */\n      tag_243\n        /* \"#utility.yul\":11522:11533   */\n      dup2\n        /* \"#utility.yul\":11504:11534   */\n      tag_94\n      jump\t// in\n    tag_243:\n        /* \"#utility.yul\":11493:11534   */\n      swap2\n      pop\n        /* \"#utility.yul\":11683:11684   */\n      dup3\n        /* \"#utility.yul\":11674:11681   */\n      dup3\n        /* \"#utility.yul\":11670:11685   */\n      div\n        /* \"#utility.yul\":11667:11668   */\n      dup5\n        /* \"#utility.yul\":11664:11686   */\n      eq\n        /* \"#utility.yul\":11644:11645   */\n      dup4\n        /* \"#utility.yul\":11637:11646   */\n      iszero\n        /* \"#utility.yul\":11617:11700   */\n      or\n        /* \"#utility.yul\":11594:11733   */\n      tag_244\n      jumpi\n        /* \"#utility.yul\":11713:11731   */\n      tag_245\n      tag_113\n      jump\t// in\n    tag_245:\n        /* \"#utility.yul\":11594:11733   */\n    tag_244:\n        /* \"#utility.yul\":11378:11740   */\n      pop\n        /* \"#utility.yul\":11330:11740   */\n      swap3\n      swap2\n      pop\n      pop\n      jump\t// out\n        /* \"#utility.yul\":11746:11926   */\n    tag_127:\n        /* \"#utility.yul\":11794:11871   */\n      0x4e487b7100000000000000000000000000000000000000000000000000000000\n        /* \"#utility.yul\":11791:11792   */\n      0x00\n        /* \"#utility.yul\":11784:11872   */\n      mstore\n        /* \"#utility.yul\":11891:11895   */\n      0x12\n        /* \"#utility.yul\":11888:11889   */\n      0x04\n        /* \"#utility.yul\":11881:11896   */\n      mstore\n        /* \"#utility.yul\":11915:11919   */\n      0x24\n        /* \"#utility.yul\":11912:11913   */\n      0x00\n        /* \"#utility.yul\":11905:11920   */\n      revert\n        /* \"#utility.yul\":11932:12117   */\n    tag_93:\n        /* \"#utility.yul\":11972:11973   */\n      0x00\n        /* \"#utility.yul\":11989:12009   */\n      tag_248\n        /* \"#utility.yul\":12007:12008   */\n      dup3\n        /* \"#utility.yul\":11989:12009   */\n      tag_94\n      jump\t// in\n    tag_248:\n        /* \"#utility.yul\":11984:12009   */\n      swap2\n      pop\n        /* \"#utility.yul\":12023:12043   */\n      tag_249\n        /* \"#utility.yul\":12041:12042   */\n      dup4\n        /* \"#utility.yul\":12023:12043   */\n      tag_94\n      jump\t// in\n    tag_249:\n        /* \"#utility.yul\":12018:12043   */\n      swap3\n      pop\n        /* \"#utility.yul\":12062:12063   */\n      dup3\n        /* \"#utility.yul\":12052:12087   */\n      tag_250\n      jumpi\n        /* \"#utility.yul\":12067:12085   */\n      tag_251\n      tag_127\n      jump\t// in\n    tag_251:\n        /* \"#utility.yul\":12052:12087   */\n    tag_250:\n        /* \"#utility.yul\":12109:12110   */\n      dup3\n        /* \"#utility.yul\":12106:12107   */\n      dup3\n        /* \"#utility.yul\":12102:12111   */\n      div\n        /* \"#utility.yul\":12097:12111   */\n      swap1\n      pop\n        /* \"#utility.yul\":11932:12117   */\n      swap3\n      swap2\n      pop\n      pop\n      jump\t// out\n\n    auxdata: 0xa264697066735822122067e1c54b2ad72f38d18a10a28aba33ff3d94c4a3e172da5a733acddbc98055b864736f6c634300081e0033\n}\n",
				"bytecode": {
					"linkReferences": {},
					"object": "608060405234801561000f575f5ffd5b5060405161106b38038061106b83398181016040528101906100319190610120565b815f5f6101000a81548173ffffffffffffffffffffffffffffffffffffffff021916908373ffffffffffffffffffffffffffffffffffffffff16021790555080600181905550505061015e565b5f5ffd5b5f73ffffffffffffffffffffffffffffffffffffffff82169050919050565b5f6100ab82610082565b9050919050565b5f6100bc826100a1565b9050919050565b6100cc816100b2565b81146100d6575f5ffd5b50565b5f815190506100e7816100c3565b92915050565b5f819050919050565b6100ff816100ed565b8114610109575f5ffd5b50565b5f8151905061011a816100f6565b92915050565b5f5f604083850312156101365761013561007e565b5b5f610143858286016100d9565b92505060206101548582860161010c565b9150509250929050565b610f008061016b5f395ff3fe608060405234801561000f575f5ffd5b5060043610610086575f3560e01c8063b750333e11610059578063b750333e146100fe578063c5ebeaec1461012e578063dad919ec1461014a578063fc0c546a1461017a57610086565b8063402d88831461008a5780637c3a00fd146100945780637f10883b146100b2578063a6aa57ce146100e2575b5f5ffd5b610092610198565b005b61009c6103b0565b6040516100a9919061085b565b60405180910390f35b6100cc60048036038101906100c791906108d2565b6103b6565b6040516100d9919061085b565b60405180910390f35b6100fc60048036038101906100f79190610927565b6103cb565b005b610118600480360381019061011391906108d2565b610501565b604051610125919061085b565b60405180910390f35b61014860048036038101906101439190610927565b610516565b005b610164600480360381019061015f91906108d2565b6107d4565b604051610171919061085b565b60405180910390f35b6101826107e9565b60405161018f91906109ad565b60405180910390f35b5f60035f3373ffffffffffffffffffffffffffffffffffffffff1673ffffffffffffffffffffffffffffffffffffffff1681526020019081526020015f205490505f60045f3373ffffffffffffffffffffffffffffffffffffffff1673ffffffffffffffffffffffffffffffffffffffff1681526020019081526020015f205490505f821161025c576040517f08c379a000000000000000000000000000000000000000000000000000000000815260040161025390610a20565b60405180910390fd5b5f81426102699190610a6b565b90505f610276848361080d565b90505f81856102859190610a9e565b90505f60035f3373ffffffffffffffffffffffffffffffffffffffff1673ffffffffffffffffffffffffffffffffffffffff1681526020019081526020015f20819055505f60045f3373ffffffffffffffffffffffffffffffffffffffff1673ffffffffffffffffffffffffffffffffffffffff1681526020019081526020015f20819055505f5f9054906101000a900473ffffffffffffffffffffffffffffffffffffffff1673ffffffffffffffffffffffffffffffffffffffff166323b872dd3330846040518463ffffffff1660e01b815260040161036893929190610ae0565b6020604051808303815f875af1158015610384573d5f5f3e3d5ffd5b505050506040513d601f19601f820116820180604052508101906103a89190610b4a565b505050505050565b60015481565b6002602052805f5260405f205f915090505481565b5f811161040d576040517f08c379a000000000000000000000000000000000000000000000000000000000815260040161040490610be5565b60405180910390fd5b8060025f3373ffffffffffffffffffffffffffffffffffffffff1673ffffffffffffffffffffffffffffffffffffffff1681526020019081526020015f205f8282546104599190610a9e565b925050819055505f5f9054906101000a900473ffffffffffffffffffffffffffffffffffffffff1673ffffffffffffffffffffffffffffffffffffffff166323b872dd3330846040518463ffffffff1660e01b81526004016104bd93929190610ae0565b6020604051808303815f875af11580156104d9573d5f5f3e3d5ffd5b505050506040513d601f19601f820116820180604052508101906104fd9190610b4a565b5050565b6003602052805f5260405f205f915090505481565b5f8111610558576040517f08c379a000000000000000000000000000000000000000000000000000000000815260040161054f90610c73565b60405180910390fd5b5f60035f3373ffffffffffffffffffffffffffffffffffffffff1673ffffffffffffffffffffffffffffffffffffffff1681526020019081526020015f2054146105d7576040517f08c379a00000000000000000000000000000000000000000000000000000000081526004016105ce90610d01565b60405180910390fd5b805f5f9054906101000a900473ffffffffffffffffffffffffffffffffffffffff1673ffffffffffffffffffffffffffffffffffffffff166370a08231306040518263ffffffff1660e01b81526004016106319190610d1f565b602060405180830381865afa15801561064c573d5f5f3e3d5ffd5b505050506040513d601f19601f820116820180604052508101906106709190610d4c565b10156106b1576040517f08c379a00000000000000000000000000000000000000000000000000000000081526004016106a890610de7565b60405180910390fd5b8060035f3373ffffffffffffffffffffffffffffffffffffffff1673ffffffffffffffffffffffffffffffffffffffff1681526020019081526020015f20819055504260045f3373ffffffffffffffffffffffffffffffffffffffff1673ffffffffffffffffffffffffffffffffffffffff1681526020019081526020015f20819055505f5f9054906101000a900473ffffffffffffffffffffffffffffffffffffffff1673ffffffffffffffffffffffffffffffffffffffff1663a9059cbb33836040518363ffffffff1660e01b8152600401610790929190610e05565b6020604051808303815f875af11580156107ac573d5f5f3e3d5ffd5b505050506040513d601f19601f820116820180604052508101906107d09190610b4a565b5050565b6004602052805f5260405f205f915090505481565b5f5f9054906101000a900473ffffffffffffffffffffffffffffffffffffffff1681565b5f5f63bbf81e0083600154866108239190610e2c565b61082d9190610e2c565b6108379190610e9a565b90508091505092915050565b5f819050919050565b61085581610843565b82525050565b5f60208201905061086e5f83018461084c565b92915050565b5f5ffd5b5f73ffffffffffffffffffffffffffffffffffffffff82169050919050565b5f6108a182610878565b9050919050565b6108b181610897565b81146108bb575f5ffd5b50565b5f813590506108cc816108a8565b92915050565b5f602082840312156108e7576108e6610874565b5b5f6108f4848285016108be565b91505092915050565b61090681610843565b8114610910575f5ffd5b50565b5f81359050610921816108fd565b92915050565b5f6020828403121561093c5761093b610874565b5b5f61094984828501610913565b91505092915050565b5f819050919050565b5f61097561097061096b84610878565b610952565b610878565b9050919050565b5f6109868261095b565b9050919050565b5f6109978261097c565b9050919050565b6109a78161098d565b82525050565b5f6020820190506109c05f83018461099e565b92915050565b5f82825260208201905092915050565b7f596f7520646f206e6f7420686176652061206c6f616e20746f207265706179005f82015250565b5f610a0a601f836109c6565b9150610a15826109d6565b602082019050919050565b5f6020820190508181035f830152610a37816109fe565b9050919050565b7f4e487b71000000000000000000000000000000000000000000000000000000005f52601160045260245ffd5b5f610a7582610843565b9150610a8083610843565b9250828203905081811115610a9857610a97610a3e565b5b92915050565b5f610aa882610843565b9150610ab383610843565b9250828201905080821115610acb57610aca610a3e565b5b92915050565b610ada81610897565b82525050565b5f606082019050610af35f830186610ad1565b610b006020830185610ad1565b610b0d604083018461084c565b949350505050565b5f8115159050919050565b610b2981610b15565b8114610b33575f5ffd5b50565b5f81519050610b4481610b20565b92915050565b5f60208284031215610b5f57610b5e610874565b5b5f610b6c84828501610b36565b91505092915050565b7f4c656e6420616d6f756e74206d7573742062652067726561746572207468616e5f8201527f207a65726f000000000000000000000000000000000000000000000000000000602082015250565b5f610bcf6025836109c6565b9150610bda82610b75565b604082019050919050565b5f6020820190508181035f830152610bfc81610bc3565b9050919050565b7f426f72726f7720616d6f756e74206d75737420626520677265617465722074685f8201527f616e207a65726f00000000000000000000000000000000000000000000000000602082015250565b5f610c5d6027836109c6565b9150610c6882610c03565b604082019050919050565b5f6020820190508181035f830152610c8a81610c51565b9050919050565b7f596f7520616c7265616479206861766520616e206f75747374616e64696e67205f8201527f6c6f616e00000000000000000000000000000000000000000000000000000000602082015250565b5f610ceb6024836109c6565b9150610cf682610c91565b604082019050919050565b5f6020820190508181035f830152610d1881610cdf565b9050919050565b5f602082019050610d325f830184610ad1565b92915050565b5f81519050610d46816108fd565b92915050565b5f60208284031215610d6157610d60610874565b5b5f610d6e84828501610d38565b91505092915050565b7f4e6f7420656e6f75676820746f6b656e7320696e2074686520706c6174666f725f8201527f6d00000000000000000000000000000000000000000000000000000000000000602082015250565b5f610dd16021836109c6565b9150610ddc82610d77565b604082019050919050565b5f6020820190508181035f830152610dfe81610dc5565b9050919050565b5f604082019050610e185f830185610ad1565b610e25602083018461084c565b9392505050565b5f610e3682610843565b9150610e4183610843565b9250828202610e4f81610843565b91508282048414831517610e6657610e65610a3e565b5b5092915050565b7f4e487b71000000000000000000000000000000000000000000000000000000005f52601260045260245ffd5b5f610ea482610843565b9150610eaf83610843565b925082610ebf57610ebe610e6d565b5b82820490509291505056fea264697066735822122067e1c54b2ad72f38d18a10a28aba33ff3d94c4a3e172da5a733acddbc98055b864736f6c634300081e0033",
					"opcodes": "PUSH1 0x80 PUSH1 0x40 MSTORE CALLVALUE DUP1 ISZERO PUSH2 0xF JUMPI PUSH0 PUSH0 REVERT JUMPDEST POP PUSH1 0x40 MLOAD PUSH2 0x106B CODESIZE SUB DUP1 PUSH2 0x106B DUP4 CODECOPY DUP2 DUP2 ADD PUSH1 0x40 MSTORE DUP2 ADD SWAP1 PUSH2 0x31 SWAP2 SWAP1 PUSH2 0x120 JUMP JUMPDEST DUP2 PUSH0 PUSH0 PUSH2 0x100 EXP DUP2 SLOAD DUP2 PUSH20 0xFFFFFFFFFFFFFFFFFFFFFFFFFFFFFFFFFFFFFFFF MUL NOT AND SWAP1 DUP4 PUSH20 0xFFFFFFFFFFFFFFFFFFFFFFFFFFFFFFFFFFFFFFFF AND MUL OR SWAP1 SSTORE POP DUP1 PUSH1 0x1 DUP2 SWAP1 SSTORE POP POP POP PUSH2 0x15E JUMP JUMPDEST PUSH0 PUSH0 REVERT JUMPDEST PUSH0 PUSH20 0xFFFFFFFFFFFFFFFFFFFFFFFFFFFFFFFFFFFFFFFF DUP3 AND SWAP1 POP SWAP2 SWAP1 POP JUMP JUMPDEST PUSH0 PUSH2 0xAB DUP3 PUSH2 0x82 JUMP JUMPDEST SWAP1 POP SWAP2 SWAP1 POP JUMP JUMPDEST PUSH0 PUSH2 0xBC DUP3 PUSH2 0xA1 JUMP JUMPDEST SWAP1 POP SWAP2 SWAP1 POP JUMP JUMPDEST PUSH2 0xCC DUP2 PUSH2 0xB2 JUMP JUMPDEST DUP2 EQ PUSH2 0xD6 JUMPI PUSH0 PUSH0 REVERT JUMPDEST POP JUMP JUMPDEST PUSH0 DUP2 MLOAD SWAP1 POP PUSH2 0xE7 DUP2 PUSH2 0xC3 JUMP JUMPDEST SWAP3 SWAP2 POP POP JUMP JUMPDEST PUSH0 DUP2 SWAP1 POP SWAP2 SWAP1 POP JUMP JUMPDEST PUSH2 0xFF DUP2 PUSH2 0xED JUMP JUMPDEST DUP2 EQ PUSH2 0x109 JUMPI PUSH0 PUSH0 REVERT JUMPDEST POP JUMP JUMPDEST PUSH0 DUP2 MLOAD SWAP1 POP PUSH2 0x11A DUP2 PUSH2 0xF6 JUMP JUMPDEST SWAP3 SWAP2 POP POP JUMP JUMPDEST PUSH0 PUSH0 PUSH1 0x40 DUP4 DUP6 SUB SLT ISZERO PUSH2 0x136 JUMPI PUSH2 0x135 PUSH2 0x7E JUMP JUMPDEST JUMPDEST PUSH0 PUSH2 0x143 DUP6 DUP3 DUP7 ADD PUSH2 0xD9 JUMP JUMPDEST SWAP3 POP POP PUSH1 0x20 PUSH2 0x154 DUP6 DUP3 DUP7 ADD PUSH2 0x10C JUMP JUMPDEST SWAP2 POP POP SWAP3 POP SWAP3 SWAP1 POP JUMP JUMPDEST PUSH2 0xF00 DUP1 PUSH2 0x16B PUSH0 CODECOPY PUSH0 RETURN INVALID PUSH1 0x80 PUSH1 0x40 MSTORE CALLVALUE DUP1 ISZERO PUSH2 0xF JUMPI PUSH0 PUSH0 REVERT JUMPDEST POP PUSH1 0x4 CALLDATASIZE LT PUSH2 0x86 JUMPI PUSH0 CALLDATALOAD PUSH1 0xE0 SHR DUP1 PUSH4 0xB750333E GT PUSH2 0x59 JUMPI DUP1 PUSH4 0xB750333E EQ PUSH2 0xFE JUMPI DUP1 PUSH4 0xC5EBEAEC EQ PUSH2 0x12E JUMPI DUP1 PUSH4 0xDAD919EC EQ PUSH2 0x14A JUMPI DUP1 PUSH4 0xFC0C546A EQ PUSH2 0x17A JUMPI PUSH2 0x86 JUMP JUMPDEST DUP1 PUSH4 0x402D8883 EQ PUSH2 0x8A JUMPI DUP1 PUSH4 0x7C3A00FD EQ PUSH2 0x94 JUMPI DUP1 PUSH4 0x7F10883B EQ PUSH2 0xB2 JUMPI DUP1 PUSH4 0xA6AA57CE EQ PUSH2 0xE2 JUMPI JUMPDEST PUSH0 PUSH0 REVERT JUMPDEST PUSH2 0x92 PUSH2 0x198 JUMP JUMPDEST STOP JUMPDEST PUSH2 0x9C PUSH2 0x3B0 JUMP JUMPDEST PUSH1 0x40 MLOAD PUSH2 0xA9 SWAP2 SWAP1 PUSH2 0x85B JUMP JUMPDEST PUSH1 0x40 MLOAD DUP1 SWAP2 SUB SWAP1 RETURN JUMPDEST PUSH2 0xCC PUSH1 0x4 DUP1 CALLDATASIZE SUB DUP2 ADD SWAP1 PUSH2 0xC7 SWAP2 SWAP1 PUSH2 0x8D2 JUMP JUMPDEST PUSH2 0x3B6 JUMP JUMPDEST PUSH1 0x40 MLOAD PUSH2 0xD9 SWAP2 SWAP1 PUSH2 0x85B JUMP JUMPDEST PUSH1 0x40 MLOAD DUP1 SWAP2 SUB SWAP1 RETURN JUMPDEST PUSH2 0xFC PUSH1 0x4 DUP1 CALLDATASIZE SUB DUP2 ADD SWAP1 PUSH2 0xF7 SWAP2 SWAP1 PUSH2 0x927 JUMP JUMPDEST PUSH2 0x3CB JUMP JUMPDEST STOP JUMPDEST PUSH2 0x118 PUSH1 0x4 DUP1 CALLDATASIZE SUB DUP2 ADD SWAP1 PUSH2 0x113 SWAP2 SWAP1 PUSH2 0x8D2 JUMP JUMPDEST PUSH2 0x501 JUMP JUMPDEST PUSH1 0x40 MLOAD PUSH2 0x125 SWAP2 SWAP1 PUSH2 0x85B JUMP JUMPDEST PUSH1 0x40 MLOAD DUP1 SWAP2 SUB SWAP1 RETURN JUMPDEST PUSH2 0x148 PUSH1 0x4 DUP1 CALLDATASIZE SUB DUP2 ADD SWAP1 PUSH2 0x143 SWAP2 SWAP1 PUSH2 0x927 JUMP JUMPDEST PUSH2 0x516 JUMP JUMPDEST STOP JUMPDEST PUSH2 0x164 PUSH1 0x4 DUP1 CALLDATASIZE SUB DUP2 ADD SWAP1 PUSH2 0x15F SWAP2 SWAP1 PUSH2 0x8D2 JUMP JUMPDEST PUSH2 0x7D4 JUMP JUMPDEST PUSH1 0x40 MLOAD PUSH2 0x171 SWAP2 SWAP1 PUSH2 0x85B JUMP JUMPDEST PUSH1 0x40 MLOAD DUP1 SWAP2 SUB SWAP1 RETURN JUMPDEST PUSH2 0x182 PUSH2 0x7E9 JUMP JUMPDEST PUSH1 0x40 MLOAD PUSH2 0x18F SWAP2 SWAP1 PUSH2 0x9AD JUMP JUMPDEST PUSH1 0x40 MLOAD DUP1 SWAP2 SUB SWAP1 RETURN JUMPDEST PUSH0 PUSH1 0x3 PUSH0 CALLER PUSH20 0xFFFFFFFFFFFFFFFFFFFFFFFFFFFFFFFFFFFFFFFF AND PUSH20 0xFFFFFFFFFFFFFFFFFFFFFFFFFFFFFFFFFFFFFFFF AND DUP2 MSTORE PUSH1 0x20 ADD SWAP1 DUP2 MSTORE PUSH1 0x20 ADD PUSH0 KECCAK256 SLOAD SWAP1 POP PUSH0 PUSH1 0x4 PUSH0 CALLER PUSH20 0xFFFFFFFFFFFFFFFFFFFFFFFFFFFFFFFFFFFFFFFF AND PUSH20 0xFFFFFFFFFFFFFFFFFFFFFFFFFFFFFFFFFFFFFFFF AND DUP2 MSTORE PUSH1 0x20 ADD SWAP1 DUP2 MSTORE PUSH1 0x20 ADD PUSH0 KECCAK256 SLOAD SWAP1 POP PUSH0 DUP3 GT PUSH2 0x25C JUMPI PUSH1 0x40 MLOAD PUSH32 0x8C379A000000000000000000000000000000000000000000000000000000000 DUP2 MSTORE PUSH1 0x4 ADD PUSH2 0x253 SWAP1 PUSH2 0xA20 JUMP JUMPDEST PUSH1 0x40 MLOAD DUP1 SWAP2 SUB SWAP1 REVERT JUMPDEST PUSH0 DUP2 TIMESTAMP PUSH2 0x269 SWAP2 SWAP1 PUSH2 0xA6B JUMP JUMPDEST SWAP1 POP PUSH0 PUSH2 0x276 DUP5 DUP4 PUSH2 0x80D JUMP JUMPDEST SWAP1 POP PUSH0 DUP2 DUP6 PUSH2 0x285 SWAP2 SWAP1 PUSH2 0xA9E JUMP JUMPDEST SWAP1 POP PUSH0 PUSH1 0x3 PUSH0 CALLER PUSH20 0xFFFFFFFFFFFFFFFFFFFFFFFFFFFFFFFFFFFFFFFF AND PUSH20 0xFFFFFFFFFFFFFFFFFFFFFFFFFFFFFFFFFFFFFFFF AND DUP2 MSTORE PUSH1 0x20 ADD SWAP1 DUP2 MSTORE PUSH1 0x20 ADD PUSH0 KECCAK256 DUP2 SWAP1 SSTORE POP PUSH0 PUSH1 0x4 PUSH0 CALLER PUSH20 0xFFFFFFFFFFFFFFFFFFFFFFFFFFFFFFFFFFFFFFFF AND PUSH20 0xFFFFFFFFFFFFFFFFFFFFFFFFFFFFFFFFFFFFFFFF AND DUP2 MSTORE PUSH1 0x20 ADD SWAP1 DUP2 MSTORE PUSH1 0x20 ADD PUSH0 KECCAK256 DUP2 SWAP1 SSTORE POP PUSH0 PUSH0 SWAP1 SLOAD SWAP1 PUSH2 0x100 EXP SWAP1 DIV PUSH20 0xFFFFFFFFFFFFFFFFFFFFFFFFFFFFFFFFFFFFFFFF AND PUSH20 0xFFFFFFFFFFFFFFFFFFFFFFFFFFFFFFFFFFFFFFFF AND PUSH4 0x23B872DD CALLER ADDRESS DUP5 PUSH1 0x40 MLOAD DUP5 PUSH4 0xFFFFFFFF AND PUSH1 0xE0 SHL DUP2 MSTORE PUSH1 0x4 ADD PUSH2 0x368 SWAP4 SWAP3 SWAP2 SWAP1 PUSH2 0xAE0 JUMP JUMPDEST PUSH1 0x20 PUSH1 0x40 MLOAD DUP1 DUP4 SUB DUP2 PUSH0 DUP8 GAS CALL ISZERO DUP1 ISZERO PUSH2 0x384 JUMPI RETURNDATASIZE PUSH0 PUSH0 RETURNDATACOPY RETURNDATASIZE PUSH0 REVERT JUMPDEST POP POP POP POP PUSH1 0x40 MLOAD RETURNDATASIZE PUSH1 0x1F NOT PUSH1 0x1F DUP3 ADD AND DUP3 ADD DUP1 PUSH1 0x40 MSTORE POP DUP2 ADD SWAP1 PUSH2 0x3A8 SWAP2 SWAP1 PUSH2 0xB4A JUMP JUMPDEST POP POP POP POP POP POP JUMP JUMPDEST PUSH1 0x1 SLOAD DUP2 JUMP JUMPDEST PUSH1 0x2 PUSH1 0x20 MSTORE DUP1 PUSH0 MSTORE PUSH1 0x40 PUSH0 KECCAK256 PUSH0 SWAP2 POP SWAP1 POP SLOAD DUP2 JUMP JUMPDEST PUSH0 DUP2 GT PUSH2 0x40D JUMPI PUSH1 0x40 MLOAD PUSH32 0x8C379A000000000000000000000000000000000000000000000000000000000 DUP2 MSTORE PUSH1 0x4 ADD PUSH2 0x404 SWAP1 PUSH2 0xBE5 JUMP JUMPDEST PUSH1 0x40 MLOAD DUP1 SWAP2 SUB SWAP1 REVERT JUMPDEST DUP1 PUSH1 0x2 PUSH0 CALLER PUSH20 0xFFFFFFFFFFFFFFFFFFFFFFFFFFFFFFFFFFFFFFFF AND PUSH20 0xFFFFFFFFFFFFFFFFFFFFFFFFFFFFFFFFFFFFFFFF AND DUP2 MSTORE PUSH1 0x20 ADD SWAP1 DUP2 MSTORE PUSH1 0x20 ADD PUSH0 KECCAK256 PUSH0 DUP3 DUP3 SLOAD PUSH2 0x459 SWAP2 SWAP1 PUSH2 0xA9E JUMP JUMPDEST SWAP3 POP POP DUP2 SWAP1 SSTORE POP PUSH0 PUSH0 SWAP1 SLOAD SWAP1 PUSH2 0x100 EXP SWAP1 DIV PUSH20 0xFFFFFFFFFFFFFFFFFFFFFFFFFFFFFFFFFFFFFFFF AND PUSH20 0xFFFFFFFFFFFFFFFFFFFFFFFFFFFFFFFFFFFFFFFF AND PUSH4 0x23B872DD CALLER ADDRESS DUP5 PUSH1 0x40 MLOAD DUP5 PUSH4 0xFFFFFFFF AND PUSH1 0xE0 SHL DUP2 MSTORE PUSH1 0x4 ADD PUSH2 0x4BD SWAP4 SWAP3 SWAP2 SWAP1 PUSH2 0xAE0 JUMP JUMPDEST PUSH1 0x20 PUSH1 0x40 MLOAD DUP1 DUP4 SUB DUP2 PUSH0 DUP8 GAS CALL ISZERO DUP1 ISZERO PUSH2 0x4D9 JUMPI RETURNDATASIZE PUSH0 PUSH0 RETURNDATACOPY RETURNDATASIZE PUSH0 REVERT JUMPDEST POP POP POP POP PUSH1 0x40 MLOAD RETURNDATASIZE PUSH1 0x1F NOT PUSH1 0x1F DUP3 ADD AND DUP3 ADD DUP1 PUSH1 0x40 MSTORE POP DUP2 ADD SWAP1 PUSH2 0x4FD SWAP2 SWAP1 PUSH2 0xB4A JUMP JUMPDEST POP POP JUMP JUMPDEST PUSH1 0x3 PUSH1 0x20 MSTORE DUP1 PUSH0 MSTORE PUSH1 0x40 PUSH0 KECCAK256 PUSH0 SWAP2 POP SWAP1 POP SLOAD DUP2 JUMP JUMPDEST PUSH0 DUP2 GT PUSH2 0x558 JUMPI PUSH1 0x40 MLOAD PUSH32 0x8C379A000000000000000000000000000000000000000000000000000000000 DUP2 MSTORE PUSH1 0x4 ADD PUSH2 0x54F SWAP1 PUSH2 0xC73 JUMP JUMPDEST PUSH1 0x40 MLOAD DUP1 SWAP2 SUB SWAP1 REVERT JUMPDEST PUSH0 PUSH1 0x3 PUSH0 CALLER PUSH20 0xFFFFFFFFFFFFFFFFFFFFFFFFFFFFFFFFFFFFFFFF AND PUSH20 0xFFFFFFFFFFFFFFFFFFFFFFFFFFFFFFFFFFFFFFFF AND DUP2 MSTORE PUSH1 0x20 ADD SWAP1 DUP2 MSTORE PUSH1 0x20 ADD PUSH0 KECCAK256 SLOAD EQ PUSH2 0x5D7 JUMPI PUSH1 0x40 MLOAD PUSH32 0x8C379A000000000000000000000000000000000000000000000000000000000 DUP2 MSTORE PUSH1 0x4 ADD PUSH2 0x5CE SWAP1 PUSH2 0xD01 JUMP JUMPDEST PUSH1 0x40 MLOAD DUP1 SWAP2 SUB SWAP1 REVERT JUMPDEST DUP1 PUSH0 PUSH0 SWAP1 SLOAD SWAP1 PUSH2 0x100 EXP SWAP1 DIV PUSH20 0xFFFFFFFFFFFFFFFFFFFFFFFFFFFFFFFFFFFFFFFF AND PUSH20 0xFFFFFFFFFFFFFFFFFFFFFFFFFFFFFFFFFFFFFFFF AND PUSH4 0x70A08231 ADDRESS PUSH1 0x40 MLOAD DUP3 PUSH4 0xFFFFFFFF AND PUSH1 0xE0 SHL DUP2 MSTORE PUSH1 0x4 ADD PUSH2 0x631 SWAP2 SWAP1 PUSH2 0xD1F JUMP JUMPDEST PUSH1 0x20 PUSH1 0x40 MLOAD DUP1 DUP4 SUB DUP2 DUP7 GAS STATICCALL ISZERO DUP1 ISZERO PUSH2 0x64C JUMPI RETURNDATASIZE PUSH0 PUSH0 RETURNDATACOPY RETURNDATASIZE PUSH0 REVERT JUMPDEST POP POP POP POP PUSH1 0x40 MLOAD RETURNDATASIZE PUSH1 0x1F NOT PUSH1 0x1F DUP3 ADD AND DUP3 ADD DUP1 PUSH1 0x40 MSTORE POP DUP2 ADD SWAP1 PUSH2 0x670 SWAP2 SWAP1 PUSH2 0xD4C JUMP JUMPDEST LT ISZERO PUSH2 0x6B1 JUMPI PUSH1 0x40 MLOAD PUSH32 0x8C379A000000000000000000000000000000000000000000000000000000000 DUP2 MSTORE PUSH1 0x4 ADD PUSH2 0x6A8 SWAP1 PUSH2 0xDE7 JUMP JUMPDEST PUSH1 0x40 MLOAD DUP1 SWAP2 SUB SWAP1 REVERT JUMPDEST DUP1 PUSH1 0x3 PUSH0 CALLER PUSH20 0xFFFFFFFFFFFFFFFFFFFFFFFFFFFFFFFFFFFFFFFF AND PUSH20 0xFFFFFFFFFFFFFFFFFFFFFFFFFFFFFFFFFFFFFFFF AND DUP2 MSTORE PUSH1 0x20 ADD SWAP1 DUP2 MSTORE PUSH1 0x20 ADD PUSH0 KECCAK256 DUP2 SWAP1 SSTORE POP TIMESTAMP PUSH1 0x4 PUSH0 CALLER PUSH20 0xFFFFFFFFFFFFFFFFFFFFFFFFFFFFFFFFFFFFFFFF AND PUSH20 0xFFFFFFFFFFFFFFFFFFFFFFFFFFFFFFFFFFFFFFFF AND DUP2 MSTORE PUSH1 0x20 ADD SWAP1 DUP2 MSTORE PUSH1 0x20 ADD PUSH0 KECCAK256 DUP2 SWAP1 SSTORE POP PUSH0 PUSH0 SWAP1 SLOAD SWAP1 PUSH2 0x100 EXP SWAP1 DIV PUSH20 0xFFFFFFFFFFFFFFFFFFFFFFFFFFFFFFFFFFFFFFFF AND PUSH20 0xFFFFFFFFFFFFFFFFFFFFFFFFFFFFFFFFFFFFFFFF AND PUSH4 0xA9059CBB CALLER DUP4 PUSH1 0x40 MLOAD DUP4 PUSH4 0xFFFFFFFF AND PUSH1 0xE0 SHL DUP2 MSTORE PUSH1 0x4 ADD PUSH2 0x790 SWAP3 SWAP2 SWAP1 PUSH2 0xE05 JUMP JUMPDEST PUSH1 0x20 PUSH1 0x40 MLOAD DUP1 DUP4 SUB DUP2 PUSH0 DUP8 GAS CALL ISZERO DUP1 ISZERO PUSH2 0x7AC JUMPI RETURNDATASIZE PUSH0 PUSH0 RETURNDATACOPY RETURNDATASIZE PUSH0 REVERT JUMPDEST POP POP POP POP PUSH1 0x40 MLOAD RETURNDATASIZE PUSH1 0x1F NOT PUSH1 0x1F DUP3 ADD AND DUP3 ADD DUP1 PUSH1 0x40 MSTORE POP DUP2 ADD SWAP1 PUSH2 0x7D0 SWAP2 SWAP1 PUSH2 0xB4A JUMP JUMPDEST POP POP JUMP JUMPDEST PUSH1 0x4 PUSH1 0x20 MSTORE DUP1 PUSH0 MSTORE PUSH1 0x40 PUSH0 KECCAK256 PUSH0 SWAP2 POP SWAP1 POP SLOAD DUP2 JUMP JUMPDEST PUSH0 PUSH0 SWAP1 SLOAD SWAP1 PUSH2 0x100 EXP SWAP1 DIV PUSH20 0xFFFFFFFFFFFFFFFFFFFFFFFFFFFFFFFFFFFFFFFF AND DUP2 JUMP JUMPDEST PUSH0 PUSH0 PUSH4 0xBBF81E00 DUP4 PUSH1 0x1 SLOAD DUP7 PUSH2 0x823 SWAP2 SWAP1 PUSH2 0xE2C JUMP JUMPDEST PUSH2 0x82D SWAP2 SWAP1 PUSH2 0xE2C JUMP JUMPDEST PUSH2 0x837 SWAP2 SWAP1 PUSH2 0xE9A JUMP JUMPDEST SWAP1 POP DUP1 SWAP2 POP POP SWAP3 SWAP2 POP POP JUMP JUMPDEST PUSH0 DUP2 SWAP1 POP SWAP2 SWAP1 POP JUMP JUMPDEST PUSH2 0x855 DUP2 PUSH2 0x843 JUMP JUMPDEST DUP3 MSTORE POP POP JUMP JUMPDEST PUSH0 PUSH1 0x20 DUP3 ADD SWAP1 POP PUSH2 0x86E PUSH0 DUP4 ADD DUP5 PUSH2 0x84C JUMP JUMPDEST SWAP3 SWAP2 POP POP JUMP JUMPDEST PUSH0 PUSH0 REVERT JUMPDEST PUSH0 PUSH20 0xFFFFFFFFFFFFFFFFFFFFFFFFFFFFFFFFFFFFFFFF DUP3 AND SWAP1 POP SWAP2 SWAP1 POP JUMP JUMPDEST PUSH0 PUSH2 0x8A1 DUP3 PUSH2 0x878 JUMP JUMPDEST SWAP1 POP SWAP2 SWAP1 POP JUMP JUMPDEST PUSH2 0x8B1 DUP2 PUSH2 0x897 JUMP JUMPDEST DUP2 EQ PUSH2 0x8BB JUMPI PUSH0 PUSH0 REVERT JUMPDEST POP JUMP JUMPDEST PUSH0 DUP2 CALLDATALOAD SWAP1 POP PUSH2 0x8CC DUP2 PUSH2 0x8A8 JUMP JUMPDEST SWAP3 SWAP2 POP POP JUMP JUMPDEST PUSH0 PUSH1 0x20 DUP3 DUP5 SUB SLT ISZERO PUSH2 0x8E7 JUMPI PUSH2 0x8E6 PUSH2 0x874 JUMP JUMPDEST JUMPDEST PUSH0 PUSH2 0x8F4 DUP5 DUP3 DUP6 ADD PUSH2 0x8BE JUMP JUMPDEST SWAP2 POP POP SWAP3 SWAP2 POP POP JUMP JUMPDEST PUSH2 0x906 DUP2 PUSH2 0x843 JUMP JUMPDEST DUP2 EQ PUSH2 0x910 JUMPI PUSH0 PUSH0 REVERT JUMPDEST POP JUMP JUMPDEST PUSH0 DUP2 CALLDATALOAD SWAP1 POP PUSH2 0x921 DUP2 PUSH2 0x8FD JUMP JUMPDEST SWAP3 SWAP2 POP POP JUMP JUMPDEST PUSH0 PUSH1 0x20 DUP3 DUP5 SUB SLT ISZERO PUSH2 0x93C JUMPI PUSH2 0x93B PUSH2 0x874 JUMP JUMPDEST JUMPDEST PUSH0 PUSH2 0x949 DUP5 DUP3 DUP6 ADD PUSH2 0x913 JUMP JUMPDEST SWAP2 POP POP SWAP3 SWAP2 POP POP JUMP JUMPDEST PUSH0 DUP2 SWAP1 POP SWAP2 SWAP1 POP JUMP JUMPDEST PUSH0 PUSH2 0x975 PUSH2 0x970 PUSH2 0x96B DUP5 PUSH2 0x878 JUMP JUMPDEST PUSH2 0x952 JUMP JUMPDEST PUSH2 0x878 JUMP JUMPDEST SWAP1 POP SWAP2 SWAP1 POP JUMP JUMPDEST PUSH0 PUSH2 0x986 DUP3 PUSH2 0x95B JUMP JUMPDEST SWAP1 POP SWAP2 SWAP1 POP JUMP JUMPDEST PUSH0 PUSH2 0x997 DUP3 PUSH2 0x97C JUMP JUMPDEST SWAP1 POP SWAP2 SWAP1 POP JUMP JUMPDEST PUSH2 0x9A7 DUP2 PUSH2 0x98D JUMP JUMPDEST DUP3 MSTORE POP POP JUMP JUMPDEST PUSH0 PUSH1 0x20 DUP3 ADD SWAP1 POP PUSH2 0x9C0 PUSH0 DUP4 ADD DUP5 PUSH2 0x99E JUMP JUMPDEST SWAP3 SWAP2 POP POP JUMP JUMPDEST PUSH0 DUP3 DUP3 MSTORE PUSH1 0x20 DUP3 ADD SWAP1 POP SWAP3 SWAP2 POP POP JUMP JUMPDEST PUSH32 0x596F7520646F206E6F7420686176652061206C6F616E20746F20726570617900 PUSH0 DUP3 ADD MSTORE POP JUMP JUMPDEST PUSH0 PUSH2 0xA0A PUSH1 0x1F DUP4 PUSH2 0x9C6 JUMP JUMPDEST SWAP2 POP PUSH2 0xA15 DUP3 PUSH2 0x9D6 JUMP JUMPDEST PUSH1 0x20 DUP3 ADD SWAP1 POP SWAP2 SWAP1 POP JUMP JUMPDEST PUSH0 PUSH1 0x20 DUP3 ADD SWAP1 POP DUP2 DUP2 SUB PUSH0 DUP4 ADD MSTORE PUSH2 0xA37 DUP2 PUSH2 0x9FE JUMP JUMPDEST SWAP1 POP SWAP2 SWAP1 POP JUMP JUMPDEST PUSH32 0x4E487B7100000000000000000000000000000000000000000000000000000000 PUSH0 MSTORE PUSH1 0x11 PUSH1 0x4 MSTORE PUSH1 0x24 PUSH0 REVERT JUMPDEST PUSH0 PUSH2 0xA75 DUP3 PUSH2 0x843 JUMP JUMPDEST SWAP2 POP PUSH2 0xA80 DUP4 PUSH2 0x843 JUMP JUMPDEST SWAP3 POP DUP3 DUP3 SUB SWAP1 POP DUP2 DUP2 GT ISZERO PUSH2 0xA98 JUMPI PUSH2 0xA97 PUSH2 0xA3E JUMP JUMPDEST JUMPDEST SWAP3 SWAP2 POP POP JUMP JUMPDEST PUSH0 PUSH2 0xAA8 DUP3 PUSH2 0x843 JUMP JUMPDEST SWAP2 POP PUSH2 0xAB3 DUP4 PUSH2 0x843 JUMP JUMPDEST SWAP3 POP DUP3 DUP3 ADD SWAP1 POP DUP1 DUP3 GT ISZERO PUSH2 0xACB JUMPI PUSH2 0xACA PUSH2 0xA3E JUMP JUMPDEST JUMPDEST SWAP3 SWAP2 POP POP JUMP JUMPDEST PUSH2 0xADA DUP2 PUSH2 0x897 JUMP JUMPDEST DUP3 MSTORE POP POP JUMP JUMPDEST PUSH0 PUSH1 0x60 DUP3 ADD SWAP1 POP PUSH2 0xAF3 PUSH0 DUP4 ADD DUP7 PUSH2 0xAD1 JUMP JUMPDEST PUSH2 0xB00 PUSH1 0x20 DUP4 ADD DUP6 PUSH2 0xAD1 JUMP JUMPDEST PUSH2 0xB0D PUSH1 0x40 DUP4 ADD DUP5 PUSH2 0x84C JUMP JUMPDEST SWAP5 SWAP4 POP POP POP POP JUMP JUMPDEST PUSH0 DUP2 ISZERO ISZERO SWAP1 POP SWAP2 SWAP1 POP JUMP JUMPDEST PUSH2 0xB29 DUP2 PUSH2 0xB15 JUMP JUMPDEST DUP2 EQ PUSH2 0xB33 JUMPI PUSH0 PUSH0 REVERT JUMPDEST POP JUMP JUMPDEST PUSH0 DUP2 MLOAD SWAP1 POP PUSH2 0xB44 DUP2 PUSH2 0xB20 JUMP JUMPDEST SWAP3 SWAP2 POP POP JUMP JUMPDEST PUSH0 PUSH1 0x20 DUP3 DUP5 SUB SLT ISZERO PUSH2 0xB5F JUMPI PUSH2 0xB5E PUSH2 0x874 JUMP JUMPDEST JUMPDEST PUSH0 PUSH2 0xB6C DUP5 DUP3 DUP6 ADD PUSH2 0xB36 JUMP JUMPDEST SWAP2 POP POP SWAP3 SWAP2 POP POP JUMP JUMPDEST PUSH32 0x4C656E6420616D6F756E74206D7573742062652067726561746572207468616E PUSH0 DUP3 ADD MSTORE PUSH32 0x207A65726F000000000000000000000000000000000000000000000000000000 PUSH1 0x20 DUP3 ADD MSTORE POP JUMP JUMPDEST PUSH0 PUSH2 0xBCF PUSH1 0x25 DUP4 PUSH2 0x9C6 JUMP JUMPDEST SWAP2 POP PUSH2 0xBDA DUP3 PUSH2 0xB75 JUMP JUMPDEST PUSH1 0x40 DUP3 ADD SWAP1 POP SWAP2 SWAP1 POP JUMP JUMPDEST PUSH0 PUSH1 0x20 DUP3 ADD SWAP1 POP DUP2 DUP2 SUB PUSH0 DUP4 ADD MSTORE PUSH2 0xBFC DUP2 PUSH2 0xBC3 JUMP JUMPDEST SWAP1 POP SWAP2 SWAP1 POP JUMP JUMPDEST PUSH32 0x426F72726F7720616D6F756E74206D7573742062652067726561746572207468 PUSH0 DUP3 ADD MSTORE PUSH32 0x616E207A65726F00000000000000000000000000000000000000000000000000 PUSH1 0x20 DUP3 ADD MSTORE POP JUMP JUMPDEST PUSH0 PUSH2 0xC5D PUSH1 0x27 DUP4 PUSH2 0x9C6 JUMP JUMPDEST SWAP2 POP PUSH2 0xC68 DUP3 PUSH2 0xC03 JUMP JUMPDEST PUSH1 0x40 DUP3 ADD SWAP1 POP SWAP2 SWAP1 POP JUMP JUMPDEST PUSH0 PUSH1 0x20 DUP3 ADD SWAP1 POP DUP2 DUP2 SUB PUSH0 DUP4 ADD MSTORE PUSH2 0xC8A DUP2 PUSH2 0xC51 JUMP JUMPDEST SWAP1 POP SWAP2 SWAP1 POP JUMP JUMPDEST PUSH32 0x596F7520616C7265616479206861766520616E206F75747374616E64696E6720 PUSH0 DUP3 ADD MSTORE PUSH32 0x6C6F616E00000000000000000000000000000000000000000000000000000000 PUSH1 0x20 DUP3 ADD MSTORE POP JUMP JUMPDEST PUSH0 PUSH2 0xCEB PUSH1 0x24 DUP4 PUSH2 0x9C6 JUMP JUMPDEST SWAP2 POP PUSH2 0xCF6 DUP3 PUSH2 0xC91 JUMP JUMPDEST PUSH1 0x40 DUP3 ADD SWAP1 POP SWAP2 SWAP1 POP JUMP JUMPDEST PUSH0 PUSH1 0x20 DUP3 ADD SWAP1 POP DUP2 DUP2 SUB PUSH0 DUP4 ADD MSTORE PUSH2 0xD18 DUP2 PUSH2 0xCDF JUMP JUMPDEST SWAP1 POP SWAP2 SWAP1 POP JUMP JUMPDEST PUSH0 PUSH1 0x20 DUP3 ADD SWAP1 POP PUSH2 0xD32 PUSH0 DUP4 ADD DUP5 PUSH2 0xAD1 JUMP JUMPDEST SWAP3 SWAP2 POP POP JUMP JUMPDEST PUSH0 DUP2 MLOAD SWAP1 POP PUSH2 0xD46 DUP2 PUSH2 0x8FD JUMP JUMPDEST SWAP3 SWAP2 POP POP JUMP JUMPDEST PUSH0 PUSH1 0x20 DUP3 DUP5 SUB SLT ISZERO PUSH2 0xD61 JUMPI PUSH2 0xD60 PUSH2 0x874 JUMP JUMPDEST JUMPDEST PUSH0 PUSH2 0xD6E DUP5 DUP3 DUP6 ADD PUSH2 0xD38 JUMP JUMPDEST SWAP2 POP POP SWAP3 SWAP2 POP POP JUMP JUMPDEST PUSH32 0x4E6F7420656E6F75676820746F6B656E7320696E2074686520706C6174666F72 PUSH0 DUP3 ADD MSTORE PUSH32 0x6D00000000000000000000000000000000000000000000000000000000000000 PUSH1 0x20 DUP3 ADD MSTORE POP JUMP JUMPDEST PUSH0 PUSH2 0xDD1 PUSH1 0x21 DUP4 PUSH2 0x9C6 JUMP JUMPDEST SWAP2 POP PUSH2 0xDDC DUP3 PUSH2 0xD77 JUMP JUMPDEST PUSH1 0x40 DUP3 ADD SWAP1 POP SWAP2 SWAP1 POP JUMP JUMPDEST PUSH0 PUSH1 0x20 DUP3 ADD SWAP1 POP DUP2 DUP2 SUB PUSH0 DUP4 ADD MSTORE PUSH2 0xDFE DUP2 PUSH2 0xDC5 JUMP JUMPDEST SWAP1 POP SWAP2 SWAP1 POP JUMP JUMPDEST PUSH0 PUSH1 0x40 DUP3 ADD SWAP1 POP PUSH2 0xE18 PUSH0 DUP4 ADD DUP6 PUSH2 0xAD1 JUMP JUMPDEST PUSH2 0xE25 PUSH1 0x20 DUP4 ADD DUP5 PUSH2 0x84C JUMP JUMPDEST SWAP4 SWAP3 POP POP POP JUMP JUMPDEST PUSH0 PUSH2 0xE36 DUP3 PUSH2 0x843 JUMP JUMPDEST SWAP2 POP PUSH2 0xE41 DUP4 PUSH2 0x843 JUMP JUMPDEST SWAP3 POP DUP3 DUP3 MUL PUSH2 0xE4F DUP2 PUSH2 0x843 JUMP JUMPDEST SWAP2 POP DUP3 DUP3 DIV DUP5 EQ DUP4 ISZERO OR PUSH2 0xE66 JUMPI PUSH2 0xE65 PUSH2 0xA3E JUMP JUMPDEST JUMPDEST POP SWAP3 SWAP2 POP POP JUMP JUMPDEST PUSH32 0x4E487B7100000000000000000000000000000000000000000000000000000000 PUSH0 MSTORE PUSH1 0x12 PUSH1 0x4 MSTORE PUSH1 0x24 PUSH0 REVERT JUMPDEST PUSH0 PUSH2 0xEA4 DUP3 PUSH2 0x843 JUMP JUMPDEST SWAP2 POP PUSH2 0xEAF DUP4 PUSH2 0x843 JUMP JUMPDEST SWAP3 POP DUP3 PUSH2 0xEBF JUMPI PUSH2 0xEBE PUSH2 0xE6D JUMP JUMPDEST JUMPDEST DUP3 DUP3 DIV SWAP1 POP SWAP3 SWAP2 POP POP JUMP INVALID LOG2 PUSH5 0x6970667358 0x22 SLT KECCAK256 PUSH8 0xE1C54B2AD72F38D1 DUP11 LT LOG2 DUP11 0xBA CALLER SELFDESTRUCT RETURNDATASIZE SWAP5 0xC4 LOG3 RJUMPI 0x72DA GAS PUSH20 0x3ACDDBC98055B864736F6C634300081E00330000 "
				},
				"gasEstimates": {
					"creation": {
						"codeDepositCost": "768000",
						"executionCost": "infinite",
						"totalCost": "infinite"
					},
					"external": {
						"borrow(uint256)": "infinite",
						"borrowStartTime(address)": "2846",
						"borrowingBalance(address)": "2802",
						"interestRate()": "2448",
						"lend(uint256)": "infinite",
						"lendingBalance(address)": "2847",
						"repay()": "infinite",
						"token()": "infinite"
					},
					"internal": {
						"calculateInterest(uint256,uint256)": "infinite"
					}
				},
				"methodIdentifiers": {
					"borrow(uint256)": "c5ebeaec",
					"borrowStartTime(address)": "dad919ec",
					"borrowingBalance(address)": "b750333e",
					"interestRate()": "7c3a00fd",
					"lend(uint256)": "a6aa57ce",
					"lendingBalance(address)": "7f10883b",
					"repay()": "402d8883",
					"token()": "fc0c546a"
				}
			},
			"storageLayout": {
				"storage": [
					{
						"astId": 85,
						"contract": "LendingPlatform.sol:LendingPlatform",
						"label": "token",
						"offset": 0,
						"slot": "0",
						"type": "t_contract(IERC20)77"
					},
					{
						"astId": 88,
						"contract": "LendingPlatform.sol:LendingPlatform",
						"label": "interestRate",
						"offset": 0,
						"slot": "1",
						"type": "t_uint256"
					},
					{
						"astId": 93,
						"contract": "LendingPlatform.sol:LendingPlatform",
						"label": "lendingBalance",
						"offset": 0,
						"slot": "2",
						"type": "t_mapping(t_address,t_uint256)"
					},
					{
						"astId": 98,
						"contract": "LendingPlatform.sol:LendingPlatform",
						"label": "borrowingBalance",
						"offset": 0,
						"slot": "3",
						"type": "t_mapping(t_address,t_uint256)"
					},
					{
						"astId": 103,
						"contract": "LendingPlatform.sol:LendingPlatform",
						"label": "borrowStartTime",
						"offset": 0,
						"slot": "4",
						"type": "t_mapping(t_address,t_uint256)"
					}
				],
				"types": {
					"t_address": {
						"encoding": "inplace",
						"label": "address",
						"numberOfBytes": "20"
					},
					"t_contract(IERC20)77": {
						"encoding": "inplace",
						"label": "contract IERC20",
						"numberOfBytes": "20"
					},
					"t_mapping(t_address,t_uint256)": {
						"encoding": "mapping",
						"key": "t_address",
						"label": "mapping(address => uint256)",
						"numberOfBytes": "32",
						"value": "t_uint256"
					},
					"t_uint256": {
						"encoding": "inplace",
						"label": "uint256",
						"numberOfBytes": "32"
					}
				}
			},
			"userdoc": {
				"kind": "user",
				"methods": {
					"borrow(uint256)": {
						"notice": "Allows a user to borrow tokens from the platform."
					},
					"borrowStartTime(address)": {
						"notice": "Maps a user's address to the timestamp when their borrow period began."
					},
					"borrowingBalance(address)": {
						"notice": "Maps a user's address to the amount of tokens they have borrowed."
					},
					"interestRate()": {
						"notice": "The annual interest rate for borrowing."
					},
					"lend(uint256)": {
						"notice": "Allows a user to lend tokens to the platform."
					},
					"lendingBalance(address)": {
						"notice": "Maps a user's address to the amount of tokens they have lent."
					},
					"repay()": {
						"notice": "Repays an outstanding loan along with accrued interest."
					},
					"token()": {
						"notice": "The ERC20 token contract used for transactions within the platform."
					}
				},
				"version": 1
			}
		}
	}
}