{
	"data": {
		"bytecode": {
			"linkReferences": {},
			"object": "608060405234801561000f575f5ffd5b5060405161106b38038061106b83398181016040528101906100319190610120565b815f5f6101000a81548173ffffffffffffffffffffffffffffffffffffffff021916908373ffffffffffffffffffffffffffffffffffffffff16021790555080600181905550505061015e565b5f5ffd5b5f73ffffffffffffffffffffffffffffffffffffffff82169050919050565b5f6100ab82610082565b9050919050565b5f6100bc826100a1565b9050919050565b6100cc816100b2565b81146100d6575f5ffd5b50565b5f815190506100e7816100c3565b92915050565b5f819050919050565b6100ff816100ed565b8114610109575f5ffd5b50565b5f8151905061011a816100f6565b92915050565b5f5f604083850312156101365761013561007e565b5b5f610143858286016100d9565b92505060206101548582860161010c565b9150509250929050565b610f008061016b5f395ff3fe608060405234801561000f575f5ffd5b5060043610610086575f3560e01c8063b750333e11610059578063b750333e146100fe578063c5ebeaec1461012e578063dad919ec1461014a578063fc0c546a1461017a57610086565b8063402d88831461008a5780637c3a00fd146100945780637f10883b146100b2578063a6aa57ce146100e2575b5f5ffd5b610092610198565b005b61009c6103b0565b6040516100a9919061085b565b60405180910390f35b6100cc60048036038101906100c791906108d2565b6103b6565b6040516100d9919061085b565b60405180910390f35b6100fc60048036038101906100f79190610927565b6103cb565b005b610118600480360381019061011391906108d2565b610501565b604051610125919061085b565b60405180910390f35b61014860048036038101906101439190610927565b610516565b005b610164600480360381019061015f91906108d2565b6107d4565b604051610171919061085b565b60405180910390f35b6101826107e9565b60405161018f91906109ad565b60405180910390f35b5f60035f3373ffffffffffffffffffffffffffffffffffffffff1673ffffffffffffffffffffffffffffffffffffffff1681526020019081526020015f205490505f60045f3373ffffffffffffffffffffffffffffffffffffffff1673ffffffffffffffffffffffffffffffffffffffff1681526020019081526020015f205490505f821161025c576040517f08c379a000000000000000000000000000000000000000000000000000000000815260040161025390610a20565b60405180910390fd5b5f81426102699190610a6b565b90505f610276848361080d565b90505f81856102859190610a9e565b90505f60035f3373ffffffffffffffffffffffffffffffffffffffff1673ffffffffffffffffffffffffffffffffffffffff1681526020019081526020015f20819055505f60045f3373ffffffffffffffffffffffffffffffffffffffff1673ffffffffffffffffffffffffffffffffffffffff1681526020019081526020015f20819055505f5f9054906101000a900473ffffffffffffffffffffffffffffffffffffffff1673ffffffffffffffffffffffffffffffffffffffff166323b872dd3330846040518463ffffffff1660e01b815260040161036893929190610ae0565b6020604051808303815f875af1158015610384573d5f5f3e3d5ffd5b505050506040513d601f19601f820116820180604052508101906103a89190610b4a565b505050505050565b60015481565b6002602052805f5260405f205f915090505481565b5f811161040d576040517f08c379a000000000000000000000000000000000000000000000000000000000815260040161040490610be5565b60405180910390fd5b8060025f3373ffffffffffffffffffffffffffffffffffffffff1673ffffffffffffffffffffffffffffffffffffffff1681526020019081526020015f205f8282546104599190610a9e565b925050819055505f5f9054906101000a900473ffffffffffffffffffffffffffffffffffffffff1673ffffffffffffffffffffffffffffffffffffffff166323b872dd3330846040518463ffffffff1660e01b81526004016104bd93929190610ae0565b6020604051808303815f875af11580156104d9573d5f5f3e3d5ffd5b505050506040513d601f19601f820116820180604052508101906104fd9190610b4a565b5050565b6003602052805f5260405f205f915090505481565b5f8111610558576040517f08c379a000000000000000000000000000000000000000000000000000000000815260040161054f90610c73565b60405180910390fd5b5f60035f3373ffffffffffffffffffffffffffffffffffffffff1673ffffffffffffffffffffffffffffffffffffffff1681526020019081526020015f2054146105d7576040517f08c379a00000000000000000000000000000000000000000000000000000000081526004016105ce90610d01565b60405180910390fd5b805f5f9054906101000a900473ffffffffffffffffffffffffffffffffffffffff1673ffffffffffffffffffffffffffffffffffffffff166370a08231306040518263ffffffff1660e01b81526004016106319190610d1f565b602060405180830381865afa15801561064c573d5f5f3e3d5ffd5b505050506040513d601f19601f820116820180604052508101906106709190610d4c565b10156106b1576040517f08c379a00000000000000000000000000000000000000000000000000000000081526004016106a890610de7565b60405180910390fd5b8060035f3373ffffffffffffffffffffffffffffffffffffffff1673ffffffffffffffffffffffffffffffffffffffff1681526020019081526020015f20819055504260045f3373ffffffffffffffffffffffffffffffffffffffff1673ffffffffffffffffffffffffffffffffffffffff1681526020019081526020015f20819055505f5f9054906101000a900473ffffffffffffffffffffffffffffffffffffffff1673ffffffffffffffffffffffffffffffffffffffff1663a9059cbb33836040518363ffffffff1660e01b8152600401610790929190610e05565b6020604051808303815f875af11580156107ac573d5f5f3e3d5ffd5b505050506040513d601f19601f820116820180604052508101906107d09190610b4a565b5050565b6004602052805f5260405f205f915090505481565b5f5f9054906101000a900473ffffffffffffffffffffffffffffffffffffffff1681565b5f5f63bbf81e0083600154866108239190610e2c565b61082d9190610e2c565b6108379190610e9a565b90508091505092915050565b5f819050919050565b61085581610843565b82525050565b5f60208201905061086e5f83018461084c565b92915050565b5f5ffd5b5f73ffffffffffffffffffffffffffffffffffffffff82169050919050565b5f6108a182610878565b9050919050565b6108b181610897565b81146108bb575f5ffd5b50565b5f813590506108cc816108a8565b92915050565b5f602082840312156108e7576108e6610874565b5b5f6108f4848285016108be565b91505092915050565b61090681610843565b8114610910575f5ffd5b50565b5f81359050610921816108fd565b92915050565b5f6020828403121561093c5761093b610874565b5b5f61094984828501610913565b91505092915050565b5f819050919050565b5f61097561097061096b84610878565b610952565b610878565b9050919050565b5f6109868261095b565b9050919050565b5f6109978261097c565b9050919050565b6109a78161098d565b82525050565b5f6020820190506109c05f83018461099e565b92915050565b5f82825260208201905092915050565b7f596f7520646f206e6f7420686176652061206c6f616e20746f207265706179005f82015250565b5f610a0a601f836109c6565b9150610a15826109d6565b602082019050919050565b5f6020820190508181035f830152610a37816109fe565b9050919050565b7f4e487b71000000000000000000000000000000000000000000000000000000005f52601160045260245ffd5b5f610a7582610843565b9150610a8083610843565b9250828203905081811115610a9857610a97610a3e565b5b92915050565b5f610aa882610843565b9150610ab383610843565b9250828201905080821115610acb57610aca610a3e565b5b92915050565b610ada81610897565b82525050565b5f606082019050610af35f830186610ad1565b610b006020830185610ad1565b610b0d604083018461084c565b949350505050565b5f8115159050919050565b610b2981610b15565b8114610b33575f5ffd5b50565b5f81519050610b4481610b20565b92915050565b5f60208284031215610b5f57610b5e610874565b5b5f610b6c84828501610b36565b91505092915050565b7f4c656e6420616d6f756e74206d7573742062652067726561746572207468616e5f8201527f207a65726f000000000000000000000000000000000000000000000000000000602082015250565b5f610bcf6025836109c6565b9150610bda82610b75565b604082019050919050565b5f6020820190508181035f830152610bfc81610bc3565b9050919050565b7f426f72726f7720616d6f756e74206d75737420626520677265617465722074685f8201527f616e207a65726f00000000000000000000000000000000000000000000000000602082015250565b5f610c5d6027836109c6565b9150610c6882610c03565b604082019050919050565b5f6020820190508181035f830152610c8a81610c51565b9050919050565b7f596f7520616c7265616479206861766520616e206f75747374616e64696e67205f8201527f6c6f616e00000000000000000000000000000000000000000000000000000000602082015250565b5f610ceb6024836109c6565b9150610cf682610c91565b604082019050919050565b5f6020820190508181035f830152610d1881610cdf565b9050919050565b5f602082019050610d325f830184610ad1565b92915050565b5f81519050610d46816108fd565b92915050565b5f60208284031215610d6157610d60610874565b5b5f610d6e84828501610d38565b91505092915050565b7f4e6f7420656e6f75676820746f6b656e7320696e2074686520706c6174666f725f8201527f6d00000000000000000000000000000000000000000000000000000000000000602082015250565b5f610dd16021836109c6565b9150610ddc82610d77565b604082019050919050565b5f6020820190508181035f830152610dfe81610dc5565b9050919050565b5f604082019050610e185f830185610ad1565b610e25602083018461084c565b9392505050565b5f610e3682610843565b9150610e4183610843565b9250828202610e4f81610843565b91508282048414831517610e6657610e65610a3e565b5b5092915050565b7f4e487b71000000000000000000000000000000000000000000000000000000005f52601260045260245ffd5b5f610ea482610843565b9150610eaf83610843565b925082610ebf57610ebe610e6d565b5b82820490509291505056fea264697066735822122067e1c54b2ad72f38d18a10a28aba33ff3d94c4a3e172da5a733acddbc98055b864736f6c634300081e0033",
			"opcodes": "PUSH1 0x80 PUSH1 0x40 MSTORE CALLVALUE DUP1 ISZERO PUSH2 0xF JUMPI PUSH0 PUSH0 REVERT JUMPDEST POP PUSH1 0x40 MLOAD PUSH2 0x106B CODESIZE SUB DUP1 PUSH2 0x106B DUP4 CODECOPY DUP2 DUP2 ADD PUSH1 0x40 MSTORE DUP2 ADD SWAP1 PUSH2 0x31 SWAP2 SWAP1 PUSH2 0x120 JUMP JUMPDEST DUP2 PUSH0 PUSH0 PUSH2 0x100 EXP DUP2 SLOAD DUP2 PUSH20 0xFFFFFFFFFFFFFFFFFFFFFFFFFFFFFFFFFFFFFFFF MUL NOT AND SWAP1 DUP4 PUSH20 0xFFFFFFFFFFFFFFFFFFFFFFFFFFFFFFFFFFFFFFFF AND MUL OR SWAP1 SSTORE POP DUP1 PUSH1 0x1 DUP2 SWAP1 SSTORE POP POP POP PUSH2 0x15E JUMP JUMPDEST PUSH0 PUSH0 REVERT JUMPDEST PUSH0 PUSH20 0xFFFFFFFFFFFFFFFFFFFFFFFFFFFFFFFFFFFFFFFF DUP3 AND SWAP1 POP SWAP2 SWAP1 POP JUMP JUMPDEST PUSH0 PUSH2 0xAB DUP3 PUSH2 0x82 JUMP JUMPDEST SWAP1 POP SWAP2 SWAP1 POP JUMP JUMPDEST PUSH0 PUSH2 0xBC DUP3 PUSH2 0xA1 JUMP JUMPDEST SWAP1 POP SWAP2 SWAP1 POP JUMP JUMPDEST PUSH2 0xCC DUP2 PUSH2 0xB2 JUMP JUMPDEST DUP2 EQ PUSH2 0xD6 JUMPI PUSH0 PUSH0 REVERT JUMPDEST POP JUMP JUMPDEST PUSH0 DUP2 MLOAD SWAP1 POP PUSH2 0xE7 DUP2 PUSH2 0xC3 JUMP JUMPDEST SWAP3 SWAP2 POP POP JUMP JUMPDEST PUSH0 DUP2 SWAP1 POP SWAP2 SWAP1 POP JUMP JUMPDEST PUSH2 0xFF DUP2 PUSH2 0xED JUMP JUMPDEST DUP2 EQ PUSH2 0x109 JUMPI PUSH0 PUSH0 REVERT JUMPDEST POP JUMP JUMPDEST PUSH0 DUP2 MLOAD SWAP1 POP PUSH2 0x11A DUP2 PUSH2 0xF6 JUMP JUMPDEST SWAP3 SWAP2 POP POP JUMP JUMPDEST PUSH0 PUSH0 PUSH1 0x40 DUP4 DUP6 SUB SLT ISZERO PUSH2 0x136 JUMPI PUSH2 0x135 PUSH2 0x7E JUMP JUMPDEST JUMPDEST PUSH0 PUSH2 0x143 DUP6 DUP3 DUP7 ADD PUSH2 0xD9 JUMP JUMPDEST SWAP3 POP POP PUSH1 0x20 PUSH2 0x154 DUP6 DUP3 DUP7 ADD PUSH2 0x10C JUMP JUMPDEST SWAP2 POP POP SWAP3 POP SWAP3 SWAP1 POP JUMP JUMPDEST PUSH2 0xF00 DUP1 PUSH2 0x16B PUSH0 CODECOPY PUSH0 RETURN INVALID PUSH1 0x80 PUSH1 0x40 MSTORE CALLVALUE DUP1 ISZERO PUSH2 0xF JUMPI PUSH0 PUSH0 REVERT JUMPDEST POP PUSH1 0x4 CALLDATASIZE LT PUSH2 0x86 JUMPI PUSH0 CALLDATALOAD PUSH1 0xE0 SHR DUP1 PUSH4 0xB750333E GT PUSH2 0x59 JUMPI DUP1 PUSH4 0xB750333E EQ PUSH2 0xFE JUMPI DUP1 PUSH4 0xC5EBEAEC EQ PUSH2 0x12E JUMPI DUP1 PUSH4 0xDAD919EC EQ PUSH2 0x14A JUMPI DUP1 PUSH4 0xFC0C546A EQ PUSH2 0x17A JUMPI PUSH2 0x86 JUMP JUMPDEST DUP1 PUSH4 0x402D8883 EQ PUSH2 0x8A JUMPI DUP1 PUSH4 0x7C3A00FD EQ PUSH2 0x94 JUMPI DUP1 PUSH4 0x7F10883B EQ PUSH2 0xB2 JUMPI DUP1 PUSH4 0xA6AA57CE EQ PUSH2 0xE2 JUMPI JUMPDEST PUSH0 PUSH0 REVERT JUMPDEST PUSH2 0x92 PUSH2 0x198 JUMP JUMPDEST STOP JUMPDEST PUSH2 0x9C PUSH2 0x3B0 JUMP JUMPDEST PUSH1 0x40 MLOAD PUSH2 0xA9 SWAP2 SWAP1 PUSH2 0x85B JUMP JUMPDEST PUSH1 0x40 MLOAD DUP1 SWAP2 SUB SWAP1 RETURN JUMPDEST PUSH2 0xCC PUSH1 0x4 DUP1 CALLDATASIZE SUB DUP2 ADD SWAP1 PUSH2 0xC7 SWAP2 SWAP1 PUSH2 0x8D2 JUMP JUMPDEST PUSH2 0x3B6 JUMP JUMPDEST PUSH1 0x40 MLOAD PUSH2 0xD9 SWAP2 SWAP1 PUSH2 0x85B JUMP JUMPDEST PUSH1 0x40 MLOAD DUP1 SWAP2 SUB SWAP1 RETURN JUMPDEST PUSH2 0xFC PUSH1 0x4 DUP1 CALLDATASIZE SUB DUP2 ADD SWAP1 PUSH2 0xF7 SWAP2 SWAP1 PUSH2 0x927 JUMP JUMPDEST PUSH2 0x3CB JUMP JUMPDEST STOP JUMPDEST PUSH2 0x118 PUSH1 0x4 DUP1 CALLDATASIZE SUB DUP2 ADD SWAP1 PUSH2 0x113 SWAP2 SWAP1 PUSH2 0x8D2 JUMP JUMPDEST PUSH2 0x501 JUMP JUMPDEST PUSH1 0x40 MLOAD PUSH2 0x125 SWAP2 SWAP1 PUSH2 0x85B JUMP JUMPDEST PUSH1 0x40 MLOAD DUP1 SWAP2 SUB SWAP1 RETURN JUMPDEST PUSH2 0x148 PUSH1 0x4 DUP1 CALLDATASIZE SUB DUP2 ADD SWAP1 PUSH2 0x143 SWAP2 SWAP1 PUSH2 0x927 JUMP JUMPDEST PUSH2 0x516 JUMP JUMPDEST STOP JUMPDEST PUSH2 0x164 PUSH1 0x4 DUP1 CALLDATASIZE SUB DUP2 ADD SWAP1 PUSH2 0x15F SWAP2 SWAP1 PUSH2 0x8D2 JUMP JUMPDEST PUSH2 0x7D4 JUMP JUMPDEST PUSH1 0x40 MLOAD PUSH2 0x171 SWAP2 SWAP1 PUSH2 0x85B JUMP JUMPDEST PUSH1 0x40 MLOAD DUP1 SWAP2 SUB SWAP1 RETURN JUMPDEST PUSH2 0x182 PUSH2 0x7E9 JUMP JUMPDEST PUSH1 0x40 MLOAD PUSH2 0x18F SWAP2 SWAP1 PUSH2 0x9AD JUMP JUMPDEST PUSH1 0x40 MLOAD DUP1 SWAP2 SUB SWAP1 RETURN JUMPDEST PUSH0 PUSH1 0x3 PUSH0 CALLER PUSH20 0xFFFFFFFFFFFFFFFFFFFFFFFFFFFFFFFFFFFFFFFF AND PUSH20 0xFFFFFFFFFFFFFFFFFFFFFFFFFFFFFFFFFFFFFFFF AND DUP2 MSTORE PUSH1 0x20 ADD SWAP1 DUP2 MSTORE PUSH1 0x20 ADD PUSH0 KECCAK256 SLOAD SWAP1 POP PUSH0 PUSH1 0x4 PUSH0 CALLER PUSH20 0xFFFFFFFFFFFFFFFFFFFFFFFFFFFFFFFFFFFFFFFF AND PUSH20 0xFFFFFFFFFFFFFFFFFFFFFFFFFFFFFFFFFFFFFFFF AND DUP2 MSTORE PUSH1 0x20 ADD SWAP1 DUP2 MSTORE PUSH1 0x20 ADD PUSH0 KECCAK256 SLOAD SWAP1 POP PUSH0 DUP3 GT PUSH2 0x25C JUMPI PUSH1 0x40 MLOAD PUSH32 0x8C379A000000000000000000000000000000000000000000000000000000000 DUP2 MSTORE PUSH1 0x4 ADD PUSH2 0x253 SWAP1 PUSH2 0xA20 JUMP JUMPDEST PUSH1 0x40 MLOAD DUP1 SWAP2 SUB SWAP1 REVERT JUMPDEST PUSH0 DUP2 TIMESTAMP PUSH2 0x269 SWAP2 SWAP1 PUSH2 0xA6B JUMP JUMPDEST SWAP1 POP PUSH0 PUSH2 0x276 DUP5 DUP4 PUSH2 0x80D JUMP JUMPDEST SWAP1 POP PUSH0 DUP2 DUP6 PUSH2 0x285 SWAP2 SWAP1 PUSH2 0xA9E JUMP JUMPDEST SWAP1 POP PUSH0 PUSH1 0x3 PUSH0 CALLER PUSH20 0xFFFFFFFFFFFFFFFFFFFFFFFFFFFFFFFFFFFFFFFF AND PUSH20 0xFFFFFFFFFFFFFFFFFFFFFFFFFFFFFFFFFFFFFFFF AND DUP2 MSTORE PUSH1 0x20 ADD SWAP1 DUP2 MSTORE PUSH1 0x20 ADD PUSH0 KECCAK256 DUP2 SWAP1 SSTORE POP PUSH0 PUSH1 0x4 PUSH0 CALLER PUSH20 0xFFFFFFFFFFFFFFFFFFFFFFFFFFFFFFFFFFFFFFFF AND PUSH20 0xFFFFFFFFFFFFFFFFFFFFFFFFFFFFFFFFFFFFFFFF AND DUP2 MSTORE PUSH1 0x20 ADD SWAP1 DUP2 MSTORE PUSH1 0x20 ADD PUSH0 KECCAK256 DUP2 SWAP1 SSTORE POP PUSH0 PUSH0 SWAP1 SLOAD SWAP1 PUSH2 0x100 EXP SWAP1 DIV PUSH20 0xFFFFFFFFFFFFFFFFFFFFFFFFFFFFFFFFFFFFFFFF AND PUSH20 0xFFFFFFFFFFFFFFFFFFFFFFFFFFFFFFFFFFFFFFFF AND PUSH4 0x23B872DD CALLER ADDRESS DUP5 PUSH1 0x40 MLOAD DUP5 PUSH4 0xFFFFFFFF AND PUSH1 0xE0 SHL DUP2 MSTORE PUSH1 0x4 ADD PUSH2 0x368 SWAP4 SWAP3 SWAP2 SWAP1 PUSH2 0xAE0 JUMP JUMPDEST PUSH1 0x20 PUSH1 0x40 MLOAD DUP1 DUP4 SUB DUP2 PUSH0 DUP8 GAS CALL ISZERO DUP1 ISZERO PUSH2 0x384 JUMPI RETURNDATASIZE PUSH0 PUSH0 RETURNDATACOPY RETURNDATASIZE PUSH0 REVERT JUMPDEST POP POP POP POP PUSH1 0x40 MLOAD RETURNDATASIZE PUSH1 0x1F NOT PUSH1 0x1F DUP3 ADD AND DUP3 ADD DUP1 PUSH1 0x40 MSTORE POP DUP2 ADD SWAP1 PUSH2 0x3A8 SWAP2 SWAP1 PUSH2 0xB4A JUMP JUMPDEST POP POP POP POP POP POP JUMP JUMPDEST PUSH1 0x1 SLOAD DUP2 JUMP JUMPDEST PUSH1 0x2 PUSH1 0x20 MSTORE DUP1 PUSH0 MSTORE PUSH1 0x40 PUSH0 KECCAK256 PUSH0 SWAP2 POP SWAP1 POP SLOAD DUP2 JUMP JUMPDEST PUSH0 DUP2 GT PUSH2 0x40D JUMPI PUSH1 0x40 MLOAD PUSH32 0x8C379A000000000000000000000000000000000000000000000000000000000 DUP2 MSTORE PUSH1 0x4 ADD PUSH2 0x404 SWAP1 PUSH2 0xBE5 JUMP JUMPDEST PUSH1 0x40 MLOAD DUP1 SWAP2 SUB SWAP1 REVERT JUMPDEST DUP1 PUSH1 0x2 PUSH0 CALLER PUSH20 0xFFFFFFFFFFFFFFFFFFFFFFFFFFFFFFFFFFFFFFFF AND PUSH20 0xFFFFFFFFFFFFFFFFFFFFFFFFFFFFFFFFFFFFFFFF AND DUP2 MSTORE PUSH1 0x20 ADD SWAP1 DUP2 MSTORE PUSH1 0x20 ADD PUSH0 KECCAK256 PUSH0 DUP3 DUP3 SLOAD PUSH2 0x459 SWAP2 SWAP1 PUSH2 0xA9E JUMP JUMPDEST SWAP3 POP POP DUP2 SWAP1 SSTORE POP PUSH0 PUSH0 SWAP1 SLOAD SWAP1 PUSH2 0x100 EXP SWAP1 DIV PUSH20 0xFFFFFFFFFFFFFFFFFFFFFFFFFFFFFFFFFFFFFFFF AND PUSH20 0xFFFFFFFFFFFFFFFFFFFFFFFFFFFFFFFFFFFFFFFF AND PUSH4 0x23B872DD CALLER ADDRESS DUP5 PUSH1 0x40 MLOAD DUP5 PUSH4 0xFFFFFFFF AND PUSH1 0xE0 SHL DUP2 MSTORE PUSH1 0x4 ADD PUSH2 0x4BD SWAP4 SWAP3 SWAP2 SWAP1 PUSH2 0xAE0 JUMP JUMPDEST PUSH1 0x20 PUSH1 0x40 MLOAD DUP1 DUP4 SUB DUP2 PUSH0 DUP8 GAS CALL ISZERO DUP1 ISZERO PUSH2 0x4D9 JUMPI RETURNDATASIZE PUSH0 PUSH0 RETURNDATACOPY RETURNDATASIZE PUSH0 REVERT JUMPDEST POP POP POP POP PUSH1 0x40 MLOAD RETURNDATASIZE PUSH1 0x1F NOT PUSH1 0x1F DUP3 ADD AND DUP3 ADD DUP1 PUSH1 0x40 MSTORE POP DUP2 ADD SWAP1 PUSH2 0x4FD SWAP2 SWAP1 PUSH2 0xB4A JUMP JUMPDEST POP POP JUMP JUMPDEST PUSH1 0x3 PUSH1 0x20 MSTORE DUP1 PUSH0 MSTORE PUSH1 0x40 PUSH0 KECCAK256 PUSH0 SWAP2 POP SWAP1 POP SLOAD DUP2 JUMP JUMPDEST PUSH0 DUP2 GT PUSH2 0x558 JUMPI PUSH1 0x40 MLOAD PUSH32 0x8C379A000000000000000000000000000000000000000000000000000000000 DUP2 MSTORE PUSH1 0x4 ADD PUSH2 0x54F SWAP1 PUSH2 0xC73 JUMP JUMPDEST PUSH1 0x40 MLOAD DUP1 SWAP2 SUB SWAP1 REVERT JUMPDEST PUSH0 PUSH1 0x3 PUSH0 CALLER PUSH20 0xFFFFFFFFFFFFFFFFFFFFFFFFFFFFFFFFFFFFFFFF AND PUSH20 0xFFFFFFFFFFFFFFFFFFFFFFFFFFFFFFFFFFFFFFFF AND DUP2 MSTORE PUSH1 0x20 ADD SWAP1 DUP2 MSTORE PUSH1 0x20 ADD PUSH0 KECCAK256 SLOAD EQ PUSH2 0x5D7 JUMPI PUSH1 0x40 MLOAD PUSH32 0x8C379A000000000000000000000000000000000000000000000000000000000 DUP2 MSTORE PUSH1 0x4 ADD PUSH2 0x5CE SWAP1 PUSH2 0xD01 JUMP JUMPDEST PUSH1 0x40 MLOAD DUP1 SWAP2 SUB SWAP1 REVERT JUMPDEST DUP1 PUSH0 PUSH0 SWAP1 SLOAD SWAP1 PUSH2 0x100 EXP SWAP1 DIV PUSH20 0xFFFFFFFFFFFFFFFFFFFFFFFFFFFFFFFFFFFFFFFF AND PUSH20 0xFFFFFFFFFFFFFFFFFFFFFFFFFFFFFFFFFFFFFFFF AND PUSH4 0x70A08231 ADDRESS PUSH1 0x40 MLOAD DUP3 PUSH4 0xFFFFFFFF AND PUSH1 0xE0 SHL DUP2 MSTORE PUSH1 0x4 ADD PUSH2 0x631 SWAP2 SWAP1 PUSH2 0xD1F JUMP JUMPDEST PUSH1 0x20 PUSH1 0x40 MLOAD DUP1 DUP4 SUB DUP2 DUP7 GAS STATICCALL ISZERO DUP1 ISZERO PUSH2 0x64C JUMPI RETURNDATASIZE PUSH0 PUSH0 RETURNDATACOPY RETURNDATASIZE PUSH0 REVERT JUMPDEST POP POP POP POP PUSH1 0x40 MLOAD RETURNDATASIZE PUSH1 0x1F NOT PUSH1 0x1F DUP3 ADD AND DUP3 ADD DUP1 PUSH1 0x40 MSTORE POP DUP2 ADD SWAP1 PUSH2 0x670 SWAP2 SWAP1 PUSH2 0xD4C JUMP JUMPDEST LT ISZERO PUSH2 0x6B1 JUMPI PUSH1 0x40 MLOAD PUSH32 0x8C379A000000000000000000000000000000000000000000000000000000000 DUP2 MSTORE PUSH1 0x4 ADD PUSH2 0x6A8 SWAP1 PUSH2 0xDE7 JUMP JUMPDEST PUSH1 0x40 MLOAD DUP1 SWAP2 SUB SWAP1 REVERT JUMPDEST DUP1 PUSH1 0x3 PUSH0 CALLER PUSH20 0xFFFFFFFFFFFFFFFFFFFFFFFFFFFFFFFFFFFFFFFF AND PUSH20 0xFFFFFFFFFFFFFFFFFFFFFFFFFFFFFFFFFFFFFFFF AND DUP2 MSTORE PUSH1 0x20 ADD SWAP1 DUP2 MSTORE PUSH1 0x20 ADD PUSH0 KECCAK256 DUP2 SWAP1 SSTORE POP TIMESTAMP PUSH1 0x4 PUSH0 CALLER PUSH20 0xFFFFFFFFFFFFFFFFFFFFFFFFFFFFFFFFFFFFFFFF AND PUSH20 0xFFFFFFFFFFFFFFFFFFFFFFFFFFFFFFFFFFFFFFFF AND DUP2 MSTORE PUSH1 0x20 ADD SWAP1 DUP2 MSTORE PUSH1 0x20 ADD PUSH0 KECCAK256 DUP2 SWAP1 SSTORE POP PUSH0 PUSH0 SWAP1 SLOAD SWAP1 PUSH2 0x100 EXP SWAP1 DIV PUSH20 0xFFFFFFFFFFFFFFFFFFFFFFFFFFFFFFFFFFFFFFFF AND PUSH20 0xFFFFFFFFFFFFFFFFFFFFFFFFFFFFFFFFFFFFFFFF AND PUSH4 0xA9059CBB CALLER DUP4 PUSH1 0x40 MLOAD DUP4 PUSH4 0xFFFFFFFF AND PUSH1 0xE0 SHL DUP2 MSTORE PUSH1 0x4 ADD PUSH2 0x790 SWAP3 SWAP2 SWAP1 PUSH2 0xE05 JUMP JUMPDEST PUSH1 0x20 PUSH1 0x40 MLOAD DUP1 DUP4 SUB DUP2 PUSH0 DUP8 GAS CALL ISZERO DUP1 ISZERO PUSH2 0x7AC JUMPI RETURNDATASIZE PUSH0 PUSH0 RETURNDATACOPY RETURNDATASIZE PUSH0 REVERT JUMPDEST POP POP POP POP PUSH1 0x40 MLOAD RETURNDATASIZE PUSH1 0x1F NOT PUSH1 0x1F DUP3 ADD AND DUP3 ADD DUP1 PUSH1 0x40 MSTORE POP DUP2 ADD SWAP1 PUSH2 0x7D0 SWAP2 SWAP1 PUSH2 0xB4A JUMP JUMPDEST POP POP JUMP JUMPDEST PUSH1 0x4 PUSH1 0x20 MSTORE DUP1 PUSH0 MSTORE PUSH1 0x40 PUSH0 KECCAK256 PUSH0 SWAP2 POP SWAP1 POP SLOAD DUP2 JUMP JUMPDEST PUSH0 PUSH0 SWAP1 SLOAD SWAP1 PUSH2 0x100 EXP SWAP1 DIV PUSH20 0xFFFFFFFFFFFFFFFFFFFFFFFFFFFFFFFFFFFFFFFF AND DUP2 JUMP JUMPDEST PUSH0 PUSH0 PUSH4 0xBBF81E00 DUP4 PUSH1 0x1 SLOAD DUP7 PUSH2 0x823 SWAP2 SWAP1 PUSH2 0xE2C JUMP JUMPDEST PUSH2 0x82D SWAP2 SWAP1 PUSH2 0xE2C JUMP JUMPDEST PUSH2 0x837 SWAP2 SWAP1 PUSH2 0xE9A JUMP JUMPDEST SWAP1 POP DUP1 SWAP2 POP POP SWAP3 SWAP2 POP POP JUMP JUMPDEST PUSH0 DUP2 SWAP1 POP SWAP2 SWAP1 POP JUMP JUMPDEST PUSH2 0x855 DUP2 PUSH2 0x843 JUMP JUMPDEST DUP3 MSTORE POP POP JUMP JUMPDEST PUSH0 PUSH1 0x20 DUP3 ADD SWAP1 POP PUSH2 0x86E PUSH0 DUP4 ADD DUP5 PUSH2 0x84C JUMP JUMPDEST SWAP3 SWAP2 POP POP JUMP JUMPDEST PUSH0 PUSH0 REVERT JUMPDEST PUSH0 PUSH20 0xFFFFFFFFFFFFFFFFFFFFFFFFFFFFFFFFFFFFFFFF DUP3 AND SWAP1 POP SWAP2 SWAP1 POP JUMP JUMPDEST PUSH0 PUSH2 0x8A1 DUP3 PUSH2 0x878 JUMP JUMPDEST SWAP1 POP SWAP2 SWAP1 POP JUMP JUMPDEST PUSH2 0x8B1 DUP2 PUSH2 0x897 JUMP JUMPDEST DUP2 EQ PUSH2 0x8BB JUMPI PUSH0 PUSH0 REVERT JUMPDEST POP JUMP JUMPDEST PUSH0 DUP2 CALLDATALOAD SWAP1 POP PUSH2 0x8CC DUP2 PUSH2 0x8A8 JUMP JUMPDEST SWAP3 SWAP2 POP POP JUMP JUMPDEST PUSH0 PUSH1 0x20 DUP3 DUP5 SUB SLT ISZERO PUSH2 0x8E7 JUMPI PUSH2 0x8E6 PUSH2 0x874 JUMP JUMPDEST JUMPDEST PUSH0 PUSH2 0x8F4 DUP5 DUP3 DUP6 ADD PUSH2 0x8BE JUMP JUMPDEST SWAP2 POP POP SWAP3 SWAP2 POP POP JUMP JUMPDEST PUSH2 0x906 DUP2 PUSH2 0x843 JUMP JUMPDEST DUP2 EQ PUSH2 0x910 JUMPI PUSH0 PUSH0 REVERT JUMPDEST POP JUMP JUMPDEST PUSH0 DUP2 CALLDATALOAD SWAP1 POP PUSH2 0x921 DUP2 PUSH2 0x8FD JUMP JUMPDEST SWAP3 SWAP2 POP POP JUMP JUMPDEST PUSH0 PUSH1 0x20 DUP3 DUP5 SUB SLT ISZERO PUSH2 0x93C JUMPI PUSH2 0x93B PUSH2 0x874 JUMP JUMPDEST JUMPDEST PUSH0 PUSH2 0x949 DUP5 DUP3 DUP6 ADD PUSH2 0x913 JUMP JUMPDEST SWAP2 POP POP SWAP3 SWAP2 POP POP JUMP JUMPDEST PUSH0 DUP2 SWAP1 POP SWAP2 SWAP1 POP JUMP JUMPDEST PUSH0 PUSH2 0x975 PUSH2 0x970 PUSH2 0x96B DUP5 PUSH2 0x878 JUMP JUMPDEST PUSH2 0x952 JUMP JUMPDEST PUSH2 0x878 JUMP JUMPDEST SWAP1 POP SWAP2 SWAP1 POP JUMP JUMPDEST PUSH0 PUSH2 0x986 DUP3 PUSH2 0x95B JUMP JUMPDEST SWAP1 POP SWAP2 SWAP1 POP JUMP JUMPDEST PUSH0 PUSH2 0x997 DUP3 PUSH2 0x97C JUMP JUMPDEST SWAP1 POP SWAP2 SWAP1 POP JUMP JUMPDEST PUSH2 0x9A7 DUP2 PUSH2 0x98D JUMP JUMPDEST DUP3 MSTORE POP POP JUMP JUMPDEST PUSH0 PUSH1 0x20 DUP3 ADD SWAP1 POP PUSH2 0x9C0 PUSH0 DUP4 ADD DUP5 PUSH2 0x99E JUMP JUMPDEST SWAP3 SWAP2 POP POP JUMP JUMPDEST PUSH0 DUP3 DUP3 MSTORE PUSH1 0x20 DUP3 ADD SWAP1 POP SWAP3 SWAP2 POP POP JUMP JUMPDEST PUSH32 0x596F7520646F206E6F7420686176652061206C6F616E20746F20726570617900 PUSH0 DUP3 ADD MSTORE POP JUMP JUMPDEST PUSH0 PUSH2 0xA0A PUSH1 0x1F DUP4 PUSH2 0x9C6 JUMP JUMPDEST SWAP2 POP PUSH2 0xA15 DUP3 PUSH2 0x9D6 JUMP JUMPDEST PUSH1 0x20 DUP3 ADD SWAP1 POP SWAP2 SWAP1 POP JUMP JUMPDEST PUSH0 PUSH1 0x20 DUP3 ADD SWAP1 POP DUP2 DUP2 SUB PUSH0 DUP4 ADD MSTORE PUSH2 0xA37 DUP2 PUSH2 0x9FE JUMP JUMPDEST SWAP1 POP SWAP2 SWAP1 POP JUMP JUMPDEST PUSH32 0x4E487B7100000000000000000000000000000000000000000000000000000000 PUSH0 MSTORE PUSH1 0x11 PUSH1 0x4 MSTORE PUSH1 0x24 PUSH0 REVERT JUMPDEST PUSH0 PUSH2 0xA75 DUP3 PUSH2 0x843 JUMP JUMPDEST SWAP2 POP PUSH2 0xA80 DUP4 PUSH2 0x843 JUMP JUMPDEST SWAP3 POP DUP3 DUP3 SUB SWAP1 POP DUP2 DUP2 GT ISZERO PUSH2 0xA98 JUMPI PUSH2 0xA97 PUSH2 0xA3E JUMP JUMPDEST JUMPDEST SWAP3 SWAP2 POP POP JUMP JUMPDEST PUSH0 PUSH2 0xAA8 DUP3 PUSH2 0x843 JUMP JUMPDEST SWAP2 POP PUSH2 0xAB3 DUP4 PUSH2 0x843 JUMP JUMPDEST SWAP3 POP DUP3 DUP3 ADD SWAP1 POP DUP1 DUP3 GT ISZERO PUSH2 0xACB JUMPI PUSH2 0xACA PUSH2 0xA3E JUMP JUMPDEST JUMPDEST SWAP3 SWAP2 POP POP JUMP JUMPDEST PUSH2 0xADA DUP2 PUSH2 0x897 JUMP JUMPDEST DUP3 MSTORE POP POP JUMP JUMPDEST PUSH0 PUSH1 0x60 DUP3 ADD SWAP1 POP PUSH2 0xAF3 PUSH0 DUP4 ADD DUP7 PUSH2 0xAD1 JUMP JUMPDEST PUSH2 0xB00 PUSH1 0x20 DUP4 ADD DUP6 PUSH2 0xAD1 JUMP JUMPDEST PUSH2 0xB0D PUSH1 0x40 DUP4 ADD DUP5 PUSH2 0x84C JUMP JUMPDEST SWAP5 SWAP4 POP POP POP POP JUMP JUMPDEST PUSH0 DUP2 ISZERO ISZERO SWAP1 POP SWAP2 SWAP1 POP JUMP JUMPDEST PUSH2 0xB29 DUP2 PUSH2 0xB15 JUMP JUMPDEST DUP2 EQ PUSH2 0xB33 JUMPI PUSH0 PUSH0 REVERT JUMPDEST POP JUMP JUMPDEST PUSH0 DUP2 MLOAD SWAP1 POP PUSH2 0xB44 DUP2 PUSH2 0xB20 JUMP JUMPDEST SWAP3 SWAP2 POP POP JUMP JUMPDEST PUSH0 PUSH1 0x20 DUP3 DUP5 SUB SLT ISZERO PUSH2 0xB5F JUMPI PUSH2 0xB5E PUSH2 0x874 JUMP JUMPDEST JUMPDEST PUSH0 PUSH2 0xB6C DUP5 DUP3 DUP6 ADD PUSH2 0xB36 JUMP JUMPDEST SWAP2 POP POP SWAP3 SWAP2 POP POP JUMP JUMPDEST PUSH32 0x4C656E6420616D6F756E74206D7573742062652067726561746572207468616E PUSH0 DUP3 ADD MSTORE PUSH32 0x207A65726F000000000000000000000000000000000000000000000000000000 PUSH1 0x20 DUP3 ADD MSTORE POP JUMP JUMPDEST PUSH0 PUSH2 0xBCF PUSH1 0x25 DUP4 PUSH2 0x9C6 JUMP JUMPDEST SWAP2 POP PUSH2 0xBDA DUP3 PUSH2 0xB75 JUMP JUMPDEST PUSH1 0x40 DUP3 ADD SWAP1 POP SWAP2 SWAP1 POP JUMP JUMPDEST PUSH0 PUSH1 0x20 DUP3 ADD SWAP1 POP DUP2 DUP2 SUB PUSH0 DUP4 ADD MSTORE PUSH2 0xBFC DUP2 PUSH2 0xBC3 JUMP JUMPDEST SWAP1 POP SWAP2 SWAP1 POP JUMP JUMPDEST PUSH32 0x426F72726F7720616D6F756E74206D7573742062652067726561746572207468 PUSH0 DUP3 ADD MSTORE PUSH32 0x616E207A65726F00000000000000000000000000000000000000000000000000 PUSH1 0x20 DUP3 ADD MSTORE POP JUMP JUMPDEST PUSH0 PUSH2 0xC5D PUSH1 0x27 DUP4 PUSH2 0x9C6 JUMP JUMPDEST SWAP2 POP PUSH2 0xC68 DUP3 PUSH2 0xC03 JUMP JUMPDEST PUSH1 0x40 DUP3 ADD SWAP1 POP SWAP2 SWAP1 POP JUMP JUMPDEST PUSH0 PUSH1 0x20 DUP3 ADD SWAP1 POP DUP2 DUP2 SUB PUSH0 DUP4 ADD MSTORE PUSH2 0xC8A DUP2 PUSH2 0xC51 JUMP JUMPDEST SWAP1 POP SWAP2 SWAP1 POP JUMP JUMPDEST PUSH32 0x596F7520616C7265616479206861766520616E206F75747374616E64696E6720 PUSH0 DUP3 ADD MSTORE PUSH32 0x6C6F616E00000000000000000000000000000000000000000000000000000000 PUSH1 0x20 DUP3 ADD MSTORE POP JUMP JUMPDEST PUSH0 PUSH2 0xCEB PUSH1 0x24 DUP4 PUSH2 0x9C6 JUMP JUMPDEST SWAP2 POP PUSH2 0xCF6 DUP3 PUSH2 0xC91 JUMP JUMPDEST PUSH1 0x40 DUP3 ADD SWAP1 POP SWAP2 SWAP1 POP JUMP JUMPDEST PUSH0 PUSH1 0x20 DUP3 ADD SWAP1 POP DUP2 DUP2 SUB PUSH0 DUP4 ADD MSTORE PUSH2 0xD18 DUP2 PUSH2 0xCDF JUMP JUMPDEST SWAP1 POP SWAP2 SWAP1 POP JUMP JUMPDEST PUSH0 PUSH1 0x20 DUP3 ADD SWAP1 POP PUSH2 0xD32 PUSH0 DUP4 ADD DUP5 PUSH2 0xAD1 JUMP JUMPDEST SWAP3 SWAP2 POP POP JUMP JUMPDEST PUSH0 DUP2 MLOAD SWAP1 POP PUSH2 0xD46 DUP2 PUSH2 0x8FD JUMP JUMPDEST SWAP3 SWAP2 POP POP JUMP JUMPDEST PUSH0 PUSH1 0x20 DUP3 DUP5 SUB SLT ISZERO PUSH2 0xD61 JUMPI PUSH2 0xD60 PUSH2 0x874 JUMP JUMPDEST JUMPDEST PUSH0 PUSH2 0xD6E DUP5 DUP3 DUP6 ADD PUSH2 0xD38 JUMP JUMPDEST SWAP2 POP POP SWAP3 SWAP2 POP POP JUMP JUMPDEST PUSH32 0x4E6F7420656E6F75676820746F6B656E7320696E2074686520706C6174666F72 PUSH0 DUP3 ADD MSTORE PUSH32 0x6D00000000000000000000000000000000000000000000000000000000000000 PUSH1 0x20 DUP3 ADD MSTORE POP JUMP JUMPDEST PUSH0 PUSH2 0xDD1 PUSH1 0x21 DUP4 PUSH2 0x9C6 JUMP JUMPDEST SWAP2 POP PUSH2 0xDDC DUP3 PUSH2 0xD77 JUMP JUMPDEST PUSH1 0x40 DUP3 ADD SWAP1 POP SWAP2 SWAP1 POP JUMP JUMPDEST PUSH0 PUSH1 0x20 DUP3 ADD SWAP1 POP DUP2 DUP2 SUB PUSH0 DUP4 ADD MSTORE PUSH2 0xDFE DUP2 PUSH2 0xDC5 JUMP JUMPDEST SWAP1 POP SWAP2 SWAP1 POP JUMP JUMPDEST PUSH0 PUSH1 0x40 DUP3 ADD SWAP1 POP PUSH2 0xE18 PUSH0 DUP4 ADD DUP6 PUSH2 0xAD1 JUMP JUMPDEST PUSH2 0xE25 PUSH1 0x20 DUP4 ADD DUP5 PUSH2 0x84C JUMP JUMPDEST SWAP4 SWAP3 POP POP POP JUMP JUMPDEST PUSH0 PUSH2 0xE36 DUP3 PUSH2 0x843 JUMP JUMPDEST SWAP2 POP PUSH2 0xE41 DUP4 PUSH2 0x843 JUMP JUMPDEST SWAP3 POP DUP3 DUP3 MUL PUSH2 0xE4F DUP2 PUSH2 0x843 JUMP JUMPDEST SWAP2 POP DUP3 DUP3 DIV DUP5 EQ DUP4 ISZERO OR PUSH2 0xE66 JUMPI PUSH2 0xE65 PUSH2 0xA3E JUMP JUMPDEST JUMPDEST POP SWAP3 SWAP2 POP POP JUMP JUMPDEST PUSH32 0x4E487B7100000000000000000000000000000000000000000000000000000000 PUSH0 MSTORE PUSH1 0x12 PUSH1 0x4 MSTORE PUSH1 0x24 PUSH0 REVERT JUMPDEST PUSH0 PUSH2 0xEA4 DUP3 PUSH2 0x843 JUMP JUMPDEST SWAP2 POP PUSH2 0xEAF DUP4 PUSH2 0x843 JUMP JUMPDEST SWAP3 POP DUP3 PUSH2 0xEBF JUMPI PUSH2 0xEBE PUSH2 0xE6D JUMP JUMPDEST JUMPDEST DUP3 DUP3 DIV SWAP1 POP SWAP3 SWAP2 POP POP JUMP INVALID LOG2 PUSH5 0x6970667358 0x22 SLT KECCAK256 PUSH8 0xE1C54B2AD72F38D1 DUP11 LT LOG2 DUP11 0xBA CALLER SELFDESTRUCT RETURNDATASIZE SWAP5 0xC4 LOG3 RJUMPI 0x72DA GAS PUSH20 0x3ACDDBC98055B864736F6C634300081E00330000 "
		},
		"gasEstimates": {
			"creation": {
				"codeDepositCost": "768000",
				"executionCost": "infinite",
				"totalCost": "infinite"
			},
			"external": {
				"borrow(uint256)": "infinite",
				"borrowStartTime(address)": "2846",
				"borrowingBalance(address)": "2802",
				"interestRate()": "2448",
				"lend(uint256)": "infinite",
				"lendingBalance(address)": "2847",
				"repay()": "infinite",
				"token()": "infinite"
			},
			"internal": {
				"calculateInterest(uint256,uint256)": "infinite"
			}
		},
		"methodIdentifiers": {
			"borrow(uint256)": "c5ebeaec",
			"borrowStartTime(address)": "dad919ec",
			"borrowingBalance(address)": "b750333e",
			"interestRate()": "7c3a00fd",
			"lend(uint256)": "a6aa57ce",
			"lendingBalance(address)": "7f10883b",
			"repay()": "402d8883",
			"token()": "fc0c546a"
		}
	},
	"abi": [
		{
			"inputs": [
				{
					"internalType": "contract IERC20",
					"name": "_token",
					"type": "address"
				},
				{
					"internalType": "uint256",
					"name": "_interestRate",
					"type": "uint256"
				}
			],
			"stateMutability": "nonpayable",
			"type": "constructor"
		},
		{
			"inputs": [
				{
					"internalType": "uint256",
					"name": "_amount",
					"type": "uint256"
				}
			],
			"name": "borrow",
			"outputs": [],
			"stateMutability": "nonpayable",
			"type": "function"
		},
		{
			"inputs": [
				{
					"internalType": "address",
					"name": "",
					"type": "address"
				}
			],
			"name": "borrowStartTime",
			"outputs": [
				{
					"internalType": "uint256",
					"name": "",
					"type": "uint256"
				}
			],
			"stateMutability": "view",
			"type": "function"
		},
		{
			"inputs": [
				{
					"internalType": "address",
					"name": "",
					"type": "address"
				}
			],
			"name": "borrowingBalance",
			"outputs": [
				{
					"internalType": "uint256",
					"name": "",
					"type": "uint256"
				}
			],
			"stateMutability": "view",
			"type": "function"
		},
		{
			"inputs": [],
			"name": "interestRate",
			"outputs": [
				{
					"internalType": "uint256",
					"name": "",
					"type": "uint256"
				}
			],
			"stateMutability": "view",
			"type": "function"
		},
		{
			"inputs": [
				{
					"internalType": "uint256",
					"name": "_amount",
					"type": "uint256"
				}
			],
			"name": "lend",
			"outputs": [],
			"stateMutability": "nonpayable",
			"type": "function"
		},
		{
			"inputs": [
				{
					"internalType": "address",
					"name": "",
					"type": "address"
				}
			],
			"name": "lendingBalance",
			"outputs": [
				{
					"internalType": "uint256",
					"name": "",
					"type": "uint256"
				}
			],
			"stateMutability": "view",
			"type": "function"
		},
		{
			"inputs": [],
			"name": "repay",
			"outputs": [],
			"stateMutability": "nonpayable",
			"type": "function"
		},
		{
			"inputs": [],
			"name": "token",
			"outputs": [
				{
					"internalType": "contract IERC20",
					"name": "",
					"type": "address"
				}
			],
			"stateMutability": "view",
			"type": "function"
		}
	]
}